:100000000C9484020C94CE1C0C94FB1C0C94281DA4
:100010000C94551D0C94AC020C94AC020C94821DF3
:100020000C94AC020C94AC020C94B41A0C943B1BD0
:100030000C94AC020C94AC020C94AC020C94AC0288
:100040000C94AC020C94AC020C94AC020C94AC0278
:100050000C94AC020C94AC020C94AC020C94AF1D4A
:100060000C94AC020C94AC020C94AC020C94AC0258
:100070000C94AC020C94AC020C94AC020C94AC0248
:100080000C94AC020C94AC020C94AC020C94AC0238
:100090000C9433140C94AC020C94AC020C94AC028F
:1000A0000C94AC020C94AC020C94AC023C2F707219
:1000B0006F66696C653E00093C2F646174613E00A7
:1000C0003C2F656666656374733E0009093C65668E
:1000D00066656374733E003C2F74696D653E00096C
:1000E000093C74696D653E0009093C2F72676277AF
:1000F0003E003C2F773E000909093C773E003C2F2B
:10010000623E000909093C623E003C2F673E00093F
:1001100009093C673E003C2F723E000909093C7208
:100120003E0009093C726762773E00273E00756E0B
:100130006B6E6F776E00636F6C6F7200093C646169
:10014000746120747970653D27003C2F6E616D6588
:100150003E00093C6E616D653E003C70726F6669E1
:100160006C653E00206E6F7420666F756E642E00A5
:1001700050726F66696C652000556E6B6E6F776E9E
:1001800020636F6D6D616E642E0072656C6F6164CB
:100190000070726576696577006D656D6F727900C4
:1001A000766F6C746167650063616C69627261741B
:1001B000650070726F662D64656C0070726F662DDD
:1001C0006D760070726F662D77630070726F662DAA
:1001D000770070726F662D7072696E740077726945
:1001E0007465007265616400706172616D730076A0
:1001F000657273696F6E0068616E647368616B65C8
:100200002D696F6472697665720063616C206F6638
:10021000667365743A2000646F6E65004545505200
:100220004F4D315F53495A453D0050524F46494C5E
:10023000455F4D41585F44415441434F554E543DF5
:100240000050524F46494C455F4E414D455F4D4130
:10025000585F43484152533D00454550524F4D3140
:100260005F4D41585F50524F46494C45533D004801
:10027000415244574152455F56455253494F4E5F94
:100280004E554D4245523D004649524D574152450B
:100290005F56455253494F4E5F4E554D4245523D74
:1002A0000048617264776172653A20430046697262
:1002B0006D776172653A20302E332E310068656C9F
:1002C0006C6F00080B00020202010009040000012B
:1002D000020200000524001001052401010104248C
:1002E00002060524060001070581031000400904E9
:1002F0000100020A00000007050202400000070595
:1003000083024000000403090422034100720064D8
:1003100000750069006E006F0020004C0065006FE2
:10032000006E006100720064006F001803410072EB
:10033000006400750069006E006F0020004C004CE6
:1003400000430012010002000000404123368000FB
:1003500001010200011201000202000040412336A7
:100360008000010102000100C18081C10000000085
:10037000240027002A002D00300000000000250086
:1003800028002B002E003100000000002300260072
:1003900029002C002F0004040404040304050202B5
:1003A000020204030202020206060606060604040E
:1003B0000202020404080201104080401020408024
:1003C00040800802040180402010020110801020AB
:1003D00040400000000200080E0000030401000B72
:1003E000000000000000000000000000000000000D
:1003F000070605040100080A0B0C0D090501090296
:10040000A1010901A10085010509190129031500B0
:10041000250195037501810295017505810305018B
:100420000930093109381581257F75089503810642
:10043000C0C005010906A1018502050719E029E7E9
:100440001500250175019508810295017508810344
:1004500095067508150025650507190029658100B1
:10046000C00904020001030000000921010100018C
:100470002265000705840340000100000000000021
:1004800000002A2B280000000000000000000000EF
:10049000000000000000000000002C9EB4A0A1A2FB
:1004A000A434A6A7A5AE362D3738271E1F2021223B
:1004B00023242526B333B62EB7B89F848586878834
:1004C000898A8B8C8D8E8F90919293949596979824
:1004D000999A9B9C9D2F3130A3AD350405060708E2
:1004E000090A0B0C0D0E0F10111213141516171804
:1004F000191A1B1C1DAFB1B0B500BC03FD09250CBA
:10050000D3124016001A762011241FBECFEFDAE076
:10051000DEBFCDBF11E0A0E0B1E0E4E1F4E402C051
:1005200005900D92A237B107D9F714E0A2E7B1E028
:1005300001C01D92AF38B107E1F714E0C8E0D5E083
:1005400004C02297FE010E940422CA3FD107C9F7C6
:100550000E940B170C9408220C940000FC018827C1
:100560009927E89421912032E9F3293010F02E30B8
:10057000C8F32B3241F02D3239F4689404C00E9444
:10058000DE02820F911D219120532A30C0F31EF408
:10059000909581959F4F0895FB01DC018D91059009
:1005A00080190110D9F3990B0895FB01DC018D919D
:1005B000019080190110D9F3990B08957AE0979F63
:1005C000902D879F802D910D112408950F93FC018C
:1005D00060834183228303830F910895DC01FB0133
:1005E00080818C93818111968C93119782811296D0
:1005F0008C931297838113968C931397CD01089552
:10060000FC018681982F91FF08C08091B201882358
:1006100021F460E070E090E0089590FF09C06091DF
:100620007601709177018091780190917901089518
:1006300060817181828193810895AF92BF92CF9240
:10064000DF92EF92FF920F931F93CF93DF93EC0112
:10065000FB01DA017D836C835F834E8308871987F2
:100660002A873B87808188838181898382818A83ED
:1006700083818B8380818C878C918D87DF87CE8768
:100680008181888F11968C911197898FCE01019667
:100690009B8F8A8F82818CA312968C9112978DA347
:1006A000CE0102969FA38EA3838188AB13968C9173
:1006B00089ABCE0103969BAB8AAB8E0191E0A92E4C
:1006C000B12CCC24CA94DC2C80E3E82EF12CEC0E67
:1006D000FD1EF8018585682F70E08485681B71090F
:1006E00077FF06C0D78AC68A709561957F4F06C08E
:1006F000F801B78AA68A6115710579F09B01442734
:1007000037FD4095542F688579858A859B850E94A1
:10071000B121F801318B208B03C0F801118A108AB6
:10072000045F1F4F0E151F05A1F6DF91CF911F919A
:100730000F91FF90EF90DF90CF90BF90AF90089512
:100740000F931F93FC01AB01848195818C0133E0F1
:10075000000F111F3A95E1F7880F991F080F191F15
:10076000222717FD2095322F86E791E0BF010E94D6
:100770001D031F910F91089508950F931F93CF9319
:10078000DF93182F092F0E94F71DAB01BC01212F09
:10079000302FC901FC0191E020E030E0C685D7850B
:1007A000188185851817D9F082899389A489B5891C
:1007B00084179507A607B70788F48689810F888371
:1007C00080899189AA2797FDA095BA2F840F951F3C
:1007D000A61FB71F828B938BA48BB58B90E02F5FE6
:1007E0003F4F3C9624303105C9F6892FDF91CF91D8
:1007F0001F910F9108950F931F938C010E94F71D75
:10080000D8011E96ED91FC911F971C962C911C9778
:10081000208350962D913C915197442737FD409568
:10082000542F260F371F481F591FF801228B338B77
:10083000448B558B028CF38DE02D58962C91589754
:1008400020835C962D913C915D97442737FD409520
:10085000542F260F371F481F591FF801268F378F37
:1008600040A351A306A0F7A1E02D94962C91949754
:10087000208398962D913C919997442737FD409578
:10088000542F260F371F481F591FF80122A733A7DF
:1008900044A755A702A8F3A9E02DD0962C91D09794
:1008A0002083D4962D913C91D597442737FD4095D0
:1008B000542F260F371F481F591FF80126AB37AB9F
:1008C00040AF51AF1F910F910895EF92FF920F9398
:1008D0001F93CF93DF938C010E94F71DA0E0E801E6
:1008E000EC81FD819F0153E0220F331F5A95E1F700
:1008F000EE0FFF1F2E0F3F1F40E050E0E09072010F
:10090000F090730100917401109175012E0D3F1D3F
:10091000401F511F621773078407950708F0A1E075
:100920008A2FDF91CF911F910F91FF90EF90089543
:100930001F93CF93DF93EC018E8181FF22C00E9431
:10094000F71D9B01AC018091B3019091B401A0917E
:10095000B501B091B6018896A11DB11D28173907C0
:100960004A075B0770F08091B20191E0892780937C
:10097000B2012093B3013093B4014093B501509379
:10098000B601CE010E946504182F8E8180FF09C038
:1009900086E791E00E94BD03112319F0811181E0E7
:1009A000182F812FDF91CF911F910895CF93DF935F
:1009B000EC010E94F71D60937201709373018093A4
:1009C0007401909375018E8180FF04C086E791E0E9
:1009D0000E94FB038E8181FF13C080917201909170
:1009E0007301A0917401B09175018093B30190934C
:1009F000B401A093B501B093B60181E08093B20138
:100A0000DF91CF9108956F927F928F929F92AF92D4
:100A1000BF92CF92DF92EF92FF920F931F936C01E0
:100A20008B0167EBE62E61E0F62E0F5F1F4FC701CB
:100A3000B8010E944309682E0F5F1F4FC701B8011C
:100A40000E944309782E0F5F1F4FC701B8010E9413
:100A50004309882E0F5F1F4FC701B8010E94430949
:100A6000982E0F5F1F4FC701B8010E944309A82E9F
:100A70000F5F1F4FC701B8010E944309B82E0F5FD7
:100A80001F4FC701B8010E944309F6018683A48263
:100A9000B582608271828282938280E090E01F91B1
:100AA0000F91FF90EF90DF90CF90BF90AF909F900D
:100AB0008F907F906F900895CF93DF9360E070E008
:100AC000EB0187EB91E00E944309882349F0BE01C6
:100AD00068537F4F83E0683E780791F7CFEFDFEFF1
:100AE000CE01DF91CF9108950F931F93CF93DF93A2
:100AF0008C018FEF0E3F180719F4C0E0D4E018C046
:100B0000C8010197059790F460E070E0EB0187EB76
:100B100091E00E94430990E08017910749F0BE01DF
:100B200068537F4F83E0683E780781F7CFEFDFEFB0
:100B3000CE01DF91CF911F910F9108950E9474050E
:100B400020E08F5F9F4F09F021E0822F08952F92C0
:100B50003F924F925F926F927F929F92AF92BF921D
:100B6000CF92DF92EF92FF920F931F93DF93CF9379
:100B700000D0CDB7DEB78C010E9474056C018FEFF9
:100B8000C8168FEFD80691F484E594E060E771E031
:100B90000E94481784E594E0B8014AE050E00E94C2
:100BA0009C1884E594E064E671E03AC184E594E041
:100BB0006AE571E00E94931784E594E062E571E0D4
:100BC0000E94481786010F5F1F4F60E2A62EB12CCE
:100BD000AC0CBD1C87EB91E0B8010E944309682F63
:100BE000882349F084E594E00E946B170F5F1F4F44
:100BF0000A151B0579F784E594E06AE471E00E9428
:100C0000931751E2652E712C6C0C7D1C1E0108940B
:100C1000211C311C49EC442E512C4C0C5D1CB301A1
:100C20006150704087EB91E00E944309182F8823A0
:100C300009F4F2C084E594E06CE371E00E94481787
:100C4000113029F484E594E066E371E004C084E5A2
:100C500094E06EE271E00E94481784E594E06BE254
:100C600071E00E94931787EB91E0B3010E94430962
:100C7000D82E0894611C711C87EB91E0B3010E948F
:100C80004309C82E0894611C711C87EB91E0B301E5
:100C90000E944309B82E0894611C711C87EB91E0F7
:100CA000B3010E944309A82E0894611C711C87EBB4
:100CB00091E0B3010E944309082F0894611C711C44
:100CC00087EB91E0B3010E944309182F0894611C3F
:100CD000711C87EB91E0B3010E944309982EF1014A
:100CE00000831183C8017C0133E0EE0CFF1C3A95B0
:100CF000E1F7880F991FE80EF91E00E010E084E587
:100D000094E062E271E00E94931784E594E06BE165
:100D100071E00E94481784E594E06D2D4AE050E0B0
:100D20000E94361884E594E066E171E00E94931712
:100D300084E594E06FE071E00E94481784E594E058
:100D40006C2D4AE050E00E94361884E594E06AE099
:100D500071E00E94931784E594E063E071E00E94E3
:100D6000481784E594E06B2D4AE050E00E94361865
:100D700084E594E06EEF70E00E94931784E594E0C0
:100D800067EF70E00E94481784E594E06A2D4AE01E
:100D900050E00E94361884E594E062EF70E00E9413
:100DA000931784E594E068EE70E00E94931784E561
:100DB00094E06FED70E00E94481784E594E0B8017C
:100DC000A7012AE030E00E94271884E594E067ED4F
:100DD00070E00E94931784E594E06BEC70E00E9451
:100DE000481784E594E0692D4AE050E00E943618E7
:100DF00084E594E060EC70E00E94931784E594E051
:100E000067EB70E00E94931782E090E0680E791E15
:100E10006414750409F003CF84E594E06CEA70E093
:100E20000E9493170F900F90CF91DF911F910F9118
:100E3000FF90EF90DF90CF90BF90AF909F907F900A
:100E40006F905F904F903F902F9008950E9474058F
:100E5000BC018FEF6F3F780739F0605E7F4F87EB03
:100E600091E040E00E9431090895AF92BF92CF9285
:100E7000DF92EF92FF920F931F93DF93CF93CDB743
:100E8000DEB72A970FB6F894DEBF0FBECDBFD82EBF
:100E9000C92E5B017E010894E11CF11C00E010E00A
:100EA0000F5F1F4FC8010E947405D7018D939D935A
:100EB0007D0105301105A1F78D2D9C2D9C01890127
:100EC000EE24FF246E010894C11CD11C19C0F80146
:100ED00042810190F081E02D3197EE0FFF1FEC0D64
:100EE000FD1D60817181FFEF6F3F7F0721F087EB70
:100EF00091E00E9431090894E11CF11C0C5F1F4F26
:100F0000EA14FB0424F32A960FB6F894DEBF0FBE52
:100F1000CDBFCF91DF911F910F91FF90EF90DF90A8
:100F2000CF90BF90AF900895CF93DF930E94740548
:100F3000EC018FEFCF3FD80731F087EB91E0BE0196
:100F400040E00E943109CE01DF91CF9108952F92A8
:100F50003F924F925F926F927F928F929F92AF9249
:100F6000BF92CF92DF92EF92FF920F931F93DF9386
:100F7000CF9300D000D0CDB7DEB71B013A012901D5
:100F8000FC82EB820E9474059C018FEF2F3F380793
:100F900009F492C0C1010197459708F08DC0710115
:100FA000E3E0EE0CFF1CEA95E1F788E190E0E80E43
:100FB000F91EE20EF31E87EB91E0B70141E00E94BB
:100FC00031099FEF69169FEF790641F0B7016F5F16
:100FD0007F4F87EB91E0462D0E9431092FEF42169B
:100FE0002FEF520641F0B7016E5F7F4F87EB91E024
:100FF000442D0E9431098FEF0F3F180741F0B701D0
:101000006D5F7F4F87EB91E0402F0E9431098B810C
:101010009C818F5F9F4F41F0B7016C5F7F4F87EBE3
:1010200091E04B810E9431098FEFC8168FEFD806EF
:10103000F9F0C6016AE070E00E949E21CB012DEF1D
:10104000693E720710F088EE9DEF9A8389831A81BA
:10105000B7016B5F7F4F87EB91E049810E943109B7
:10106000B7016A5F7F4F87EB91E0412F0E94310902
:101070008FEFA8168FEFB80641F0B701695F7F4F79
:1010800087EB91E04A2D0E9431099FEF89169FEF6F
:10109000990691F021E08216910471F485E12816F9
:1010A000310450F488E090E0E80EF91E87EB91E0FF
:1010B000B70140E00E9431090F900F900F900F9000
:1010C000CF91DF911F910F91FF90EF90DF90CF9024
:1010D000BF90AF909F908F907F906F905F904F9058
:1010E0003F902F900895EF92FF920F931F93CF930D
:1010F000DF93162F072F0E947405AC018FEF4F3F2F
:10110000580711F1BA016F5F7F4FEFEF6F3F7E0716
:10111000D9F0812F902F9C018901EB01F0E2EF2E95
:10112000F12CE40EF51E87EB91E0BE01F801408141
:101130000E943109F8018081882331F00F5F1F4F31
:101140002196CE15DF0579F7DF91CF911F910F9191
:10115000FF90EF9008950F931F93CF93DF938C012F
:1011600001970597E0F4C8010E9474058F5F9F4FB7
:10117000B1F40E945C05EC018FEFCF3FD80779F006
:1011800087EB91E0BE01402F0E943109219687EB49
:1011900091E0BE0140E00E94310981E001C080E0A1
:1011A000DF91CF911F910F910895CF92DF92EF922F
:1011B000FF920F931F93CF93DF936C017B018A0102
:1011C000C0E0D0E00CC0BE016C0D7D1DF701EC0F3E
:1011D000FD1F87EB91E040810E9431092196C017E5
:1011E000D1078CF3DF91CF911F910F91FF90EF907A
:1011F000DF90CF900895EF92FF920F931F93CF93BC
:10120000DF93681779071CF40FEF1FEF02C001E0AE
:1012100010E0EC017801E60EF71E13C087EB91E0B9
:10122000BE010E944309682F84E594E04AE050E043
:101230000E94361884E594E060E20E946B17C00FAC
:10124000D11FCE15DF0551F784E594E060E071E031
:101250000E94CE18DF91CF911F910F91FF90EF90D8
:101260000895FC01CB0180509440883C910530F4F6
:10127000E60FF71FE050F440408308958FE094E0BC
:101280000E94E9150895FC01CB0180509440883CF0
:10129000910530F4E60FF71FE050F4408081089587
:1012A0008FE094E00E94E2150895CF92DF92EF92D2
:1012B000FF920F931F93FC018B017A01690186E075
:1012C000BF010E94A71E89E0B8010E94A71E85E009
:1012D000B7010E94A71E8AE0B6010E94A71E1F91B7
:1012E0000F91FF90EF90DF90CF9008950F931F9391
:1012F00005E913E0C8016AE670E00E949912C8018E
:1013000060E00E941B13C80160E40E941B13C80127
:1013100065E00E941B13C8016AE60E944B131F91EF
:101320000F91089585E993E06AE670E00E949912B2
:1013300085E993E060E00E941B1385E993E06AE68B
:101340000E944B1385E993E06AE670E041E050E0CB
:101350000E946B1385E993E00E94AC12803159F032
:101360008032A1F0882331F584E190E060E070E004
:1013700044E150E006C084E190E064E170E040E0C8
:1013800050E020E030E00E945509089580E090E0B0
:1013900064E170E040E050E020E030E00E94550958
:1013A00080917F02882381F40E945E1281E0809305
:1013B0007F02089580E090E060E070E044E150E05A
:1013C00020E030E00E9455090895DF93CF9300D0CC
:1013D000CDB7DEB780918B0490918C04009711F407
:1013E0008FE894E09E012F5F3F4F281B390BC90106
:1013F0000F900F90CF91DF91089586E892E00E94C0
:10140000D90D089589B58E7F89BD8091C50088600A
:101410008093C5008091C70081FFFCCF8091C500FB
:101420008E7F8093C5008091C50084608093C50045
:101430008CE060E00E94D91F08958CE061E00E947A
:10144000D91F64E670E080E090E00E942B1E80913E
:10145000C50084608093C5008091C70080FFFCCFE9
:101460008091C50081608093C50089B5826089BD87
:101470008091C500877F8093C50009B400FEFDCF31
:10148000089580918102882381F483B78E7F83BF82
:1014900081E0809381020E94F71D60938202709325
:1014A0008302809384029093850208951F93CF93C3
:1014B000DF9384E594E060EC72E10E94F51583B758
:1014C000817F846083BF86E892E00E94120D86E8E7
:1014D00092E00E94CA0D12E0812F62E00E944C1F30
:1014E0001F5F1E30C9F786E061E00E944C1F89E053
:1014F00061E00E944C1F85E061E00E944C1F8AE081
:1015000061E00E944C1F87E060E00E944C1F87E171
:1015100061E00E94D91F8CE061E00E944C1F8CE0CA
:1015200061E00E94D91F81E061E47AE042E050E08E
:101530000E94791C85E993E00E946F138DE00E9460
:101540000C20892B69F4C0E0D0E087EB91E0BE016C
:1015500040E00E943109219684E0C030D807A9F705
:10156000DF91CF911F910895CF92DF92EF92FF927A
:101570000F93DF93CF93CDB7DEB72C970FB6F894C8
:10158000DEBF0FBECDBF8091B6029091B7026E0153
:101590000894C11CD11C009759F00E948A0C6D83DD
:1015A0007E838F839887C601BE016B5F7F4F0EC01D
:1015B00089E0E82EF12CEC0EFD1EC70160E040E052
:1015C00020E000E00E94E602C601B7010E94EE02A0
:1015D000698186E070E00E94A71E6A8189E070E060
:1015E0000E94A71E6B8185E070E00E94A71E6C819F
:1015F0008AE070E00E94A71E2C960FB6F894DEBF1A
:101600000FBECDBFCF91DF910F91FF90EF90DF9094
:10161000CF90089580918002882309F04BC080917B
:101620008102882309F441C082E00E940C20892BAA
:1016300039F01092810286E892E00E94A70D35C031
:101640000E94F71D20918202309183024091840212
:1016500050918502621B730B840B950B605D774084
:101660008040904010F186E060E00E94D91F89E040
:1016700060E00E94D91F85E060E00E94D91F8AE0E7
:1016800060E00E94D91F109281020E9476090E9498
:10169000020A83B7816083BF83B7816083BF889567
:1016A00083B78E7F83BF0E941D0A0E94FC100E9498
:1016B000B40A08950E94FC100E94920908950F93A5
:1016C0001F93CF93DF938C01942FE80140E050E00B
:1016D00020E030E0A0E0B0E0E88180E0EE2309F413
:1016E00081E09E1711F08823B1F018822A173B077A
:1016F00069F0FA01EE0FFF1FEE0FFF1FE60FF71F55
:10170000200F311F318320834F5F5F4F882341F4C7
:101710009D012F5F3F4F11962196A134B105E1F64F
:10172000CA01DF91CF911F910F910895DC01ED91D6
:10173000FC91119720E030E08081861769F41082D7
:101740002F5F3F4F8D919C911197820F931F13969E
:101750009C938E9312970895882329F413961C92D4
:101760001E92129708952F5F3F4F31962134310515
:1017700019F70895DF92EF92FF920F931F93CF9383
:10178000DF93162F072FD22E0E945F0B7C01212F93
:10179000302FC901EC0100E010E007C0CE016D2D33
:1017A0000E94960B0F5F1F4F24960E151F05B4F372
:1017B000C701DF91CF911F910F91FF90EF90DF90C4
:1017C00008954CE72DE30E94BA0B08954CE22FE2F6
:1017D0000E94BA0B0895AF92BF92CF92DF92EF9220
:1017E000FF920F931F93CF93DF935C016A01EB018C
:1017F00000E010E00FC07E0188819981B5010E9450
:10180000D5022496009721F4F7012281338107C085
:101810000F5F1F4F0C151D0574F320E030E0C90168
:10182000DF91CF911F910F91FF90EF90DF90CF90BC
:10183000BF90AF9008952FEF3FEFFC0135832483D5
:101840000895FC017583648308950895CF93DF9311
:10185000EC01FB017F836E836115710529F186819F
:1018600080FF1EC0288139812115310519F460E0FF
:1018700070E013C08A819B810196821793071CF048
:101880006CEB72E00AC0BC0153E0660F771F5A95FB
:10189000E1F7681B790B64547D4FCF010E94A003D0
:1018A0008E819F810E94D604DF91CF910895FC0123
:1018B000228133812F5F3F4F808191812817390723
:1018C00014F020E030E03383228380819181892BE2
:1018D00019F460E070E00AC0B901A3E0660F771F59
:1018E000AA95E1F7621B730B64547D4FCF010E94F0
:1018F000260C0895FC011382128280819181892B2C
:1019000019F06CEB72E002C060E070E0CF010E9461
:10191000260C0895BF92CF92DF92EF92FF920F9321
:101920001F93DF93CF9300D000D0CDB7DEB77C01FB
:10193000FC0180819181892B69F4CE01019660E0E0
:1019400040E020E000E00E94E60269817A818B811C
:101950009C8118C0F701868197810E949804182FF6
:10196000F701868197810E940003062FD72EC82E8B
:10197000B92E112319F0C7010E94570C602F7D2D3D
:101980008C2D9B2D0F900F900F900F90CF91DF918A
:101990001F910F91FF90EF90DF90CF90BF9008952F
:1019A000EF92FF920F931F93CF93DF938C01FC0173
:1019B000C481D58111821082A09680E2E82EF12C9C
:1019C00087EB91E0BE010E9443098130F9F4F801F0
:1019D00020813181C901B3E0880F991FBA95E1F7E1
:1019E000821B930B84549D4FBE010E940305F80196
:1019F0008081918101969183808388E090E0E80E58
:101A0000F91E289698ECE916F104D1F6C8010E9457
:101A10007A0C80E090E0DF91CF911F910F91FF90C1
:101A2000EF900895CF92DF92EF92FF920F931F9362
:101A3000DF93CF93CDB7DEB72A970FB6F894DEBF0A
:101A40000FBECDBF7C01889660E074E00E94210C3F
:101A50008FEF9FEF9A8389839C838B839E838D83F3
:101A600098878F839A87898700E010E06E01089439
:101A7000C11CD11C87EB91E0B8010E944309E82FFB
:101A80008150853040F4F0E03197EE0FFF1FEC0DF0
:101A9000FD1D0083118308531F4F83E0083E180784
:101AA00049F7F70115AA14AA8E010F5F1F4F3BE0FB
:101AB000C32ED12CCC0EDD1EF80160817181FFEFA9
:101AC0006F3F7F0791F0F70184A995A923E0880F64
:101AD000991F2A95E1F78E0D9F1D0E94210CF70199
:101AE00084A995A9019695AB84AB0E5F1F4F0C1589
:101AF0001D0511F7F70184A995A92A960FB6F89448
:101B0000DEBF0FBECDBFCF91DF911F910F91FF9030
:101B1000EF90DF90CF9008950F931F93CF93DF93B3
:101B20008C01EB016115710519F0CB010E94D00CFD
:101B3000F801D1ABC0ABCE01DF91CF911F910F91D6
:101B40000895BC01685D7F4F0E948C0D0895FC01D3
:101B500062A973A96F5F7F4F84A995A96817790758
:101B600014F060E070E073AB62AB84A995A9892B97
:101B700031F46115710519F460E070E007C053E0BD
:101B8000660F771F5A95E1F76E0F7F1FCF010E94F6
:101B90008C0D0895FC0113AA12AA84A995A9892B7A
:101BA00019F460E070E001C0BF01CF010E948C0D0C
:101BB00008950F931F93CF93DF938C01C0E0D0E083
:101BC000C8018C0F9D1F0E941B0C2896C832D1059E
:101BD000B9F7C80188960E941B0CF80111AA10AA37
:101BE000DF91CF911F910F9108950F931F9304E5FB
:101BF00014E0C8016DEA72E00E949317C80161EA1F
:101C000072E00E9493171F910F9108950F931F93F5
:101C100006E812E0C8010E94120DC8010E94CA0D18
:101C20001F910F9108950E94E509BC0184E594E09D
:101C30004AE050E00E94AF1808950F931F930E944E
:101C40005E1204E514E0C80167E172E00E94931798
:101C5000C8016AE072E00E94481780E00E941E12EC
:101C600028E630E140E050E00E947F21AB01BC015A
:101C7000C8012AE030E00E9488181F910F91089552
:101C800081E00E941E12AB01BC0184E594E02AE0D1
:101C900030E00E94881808959C01AB0181E091E03A
:101CA000B9010E94EB0B009721F00E94AE020E9446
:101CB000A70508959C01AB0181E091E0B9010E9464
:101CC000EB0B009721F00E94AE020E94940708954A
:101CD0008F929F92AF92BF92CF92DF92EF92FF923C
:101CE0000F931F93DF93CF93CDB7DEB7C058D0408B
:101CF0000FB6F894DEBF0FBECDBF9C01AB0181E0F3
:101D000091E0B9010E94EB0B0097B9F18E010F5FD2
:101D10001F4FB8010E94E60B4C0181E4E82EF12C24
:101D2000EC0EFD1ECC24DD241FC0F80180819181C2
:101D30000E94AE025C01F801828193810E94AE0292
:101D4000A114B10441F0863091052CF4F701B18261
:101D5000A082938382830894C11CD11C84E090E00C
:101D6000E80EF91E0C5F1F4FC814D904F4F2CE011F
:101D70008F5B9F4FB4010E943507C058DF4F0FB6ED
:101D8000F894DEBF0FBECDBFCF91DF911F910F91B1
:101D9000FF90EF90DF90CF90BF90AF909F908F908B
:101DA00008952F923F924F925F926F927F928F92FF
:101DB0009F92AF92BF92CF92DF92EF92FF920F93DA
:101DC0001F93DF93CF93CDB7DEB72A970FB6F89462
:101DD000DEBF0FBECDBF8C017B0181E091E0B80179
:101DE000A7010E94EB0B4C0183E091E0B801A70131
:101DF0000E94EB0B6C0185E091E0B801A7010E9405
:101E0000EB0B9A87898787E091E0B801A7010E94D0
:101E1000EB0B5C0189E091E0B801A7010E94EB0B9C
:101E20003C018BE091E0B801A7010E94EB0B2C0173
:101E30008DE091E0B801A7010E94EB0B1C018FE03F
:101E400091E0B801A7010E94EB0B98878F8381E195
:101E500091E0B801A7010E94EB0B9E838D83811452
:101E6000910409F469C0C114D10409F465C0C40126
:101E70000E94AE029C838B83C6010E94AE029A83AD
:101E8000898389859A85892B21F488248A94982CC2
:101E900005C089859A850E94AE024C01A114B10447
:101EA00021F4AA24AA94BA2C04C0C5010E94AE024F
:101EB0005C016114710419F40FEF1FEF04C0C3013A
:101EC0000E94AE028C014114510421F4EE24EA94E4
:101ED000FE2C04C0C2010E94AE027C012114310418
:101EE00021F4CC24CA94DC2C04C0C1010E94AE02AF
:101EF0006C01AF81B885AB2B21F466246A94762CF3
:101F000005C08F8198850E94AE023C01ED81FE8163
:101F1000EF2B19F4EFEFFFEF05C08D819E810E943A
:101F2000AE02FC018B819C8169817A81A4019501BB
:101F300053014F010E94A7072A960FB6F894DEBFFF
:101F40000FBECDBFCF91DF911F910F91FF90EF900A
:101F5000DF90CF90BF90AF909F908F907F906F90C9
:101F60005F904F903F902F900895CF92DF92EF9225
:101F7000FF920F931F93CF93DF938C017B0186E138
:101F800091E0B801A7010E94EB0B6C0181E091E0A8
:101F9000B801A7010E94EB0BEC018BE191E0B801C5
:101FA000A7010E94EB0B8C012097F9F0CE010E9453
:101FB000AE02EC010E949E05882329F4CE010E9406
:101FC000AB08882391F0C114D10421F0CE01B601F1
:101FD0000E9473080115110541F0C8010E94AE026C
:101FE000019719F4CE010E942607DF91CF911F912E
:101FF0000F91FF90EF90DF90CF9008958F929F9276
:10200000AF92BF92CF92DF92EF92FF920F931F9306
:10201000DF93CF93CDB7DEB7C055D0400FB6F8945D
:10202000DEBF0FBECDBF8C017B0181E291E0B80124
:10203000A7010E94EB0B4C0183E291E0B801A701DC
:102040000E94EB0B8114910451F1009741F18E0134
:102050000F5E1F4FB8010E94E60B6C01780100E093
:1020600010E05E010894A11CB11C0FC0F701808133
:1020700091810E94AE02F501E00FF11F80830F5F96
:102080001F4F84E090E0E80EF91E0C151D0574F357
:10209000C4010E94AE02B501A6010E94D508C05B32
:1020A000DF4F0FB6F894DEBF0FBECDBFCF91DF91EB
:1020B0001F910F91FF90EF90DF90CF90BF90AF9066
:1020C0009F908F900895CF92DF92EF92FF920F939F
:1020D0001F93CF93DF938C017B0181E291E0B801E4
:1020E000A7010E94EB0BEC0188E291E0B801A70187
:1020F0000E94EB0B6C018AE291E0B801A7010E94FB
:10210000EB0B8C01209721F1CE010E94AE02EC0175
:10211000C114D10429F0C6010E94AE02BC0115C051
:102120000115110511F4BC0110C0C8010E94AE02D6
:10213000009771F0BE01680F791F181619061CF47C
:102140006150704002C06F5F7F4FCE010E94FB085C
:10215000DF91CF911F910F91FF90EF90DF90CF9083
:1021600008950F931F9304E514E0C80168E872E036
:102170000E944817C8016CE271E00E94CE18C801A5
:102180006FE672E00E944817C80162E371E00E94A6
:10219000CE18C80169E572E00E944817C80165E0E1
:1021A00070E04AE050E00E94AF18C80161E472E0BC
:1021B0000E944817C8016FE170E04AE050E00E94B9
:1021C000AF18C8016AE272E00E944817C80165E1D1
:1021D00070E04AE050E00E94AF18C8016CE172E084
:1021E0000E944817C80160E074E04AE050E00E9495
:1021F000AF181F910F910895CF92DF92EF92FF9247
:102200000F931F93DF93CF93CDB7DEB7C158D04064
:102210000FB6F894DEBF0FBECDBF84E594E00E94F8
:10222000F6157C01009709F4F9C081E0E816F10485
:1022300029F484E594E00E941D16F0C08E010F5B26
:102240001F4F84E594E0B801A7010E940D19F80121
:10225000EE0DFF1D1082F7013197E00FF11F808115
:102260008D3009F41082CE018F5B9F4FBE016F5FEE
:102270007F4F0E94E10B6C01009709F4CFC0E98009
:10228000FA80C70167EF71E00E94CC02892B11F040
:1022900000E007C084E594E06DEB72E00E949317C4
:1022A00001E0C7016FEE71E00E94CC02892B31F48E
:1022B000CE010196B6010E94F50D01E0C70168EE5E
:1022C00071E00E94CC02892B31F4CE010196B60157
:1022D0000E94B11001E0C70163EE71E00E94CC02E0
:1022E000892B31F4CE010196B6010E94631001E002
:1022F000C7016DED71E00E94CC02892B31F4CE0153
:102300000196B6010E94FE0F01E0C70162ED71E087
:102310000E94CC02892B31F4CE010196B6010E94B5
:102320004C0E01E0C7016BEC71E00E94CC02892BDE
:1023300031F4CE010196B6010E94B50F01E0C7014C
:1023400063EC71E00E94CC02892B31F4CE0101963E
:10235000B6010E94D10E01E0C7016BEB71E00E9453
:10236000CC02892B31F4CE010196B6010E94680E91
:1023700001E0C70162EB71E00E94CC02892B31F4CD
:10238000CE010196B6010E945A0E01E0C70168EA2B
:1023900071E00E94CC02892B31F4CE010196B60186
:1023A0000E941D0E01E0C70160EA71E00E94CC02AC
:1023B000892B31F4CE010196B6010E94400E01E056
:1023C000C70169E971E00E94CC02892B31F4CE018A
:1023D0000196B6010E94130E01E0C70161E971E0A8
:1023E0000E94CC02892B29F486E892E00E94A10D7C
:1023F00001E0C7016AE871E00E94CC02892B31F448
:10240000CE010196B6010E94060E08C0002331F4E9
:1024100084E594E069E771E00E949317CF57DF4F9E
:102420000FB6F894DEBF0FBECDBFCF91DF911F91E5
:102430000F91FF90EF90DF90CF900895DF92EF9291
:10244000FF920F931F93D82E8EE580937C0062E05D
:1024500070E080E090E00E942B1E80917A00806402
:1024600080937A0080917A0086FDFCCF809178007D
:1024700040917900342F20E090E0282B392B79010E
:102480000027F7FC0095102FDD2081F060913401CA
:10249000709135018091360190913701A801970123
:1024A0000E94D321C901DA017C018D01B701C80165
:1024B0001F910F91FF90EF90DF900895EF92FF92A0
:1024C0000F931F93CF93DF93EE24FF248701C0E087
:1024D000D0E080E00E941E12E60EF71E081F191FB2
:1024E00064E670E080E090E00E942B1E2196CA30E6
:1024F000D10579F7C801B7012AE030E040E050E0AB
:102500000E94D321CA01B90124E030E140E050E04B
:102510000E947F21609334017093350180933601CE
:1025200090933701DF91CF911F910F91FF90EF9022
:10253000089581E080939403609371031092920355
:102540001092930308952091700330E080916F03FF
:10255000281B3109C901089540916F0380917003D0
:10256000481718F02FEF3FEF0AC0E42FF0E0E15BCF
:10257000FC4F8081282F30E04F5F40936F03C901EB
:102580000895E0916F0380917003E81718F0EFEF62
:10259000FFEF06C0F0E0E15BFC4F8081E82FF0E048
:1025A000CF0108950895109298031092970388EE32
:1025B00093E0A0E0B0E08093990390939A03A093F6
:1025C0009B03B0939C0386E491E0909396038093E1
:1025D00095030895CF92DF92EF92FF920F931F938E
:1025E000CF93DF937C016B018A0180919403882350
:1025F000A1F0C0E0D0E00DC0D701ED91FC91D60173
:10260000AC0FBD1F0190F081E02DC7016C910995C1
:102610002196C017D10780F304C0CB01642F0E941C
:102620001814C801DF91CF911F910F91FF90EF9087
:10263000DF90CF900895DF93CF930F92CDB7DEB7A1
:10264000FC016983809194038823C9F080919303EE
:10265000803238F081E090E09383828320E030E0A4
:1026600015C080919203E82FF0E0EE58FC4F99815D
:1026700090838F5F809392038093930305C0CE0174
:10268000019661E00E94181421E030E0C9010F902A
:10269000CF91DF9108950F93062F8091710362E728
:1026A00073E04091930321E00E94C31310929203C0
:1026B00010929303109294030F910895413208F001
:1026C00040E2862F6FE473E00E947A1310926F034A
:1026D00080937003089521E00E945E130895109284
:1026E0006F031092700310929203109293030E9452
:1026F000C4150895382F413210F040E042C0809157
:10270000A1038823E1F791E09093A1032093A30311
:102710008FEF80930E041092C90341504093CA0377
:102720004F5F9093A2038091A203330F832B80937A
:10273000A2038091A403813041F41092A4038091FC
:10274000A2038093BB0085EC01C085EE8093BC00A2
:102750008091A1038130E1F38091C903841710F4C3
:102760004091C90320E030E00AC0FB01E20FF31FF3
:10277000D901A755BC4F8C9180832F5F3F4F241701
:10278000A0F3842F08950F931F93582F122F4132D7
:1027900010F081E04AC08091A1038823E1F782E034
:1027A0008093A1030093A3038FEF80930E041092F4
:1027B000C9034093CA03A9EAB3E0FB0102C08191B7
:1027C0008D938E2F861B8417D0F31092A2038091D5
:1027D000A203550F852B8093A2038091A40381301F
:1027E00041F41092A4038091A2038093BB0085EC76
:1027F00001C085EE8093BC00112321F08091A103DC
:102800008230E1F380910E048F3F11F480E00DC01F
:1028100080910E04803211F482E007C080910E0492
:10282000803311F084E001C083E01F910F9108957F
:10283000482F613210F081E008958091A103843027
:1028400011F082E008956093EC03ABECB3E0842FC9
:102850009C01F90102C081918D938E2F841B8617F4
:10286000D0F380E008951F920F920FB60F921124BB
:102870002F933F934F935F936F937F938F939F9388
:10288000AF93BF93EF93FF938091B90090E0887F5F
:1028900090708036910509F4F2C081369105CCF52F
:1028A0008832910509F47BC089329105B4F48031F6
:1028B000910509F46FC0813191053CF4009709F44A
:1028C00047C1089709F04FC165C08831910509F4E7
:1028D00066C0809709F047C182C08034910509F431
:1028E000A4C08134910544F48033910509F482C079
:1028F000C89709F038C189C08035910509F489C0AD
:102900008835910509F496C08834910509F02BC1EA
:10291000AEC08839910509F413C189399105ECF4E9
:102920008837910509F4ABC0893791054CF4883696
:10293000910509F4A4C08037910509F014C19FC026
:102940008838910509F4FCC08039910509F49DC0CF
:102950008038910509F007C198C0803B910509F4C2
:10296000C6C0813B91054CF4803A910509F49FC0A3
:10297000883A910509F0F7C0BAC0803C910509F486
:10298000E3C0883C910509F4DFC0883B910509F05C
:10299000EAC0C2C08091A2038093BB00CFC09091D7
:1029A000C9038091CA03981768F49091C903E92F6D
:1029B000F0E0E755FC4F80818093BB009F5F9093D0
:1029C000C903BCC08091A303882309F44BC085EDE3
:1029D0008093BC008091BC0084FDFCCFC2C080E22B
:1029E00080930E0485ED8093BC008091BC0084FD33
:1029F000FCCFB7C080E380930E0485ED8093BC00CC
:102A00008091BC0084FDFCCFACC088E380930E04B1
:102A10009BC08091C9039091BB00E82FF0E0E7557F
:102A2000FC4F90838F5F8093C9039091C90380917D
:102A3000CA0382C08091C9039091BB00E82FF0E0E7
:102A4000E755FC4F90838F5F8093C9038091A30368
:102A5000882341F085ED8093BC008091BC0084FD0B
:102A6000FCCF7FC081E08093A40384EA6EC085ED33
:102A70008093BC008091BC0084FDFCCF72C083E0D9
:102A80008093A10310920D0459C080910D048032EF
:102A900008F056C080910D049091BB00E82FF0E043
:102AA000E351FC4F90838F5F80930D0447C080916A
:102AB0000D04803230F4E0910D04F0E0E351FC4F5E
:102AC000108285ED8093BC008091BC0084FDFCCF1A
:102AD0001092A10360910D04E091A703F091A80367
:102AE0008DEE93E070E0099510920D042DC084E006
:102AF0008093A1031092EB031092EC03E091A503E5
:102B0000F091A60309958091EC03882329F481E0D4
:102B10008093EC031092CB039091EB03E92FF0E04C
:102B2000E553FC4F80818093BB009F5F9093EB0344
:102B30009091EB038091EC03981710F485EC01C0A1
:102B400085E88093BC000FC085EC8093BC0009C071
:102B500010920E0485ED8093BC008091BC0084FD32
:102B6000FCCF1092A103FF91EF91BF91AF919F9184
:102B70008F917F916F915F914F913F912F910F9026
:102B80000FBE0F901F9018951092A10381E08093C3
:102B9000A3031092A40382E061E00E94D91F83E0A6
:102BA00061E00E94D91FE9EBF0E080818E7F808395
:102BB00080818D7F808388E48093B80085E4809352
:102BC000BC000895F999FECF72BD61BDF89A80B539
:102BD0000895F999FECF1FBA72BD61BD40BD0FB611
:102BE000F894FA9AF99A0FBE089508952091500426
:102BF000309151048091520490915304281B390B59
:102C00002F733070C9010895209150043091510400
:102C100080915204909153042817390719F42FEF2B
:102C20003FEF09C0E0915204F0915304E05FFB4F85
:102C30008081282F30E0C9010895209150043091FF
:102C4000510480915204909153042817390719F4C4
:102C50002FEF3FEF13C0E0915204F0915304E05F77
:102C6000FB4F2081809152049091530401968F7301
:102C70009070909353048093520430E0C9010895FA
:102C8000109257041092560488EE93E0A0E0B0E052
:102C90008093580490935904A0935A04B0935B0412
:102CA00086E591E0909355048093540408950F9322
:102CB0001F93DF93CF930F92CDB7DEB78C0169835B
:102CC00080913F01882369F083E0BE016F5F7F4FF1
:102CD00041E050E00E941F1A1816190614F49C01D6
:102CE00007C081E090E0F8019383828320E030E028
:102CF000C9010F90CF91DF911F910F91089583E04B
:102D00000E94F6190895CF93DF9312C082E00E94CB
:102D100072192FEF8F3F9207C9F0E0915004F091A4
:102D20005104E05FFB4F8083D0935104C093500463
:102D3000C0915004D09151042196CF73D0708091EE
:102D4000520490915304C817D90701F7DF91CF912E
:102D50000895FC0180818E5F808380E863EC72E0DF
:102D600042E450E00E949D190895FC018181908108
:102D7000913A59F4813209F04CC080E068E371E087
:102D800047E050E00E949D1942C0913209F041C0D5
:102D9000803239F488E391E067E070E00E94E11945
:102DA00036C0823209F035C0828180933F01809124
:102DB000380190913901A0913A01B0913B01805BBB
:102DC0009440A040B04019F580913F0180FD12C0B1
:102DD00087E797E790930108809300082BE088E14C
:102DE00090E00FB6F894A895809360000FBE2093F2
:102DF00060000DC088E10FB6F894809360001092D7
:102E000060000FBEA895109201081092000881E0A2
:102E1000089580E00895CF93DF930E94511E8AE6C3
:102E200094E00E94011A0E94560AC0E0D0E00E947D
:102E30000A0B2097E1F30E940000F9CFCF92DF92B6
:102E4000EF92FF920F931F93CF93DF937C016B015F
:102E50008A01C0E0D0E00FC0D6016D916D01D701AD
:102E6000ED91FC910190F081E02DC7010995C80F0B
:102E7000D91F015010400115110571F7CE01DF91E6
:102E8000CF911F910F91FF90EF90DF90CF90089519
:102E9000EF92FF920F931F93CF93DF937C018B01EF
:102EA000C0E0D0E0F8010F5F1F4F6491662359F036
:102EB000D701ED91FC910190F081E02DC7010995BA
:102EC000C80FD91FEFCFCE01DF91CF911F910F9186
:102ED000FF90EF900895DC01ED91FC910190F0815D
:102EE000E02D09950895EF92FF920F931F938C01A7
:102EF000DC01ED91FC910190F081E02D6DE00995F0
:102F00007C01D801ED91FC910190F081E02DC80188
:102F10006AE009959C012E0D3F1DC9011F910F917B
:102F2000FF90EF900895EF92FF920F931F937C0113
:102F30000E9448178C01C7010E9473179C01200F43
:102F4000311FC9011F910F91FF90EF900895CF930A
:102F5000DF93EC016115710519F420E030E00FC03A
:102F6000DB010D900020E9F71197A61BB70BE88154
:102F7000F9810280F381E02DAD0109959C01C90121
:102F8000DF91CF9108954F925F927F928F929F929F
:102F9000AF92BF92CF92DF92EF92FF920F931F9367
:102FA000DF93CF93CDB7DEB7A1970FB6F894DEBF0E
:102FB0000FBECDBF2C01742ECB01223008F42AE0C5
:102FC00019A231E2C32ED12CCC0EDD1E822E992403
:102FD000AA24BB24672D752FA50194010E94B1215D
:102FE00079018A01C801B701A50194010E947F21DE
:102FF000472D461B0894C108D1084A3014F4405D9F
:1030000001C0495CF6014083E114F104010511059A
:1030100021F07E2C5F2DC801DDCFC201B6010E94D8
:10302000A717A1960FB6F894DEBF0FBECDBFCF9104
:10303000DF911F910F91FF90EF90DF90CF90BF90A5
:10304000AF909F908F907F905F904F900895DC019C
:103050002115310541F4ED91FC910190F081E02DB5
:10306000642F099508950E94C3170895EF92FF9267
:103070000F931F939A01E62EFF2400E010E0B801A1
:10308000A7010E9427181F910F91FF90EF900895BC
:10309000CF92DF92EF92FF920F931F93CF93DF9324
:1030A000EC016A017B012115310541F4E881F981C8
:1030B0000190F081E02D642F09951FC02A30310561
:1030C000D1F477FF17C0E881F9810190F081E02DFC
:1030D0006DE209958C0144275527BA014C195D0909
:1030E0006E097F09CE012AE00E94C3179801280FBC
:1030F000391F04C02AE00E94C3179C01C901DF9157
:10310000CF911F910F91FF90EF90DF90CF90089596
:10311000EF92FF920F931F937C010E9448188C013D
:10312000C7010E9473179C01200F311FC9011F9115
:103130000F91FF90EF900895EF92FF920F931F93DE
:103140007B019A010027F7FC0095102FB801A70119
:103150000E9448181F910F91FF90EF900895CF9211
:10316000DF92EF92FF920F931F936C017B019A0104
:103170000027F7FC0095102FB801A7010E944818FE
:103180008C01C6010E947317080F191FC8011F91F7
:103190000F91FF90EF90DF90CF900895EF92FF9204
:1031A0000F931F937C010E94A7178C01C7010E94F7
:1031B0007317080F191FC8011F910F91FF90EF900F
:1031C0000895CF93DF93EC010E94F71D68877987FC
:1031D0008A879B87E881F9810680F781E02DCE01FF
:1031E00009959C0197FF15C00E94F71D2885398518
:1031F0004A855B85621B730B840B950B2C813D818B
:103200004E815F81621773078407950718F32FEFCC
:103210003FEFC901DF91CF910895CF92DF92EF92F6
:10322000FF920F931F93CF93DF936C018B017A0171
:10323000C0E0D0E009C0C6010E94E11897FD07C0B8
:10324000F80181938F012196CE15DF05A0F3CE0101
:10325000DF91CF911F910F91FF90EF90DF90CF9072
:103260000895FC0104C08091F100819361506623B0
:10327000D1F7289884E6809363040895282F8091DD
:1032800064048823C1F057FF1AC015C02898909392
:1032900063048091F1008193E217F307B9F74115B8
:1032A000510539F08091F200882319F48BE6809360
:1032B000E800AFBF02C04FEF5FEFCA010895AFB79C
:1032C000F89427702093E9008091F200282F30E0D5
:1032D000241735070CF4A901FB019B01240F311DB4
:1032E00094E6DACFDF93CF930F92CDB7DEB7BE016E
:1032F0006F5F7F4F41E050E00E943E19019719F047
:103300002FEF3FEF03C08981282F30E0C9010F90D4
:10331000CF91DF9108952FB7F89487708093E900DB
:103320008091E80085FD02C090E004C08091F20029
:1033300090E4981B2FBF892F0895FF920F931F933E
:10334000F82E142F052F4091670450916804212F07
:10335000302FC901DC01FB016EEF29C0F7FE02C06E
:10336000949101C0908120916504309166042417E6
:103370003507ACF48091E8008570E1F38091E800B6
:1033800082FF03C02FEF3FEF17C09093F100C901F8
:1033900001968F739070892B11F46093E8002F5F72
:1033A0003F4F309366042093650411973196109730
:1033B000A9F6812F902F9C01C9011F910F91FF90B9
:1033C00008950F931F939C01162F072F8091E800FB
:1033D00082FFFCCFC901612F0E9431198BEF8093CE
:1033E000E800812F902F1F910F9108958093E9009D
:1033F0008091F200882319F08AE38093E800089511
:1034000008951092640481E08093D70080EA80934D
:10341000D80082E189BD09B400FEFDCF61E070E013
:1034200080E090E00E942B1E80E98093D8008CE021
:103430008093E2001092E000559A209A08956F92CE
:103440007F928F929F92AF92BF92CF92DF92EF9234
:10345000FF920F931F93CF93DF93E82E942E852E28
:1034600080916404882309F18B01242F352FC90131
:10347000EC016AEFF62E57E0752E7E208E2D90E03F
:1034800040E2A42EB12CA822B9223AE3632E20E414
:10349000C22ED12CC822D9224CC08E2D0E948B194D
:1034A000282F882361F4FA9419F42FEF3FEF4CC0D2
:1034B00061E070E080E090E00E942B1E3AC090E056
:1034C000C817D9070CF42C2FC21BD1094FB7F89499
:1034D0007092E900A114B10421F406C01092F10029
:1034E00021502223D9F719C0E7FC03C0F801922F1D
:1034F00010C0C801322F06C0FC010196E491E09390
:10350000F10031503323C1F706C081918093F1005F
:1035100091509923D1F7020F111D8091E80085FF8A
:1035200005C0209729F4C114D10411F06092E8007D
:103530004FBF209709F0B1CF5D9884E68093620475
:10354000292D382DC9019C01C901DF91CF911F910F
:103550000F91FF90EF90DF90CF90BF90AF909F9032
:103560008F907F906F9008951F920F920FB60F92D9
:1035700011242F933F934F935F936F937F938F9378
:103580009F93AF93BF93EF93FF938091E1001092CD
:10359000E100982F83FF0FC01092E90081E0809333
:1035A000EB001092EC0082E38093ED001092640433
:1035B00088E08093F00092FF34C083E08093E900BC
:1035C0008091F200882319F08AE38093E8008FB796
:1035D000F89492E09093E9009091F2008FBF9923C4
:1035E00021F084E594E00E94831680916204882390
:1035F00051F0809162048150809362048091620452
:10360000882309F45D9A80916304882351F08091A6
:10361000630481508093630480916304882309F4D8
:10362000289AFF91EF91BF91AF919F918F917F91D8
:103630006F915F914F913F912F910F900FBE0F901F
:103640001F9018950F931F93DF93CF930F92CDB7D1
:10365000DEB719828E010F5F1F4FC8010E94A916A5
:10366000C8010E947321898190E00F90CF91DF9172
:103670001F910F9108951F920F920FB60F92112470
:10368000EF92FF921F932F933F934F935F936F930C
:103690007F938F939F93AF93BF93EF93FF93DF93AA
:1036A000CF93CDB7DEB76197DEBFCDBF1092E900F3
:1036B0008091E80083FF04C1CE01019668E00E947A
:1036C000311982EF8093E800998197FF05C08091BE
:1036D000E80080FFFCCF03C08EEF8093E800292F25
:1036E00030E0C90180769070892B09F0C2C08A81D0
:1036F000882329F41092F1001092F100D6C0813095
:1037000009F4D3C0833009F4D0C0853049F48091E6
:10371000E80080FFFCCF8B8180688093E300C5C008
:10372000863009F07CC01C81EF80F8841230C1F52E
:103730001092E900109266041092650410926804D9
:10374000109267040E94221B99E0FE013996DF0166
:10375000292F1D922A95E9F799871A8791E09E876C
:1037600090E8988B9AEF998B2091650430916604CC
:10377000275F3F4F3C872B878D871092E90010927F
:10378000660410926504F0926804E092670480E099
:10379000BF0149E050E00E949D190E94221B85C094
:1037A0001092E9001092660410926504F092680489
:1037B000E0926704123241F482E290E00E946B21B1
:1037C000892B09F476C071C0113079F488E0E816CD
:1037D000F10419F481E080936904809169048823DD
:1037E00009F06BC0E3E4F3E013C0133009F061C0EB
:1037F0008B81882319F4E5E0F3E00AC0823019F4E4
:10380000E9E0F3E005C0813009F053C0EBE2F3E0FA
:10381000449180E8BF0150E00E949D1946C0873066
:1038200009F447C0883021F481E08093F1003DC065
:103830008930D9F523703070232BD9F5E8E6F3E011
:1038400091E031E026E39093E9003093EB0084911E
:103850008093EC002093ED009F5F3196953099F7AF
:103860008EE78093EA001092EA008B8180936404D3
:103870001CC08F8198851092E90010926604109206
:10388000650490936804809367048D81882329F4EC
:10389000CE0101960E94B51606C0823051F4CE01C9
:1038A00001960E943C20882321F08EEF8093E8004F
:1038B00007C081E28093EB0003C0E5E5F3E0A8CF09
:1038C0006196DEBFCDBFCF91DF91FF91EF91BF91A8
:1038D000AF919F918F917F916F915F914F913F91A8
:1038E0002F911F91FF90EF900F900FBE0F901F90A0
:1038F0001895853008F051C0E82FF0E0EE0FFF1F5B
:10390000E559FB4F71836083823009F1833030F4D5
:10391000882349F0813009F040C00DC0833021F187
:103920008430D9F52EC0809169008C7F842B8093E0
:103930006900E89A089580916900440F551F440F6B
:10394000551F837F842B80936900E99A08958091A5
:10395000690034E0440F551F3A95E1F78F7C842BC2
:1039600080936900EA9A08958091690026E0440FE7
:10397000551F2A95E1F78F73842B80936900EB9A8A
:10398000089580916A0094E0440F551F9A95E1F7DD
:103990008F7C842B80936A00EE9A08951F920F9279
:1039A0000FB60F9211242F933F934F935F936F9312
:1039B0007F938F939F93AF93BF93EF93FF938091E8
:1039C0006B0490916C04892B29F0E0916B04F091C9
:1039D0006C040995FF91EF91BF91AF919F918F91E9
:1039E0007F916F915F914F913F912F910F900FBEFB
:1039F0000F901F9018951F920F920FB60F921124DF
:103A00002F933F934F935F936F937F938F939F93E6
:103A1000AF93BF93EF93FF9380916D0490916E04E9
:103A2000892B29F0E0916D04F0916E040995FF91C6
:103A3000EF91BF91AF919F918F917F916F915F9126
:103A40004F913F912F910F900FBE0F901F9018959F
:103A50001F920F920FB60F9211242F933F934F9303
:103A60005F936F937F938F939F93AF93BF93EF93E6
:103A7000FF9380916F0490917004892B29F0E0915D
:103A80006F04F09170040995FF91EF91BF91AF9190
:103A90009F918F917F916F915F914F913F912F9166
:103AA0000F900FBE0F901F9018951F920F920FB698
:103AB0000F9211242F933F934F935F936F937F93B4
:103AC0008F939F93AF93BF93EF93FF938091710474
:103AD00090917204892B29F0E0917104F0917204A5
:103AE0000995FF91EF91BF91AF919F918F917F9138
:103AF0006F915F914F913F912F910F900FBE0F905B
:103B00001F9018951F920F920FB60F9211242F93AA
:103B10003F934F935F936F937F938F939F93AF9355
:103B2000BF93EF93FF938091730490917404892B5A
:103B300029F0E0917304F09174040995FF91EF91DD
:103B4000BF91AF919F918F917F916F915F914F91B5
:103B50003F912F910F900FBE0F901F9018951F92BD
:103B60000F920FB60F9211242F933F938F939F9331
:103B7000AF93BF938091790490917A04A0917B04D4
:103B8000B0917C0430917D040196A11DB11D232FBD
:103B90002D5F2D3720F02D570196A11DB11D2093CB
:103BA0007D048093790490937A04A0937B04B0936E
:103BB0007C048091750490917604A0917704B09173
:103BC00078040196A11DB11D80937504909376042D
:103BD000A0937704B0937804BF91AF919F918F9198
:103BE0003F912F910F900FBE0F901F9018958FB798
:103BF000F8942091790430917A0440917B0450919B
:103C00007C048FBFB901CA0108959FB7F894209131
:103C1000750430917604409177045091780486B50C
:103C2000A89B06C08F3F21F02F5F3F4F4F4F5F4F44
:103C30009FBF542F432F322F2227280F311D411DA4
:103C4000511D82E0220F331F441F551F8A95D1F763
:103C5000B901CA010895EF92FF920F931F93CF937A
:103C6000DF937B018C010E94051EEB010EC00E94B8
:103C7000051E6C1B7D0B685E7340C8F30894E10859
:103C8000F10801091109C851DC4FE114F1040105E3
:103C9000110569F7DF91CF911F910F91FF90EF9080
:103CA0000895789484B5826084BD84B5816084BDB4
:103CB00085B5826085BD85B5816085BDEEE6F0E0A5
:103CC000808181608083E1E8F0E010828081826001
:103CD0008083808181608083E0E8F0E08081816082
:103CE0008083E1E9F0E0808182608083808181606F
:103CF0008083E0E9F0E0808181608083E1ECF0E0A6
:103D00008081846080838081826080838081816003
:103D10008083E3ECF0E0808181608083E0ECF0E080
:103D2000808182608083E2ECF0E08081816080832A
:103D3000EAE7F0E080818460808380818260808314
:103D400080818160808380818068808308951F9353
:103D5000CF93DF93182FEB0161E00E944C1F209757
:103D600009F48FC0CF3FD10509F48EC0E12FF0E0F8
:103D7000EE52FC4F8491883009F440C0893070F4D1
:103D8000823019F1833020F4813009F077C018C0F7
:103D9000833001F1843009F071C026C08B3009F402
:103DA0004BC08C3030F4893099F18A3009F066C00C
:103DB00039C08C3009F44DC08E3009F05FC051C05D
:103DC00084B5806884BDC7BD63C084B5806284BD8E
:103DD000C8BD5EC080918000806880938000D093D1
:103DE0008900C093880054C08091800080628093D5
:103DF0008000D0938B00C0938A004AC080919000CD
:103E0000806880939000D0939900C093980040C040
:103E100080919000806280939000D0939B00C0932B
:103E20009A0036C080919000886080939000D09373
:103E30009D00C0939C002CC08091C000806880933E
:103E4000C0008091C0008F7B8093C000C093CF00E2
:103E50001FC08091C00080628093C000C093D000DA
:103E600017C08091C20088608093C2008091C20018
:103E70008B7F8093C200C093D2000AC0C038D105A6
:103E80001CF4812F60E002C0812F61E00E94D91FE5
:103E9000DF91CF911F910895CF93DF93482F50E08A
:103EA000CA018C549C4FFC0134914A565C4FFA0174
:103EB0008491882369F190E0880F991FFC01E459EF
:103EC000FC4FA591B491FC01E658FC4FC591D491EB
:103ED000662351F42FB7F8948C91932F90958923F2
:103EE0008C93888189230BC0623061F42FB7F894DA
:103EF0008C91932F909589238C938881832B888331
:103F00002FBF06C09FB7F8948C91832B8C939FBFD3
:103F1000DF91CF910895883071F1893068F4823053
:103F200031F1833020F4813009F042C01DC083306C
:103F300089F08430E9F512C08B3059F18C3028F4C7
:103F40008930E9F08A30A1F51EC08C3031F18E3015
:103F500079F529C0809180008F7703C0809180001F
:103F60008F7D80938000089584B58F7702C084B5DB
:103F70008F7D84BD0895809190008F7707C08091D8
:103F800090008F7D03C080919000877F8093900088
:103F900008958091C0008F7703C08091C0008F7D0D
:103FA0008093C00008958091C200877F8093C200F3
:103FB0000895FF920F931F93F62E482F50E0CA01E9
:103FC0008E529C4FFC012491CA018C549C4FFC01E1
:103FD00014914A565C4FFA0104910023C9F0222340
:103FE00019F0822F0E948B1FE02FF0E0EE0FFF1FD1
:103FF000E658FC4FA591B4919FB7F894FF2021F4A7
:104000008C911095812302C08C91812B8C939FBF42
:104010001F910F91FF9008950F931F93482F50E029
:10402000CA018E529C4FFC012491CA018C549C4FB2
:10403000FC0104914A565C4FFA011491112319F4C2
:1040400020E030E015C0222319F0822F0E948B1F40
:10405000812F90E0880F991F88579C4FFC01A591F4
:10406000B4918C9120E030E0802311F021E030E029
:10407000C9011F910F910895FC0191818081813ABE
:1040800031F4913089F080E0933089F40DC08132B1
:1040900069F49B3021F482818093400105C09A30FD
:1040A00029F482818093410181E0089580E00895A0
:1040B000EF92FF920F931F938C01E62EDC01ED919E
:1040C000FC910480F581E02D0995F82ED801ED9141
:1040D000FC910680F781E02DC8016E2D09958F2D8A
:1040E00090E01F910F91FF90EF90089510927E0441
:1040F000109282041092810488E691E090938004EB
:1041000080937F040895EF92FF920F931F93DF93A4
:10411000CF930F92CDB7DEB789838B017A0184E00C
:10412000BE016F5F7F4F41E050E00E941F1A84E4A0
:10413000B801A7010E941F1A0F90CF91DF911F9124
:104140000F91FF90EF90089582E048E050E00E94C8
:1041500083200895FC01168217821086118612862C
:10416000138614823496BF010E94A4200895DC01B6
:10417000683810F0685829C0E62FF0E067FF13C0D8
:10418000E058F04081E090E002C0880F991FEA9566
:10419000E2F7809514962C911497282314962C936B
:1041A000149760E012C0E658FB4F6491662319F43F
:1041B00020E030E01DC067FF08C014968C91149772
:1041C0008D7F14968C9314976F77FD0190E0662392
:1041D00021F08681861709F416829F5F319696300A
:1041E000B1F7CD011496BD010E94A42021E030E07A
:1041F000C9010895CF93DF93DC01683810F0685847
:1042000025C0E62FF0E067FF12C0E058F04081E0E3
:1042100090E002C0880F991FEA95E2F714962C915E
:104220001497282B14962C93149760E00FC0E6582F
:10423000FB4F64916623D9F167FF08C014968C91F7
:104240001497826014968C9314976F7716968C91BE
:1042500016978617A9F117968C911797861781F1F3
:1042600018968C911897861759F119968C91199771
:10427000861731F11A968C911A97861709F11B96B9
:104280008C911B978617E1F0ED01E0E0F0E09E2FA6
:104290008E81882321F4EA0FFB1F668306C09F5F8F
:1042A00031962196E630F10591F7963049F481E098
:1042B00090E013969C938E93129720E030E007C015
:1042C000CD011496BD010E94A42021E030E0C90177
:1042D000DF91CF91089580E86CEF73E045E650E000
:1042E0000E949D190895FC0180818F5F808380E882
:1042F00061E674E049E150E00E949D190895629FD3
:10430000D001739FF001829FE00DF11D649FE00DCD
:10431000F11D929FF00D839FF00D749FF00D659F2E
:10432000F00D9927729FB00DE11DF91F639FB00D2D
:10433000E11DF91FBD01CF011124089597FB092E3E
:1043400007260AD077FD04D049D006D000201AF401
:10435000709561957F4F0895F6F7909581959F4FE1
:104360000895A1E21A2EAA1BBB1BFD010DC0AA1FB6
:10437000BB1FEE1FFF1FA217B307E407F50720F0CE
:10438000A21BB30BE40BF50B661F771F881F991F49
:104390001A9469F760957095809590959B01AC0192
:1043A000BD01CF01089597FB092E05260ED057FDBC
:1043B00004D0D7DF0AD0001C38F4509540953095D2
:1043C00021953F4F4F4F5F4F0895F6F79095809599
:1043D000709561957F4F8F4F9F4F0895AA1BBB1B10
:1043E00051E107C0AA1FBB1FA617B70710F0A61BF5
:1043F000B70B881F991F5A95A9F780959095BC0116
:10440000CD010895EE0FFF1F0590F491E02D099462
:04441000F894FFCF4E
:104414000069006A0072006700620077007400752A
:10442400006C617374006E616D6500656D70747904
:10443400006100646174610065006C00302E332EED
:1044440031004300B42B110000E100000000000023
:104454000101000000001B13EA12A312AC12C112E6
:10446400D2120000000057161E17F6151D1604166A
:104474007F1683160000000058201E17FA20B7206C
:02448400AA206C
:00000001FF
