:100000000C9478010C9471280C949E280C94CB28A5
:100010000C94F8280C94A0010C94A0010C942529B0
:100020000C94A0010C94A0010C9457260C94DE268D
:100030000C94A0010C94A0010C94A0010C94A001BC
:100040000C94A0010C94A0010C94A0010C94A001AC
:100050000C94A0010C94A0010C94A0010C945229C2
:100060000C94A0010C94A0010C94A0010C94A0018C
:100070000C94A0010C94A0010C94A0010C94A0017C
:100080000C94A0010C94A0010C94A0010C94A0016C
:100090000C9416200C94A0010C94A0010C94A001C7
:1000A0000C94A0010C94A0010C94A001080B000278
:1000B0000202010009040000010202000005240000
:1000C0001001052401010104240206052406000193
:1000D0000705810310004009040100020A00000026
:1000E00007050202400000070583024000000403E8
:1000F00009042203410072006400750069006E006B
:100100006F0020004C0065006F006E0061007200FF
:1001100064006F00180341007200640075006900FC
:100120006E006F0020004C004C00430012010002E2
:10013000000000404123368000010102000112014D
:10014000000202000040412336800001010200014C
:1001500000C18081C100000000240027002A002D7A
:1001600000300000000000250028002B002E003188
:1001700000000000002300260029002C002F0004AE
:10018000040404040304050202020204030202023E
:100190000206060606060604040202020404080219
:1001A00001104080401020408040800802040180FF
:1001B000402010020110801020404000000002008A
:1001C000080E0000030401000B0000000000000006
:1001D0000000000000000000000706050401000800
:1001E0000A0B0C0D0905010902A1010901A10085F5
:1001F00001050919012903150025019503750181E0
:100200000295017505810305010930093109381589
:1002100081257F750895038106C0C005010906A1E7
:10022000018502050719E029E715002501750195EB
:10023000088102950175088103950675081500254A
:10024000650507190029658100C009040200010342
:100250000000000921010100012265000705840357
:1002600040000100000000000000002A2B280000D0
:10027000000000000000000000000000000000007E
:100280000000002C9EB4A0A1A2A434A6A7A5AE365F
:100290002D3738271E1F20212223242526B333B6CD
:1002A0002EB7B89F8485868788898A8B8C8D8E8FA0
:1002B000909192939495969798999A9B9C9D2F31A3
:1002C00030A3AD350405060708090A0B0C0D0E0F07
:1002D000101112131415161718191A1B1C1DAFB183
:1002E000B0B50000520CB61E1122A325192C4B0CE0
:1002F00011241FBECFEFDAE0DEBFCDBF13E0A0E0D8
:10030000B1E0EEEDFDE502C005900D92AA36B10711
:10031000D9F714E0AAE6B3E001C01D92A93BB107EA
:10032000E1F712E0CEEED2E004C02297FE010E9477
:10033000A72EC43ED107C9F70E94DC220C94E22EFE
:100340000C940000CF93DF93BC018230910510F430
:1003500062E070E0A091B704B091B804ED01E0E074
:10036000F0E040E050E021C088819981861797072E
:1003700069F48A819B81309719F09383828304C04A
:100380009093B8048093B704FE0134C068177907CE
:1003900038F44115510519F08417950708F4AC019C
:1003A000FE018A819B819C01E9012097E9F64115B4
:1003B0005105A9F1CA01861B970B049708F4BA01ED
:1003C000E0E0F0E02AC08D919C9111978417950789
:1003D000F9F46417750781F412968D919C91139727
:1003E000309719F09383828304C09093B80480936C
:1003F000B704FD0132964CC0CA01861B970BFD0164
:10040000E80FF91F6193719302978D939C9340C0FD
:10041000FD01828193819C01D9011097A1F6809101
:10042000B5049091B604892B41F48091EC01909130
:10043000ED019093B6048093B5044091EE01509184
:10044000EF014115510541F44DB75EB78091EA01C6
:100450009091EB01481B590B2091B5043091B604E3
:10046000CA01821B930B8617970780F0AB014E5F82
:100470005F4F8417950750F0420F531F5093B604F7
:100480004093B504F9016193719302C0E0E0F0E09C
:10049000CF01DF91CF910895CF93DF93009709F4B7
:1004A00050C0EC0122971B821A82A091B704B09130
:1004B000B804109709F140E050E0AC17BD0708F10F
:1004C000BB83AA83FE0121913191E20FF31FAE1786
:1004D000BF0779F48D919C911197280F391F2E5FDA
:1004E0003F4F3983288312968D919C9113979B835C
:1004F0008A834115510571F4D093B804C093B704B1
:1005000020C012968D919C911397AD01009711F028
:10051000DC01D3CFFA01D383C28321913191E20F61
:10052000F31FCE17DF0769F488819981280F391FDF
:100530002E5F3F4FFA01318320838A819B81938311
:100540008283DF91CF91089581E090E0F8940C943C
:10055000E22EFC0188279927E89421912032E9F3C3
:10056000293010F02E30C8F32B3241F02D3239F4FF
:10057000689404C00E94F002820F911D21912053C3
:100580002A30C0F31EF4909581959F4F0895FB018A
:10059000DC0102C001900D9241505040D8F70895FF
:1005A0006817790768F4FB01DC01E40FF51FA40F5D
:1005B000B51F02C002900E9241505040D8F70895E6
:1005C0000C94C702FB01DC014150504030F08D918A
:1005D0000190801919F40020B9F7881B990B089530
:1005E0007AE0979F902D879F802D910D112408957B
:1005F000AEE0B0E0EEEFF2E00C94B92E0D891E896A
:100600008F89988D97FF02C080E090E801979E83C4
:100610008D831A83098386E08C839E01255E3F4F7C
:10062000CE010196698D7A8DA9010E9429034D8121
:100630005E8157FD0AC02F813885421753070CF49D
:100640009A01020F131FF80110822E96E4E00C9419
:10065000D52EABE0B0E0EFE2F3E00C94AB2E3C0122
:100660002B015A01FC0117821682838181FD03C090
:100670006FEF7FEFC6C19AE0892E1E010894211CFE
:10068000311CF3012381F20123FD859123FF819128
:100690002F01882309F4B2C1853239F423FD8591F5
:1006A00023FF81912F01853229F490E0B3010E944C
:1006B0001C05E7CF982FFF24EE249924FFE1FF15B6
:1006C000D0F09B3269F09C3228F4903259F093328A
:1006D00091F40EC09D3249F0903369F441E024C09A
:1006E00052E0F52A84E0F82A28C098E0F92A25C0CB
:1006F000E0E1FE2A22C0F7FC29C0892F80538A300E
:1007000070F4F6FE05C0989C902C1124980E15C02C
:10071000E89CE02C1124E80EF0E2FF2A0EC09E3285
:1007200029F4F6FC6BC140E4F42A07C09C3619F4A6
:1007300050E8F52A02C0983649F4F20123FD95915C
:1007400023FF91912F01992309F0B8CF892F855468
:10075000833018F08052833038F444E050E0A40E27
:10076000B51E5FE359830FC0933631F0933779F0AC
:10077000933509F056C020C0F5018081898342E09D
:1007800050E0A40EB51E610101E010E012C0F501B9
:10079000C080D180F6FC03C06FEF7FEF02C0692DEF
:1007A00070E042E050E0A40EB51EC6010E941105A3
:1007B0008C015FE7F52214C0F501C080D180F6FC02
:1007C00003C06FEF7FEF02C0692D70E042E050E0A0
:1007D000A40EB51EC6010E9406058C0150E8F52A3C
:1007E000F3FE07C01AC080E290E0B3010E941C052E
:1007F000EA948E2D90E008171907A8F30EC0F601B1
:10080000F7FC8591F7FE81916F0190E0B3010E94A2
:100810001C05E110EA94015010400115110579F70B
:10082000EAC0943611F0993669F5F7FE08C0F50173
:10083000208131814281538184E090E00AC0F5013A
:10084000808191819C01442737FD4095542F82E09F
:1008500090E0A80EB91E9FE6F92257FF09C05095F7
:100860004095309521953F4F4F4F5F4FE0E8FE2A6E
:10087000CA01B901A1012AE030E00E944805D82E42
:10088000D21840C0953729F41F2D1F7E2AE030E092
:100890001DC01F2D197F9F3661F0903720F49835C9
:1008A00009F0ACC00FC0903739F0983709F0A6C0F6
:1008B00004C028E030E00AC0106114FD146020E19B
:1008C00030E004C014FD166020E132E017FF08C0DC
:1008D000F501608171818281938144E050E008C01C
:1008E000F50180819181BC0180E090E042E050E020
:1008F000A40EB51EA1010E944805D82ED2188FE77C
:10090000F82EF122F6FE0BC05EEFF522D91438F472
:10091000F4FE07C0F2FC05C08FEEF82202C01D2DC8
:1009200001C0192DF4FE0DC0FE01ED0DF11D8081F9
:10093000803319F499EEF92208C01F5FF2FE05C05A
:1009400003C08F2D867809F01F5F0F2DF3FC14C0B4
:10095000F0FE0FC01E1510F09D2C0BC09D2C9E0CA0
:10096000911A1E2D06C080E290E0B3010E941C0582
:100970001F5F1E15C0F304C01E1510F4E11A01C05C
:10098000EE2404FF0FC080E390E0B3010E941C0539
:1009900002FF1DC001FD03C088E790E00EC088E59E
:1009A00090E00BC0802F867891F001FF02C08BE2AF
:1009B00001C080E2F7FC8DE290E0B3010E941C05CB
:1009C00006C080E390E0B3010E941C059A94D914FC
:1009D000C0F3DA94F101ED0DF11D808190E0B301D7
:1009E0000E941C05DD20A9F706C080E290E0B3015B
:1009F0000E941C05EA94EE20C1F743CEF301668104
:100A00007781CB012B96E2E10C94C72EFC01059077
:100A1000615070400110D8F7809590958E0F9F1F00
:100A20000895FC016150704001900110D8F7809545
:100A300090958E0F9F1F08950F931F93CF93DF9371
:100A40008C01EB018B8181FF1BC082FF0DC02E81C9
:100A50003F818C819D812817390764F4E881F981F1
:100A60000193F983E88306C0E885F985802F09950D
:100A7000892B31F48E819F8101969F838E8302C0E2
:100A80000FEF1FEFC801DF91CF911F910F910895D4
:100A9000FA01AA27283051F1203181F1E8946F93AF
:100AA0006E7F6E5F7F4F8F4F9F4FAF4FB1E03ED055
:100AB000B4E03CD0670F781F891F9A1FA11D680FF3
:100AC000791F8A1F911DA11D6A0F711D811D911D26
:100AD000A11D20D009F468943F912AE0269F11249B
:100AE0003019305D3193DEF6CF010895462F4770FF
:100AF000405D4193B3E00FD0C9F7F6CF462F4F705A
:100B0000405D4A3318F0495D31FD4052419302D0B7
:100B1000A9F7EACFB4E0A69597958795779567955D
:100B2000BA95C9F700976105710508959B01AC015D
:100B30000A2E06945795479537952795BA95C9F784
:100B4000620F731F841F951FA01D0895FC01DB0118
:100B500020E090818C91981709F421E0822F08956C
:100B6000FC010190F081E02DCF0101978F3F9105AD
:100B700010F080E008958E2F08950E94A4020E9434
:100B8000A402FC012285338584859585428753879D
:100B900064877587B9010895FC0110821182128261
:100BA0001382158214821782168210860895CF93BD
:100BB000DF939C01FB0180819181A281B381E901D6
:100BC00088839983AA83BB831D821C828681978137
:100BD0009F838E8380858887DF91CF910895FC0164
:100BE00080810895FC0181810895FC01828108952E
:100BF000FC0183810895FC01868197810895FC01A1
:100C000080850895FC01848195810895FC0184818B
:100C100095810E945A070895FC01848195810E9464
:100C2000AC070895FC01848195810E94EF2208950C
:100C30008F929F92AF92BF92CF92DF92EF92FF92EC
:100C40000F931F936C014B01FC01868197817C01FE
:100C500033E0EE0CFF1C3A95E1F7880F991FE80E80
:100C6000F91E848195810E94EF2284E390E00E9426
:100C7000F522B82EA92E0027F7FC0095102FB601FB
:100C8000A401980187010E94DC06F601B482A582C6
:100C90001F910F91FF90EF90DF90CF90BF90AF909A
:100CA0009F908F9008958F929F92AF92BF92CF9214
:100CB000DF92EF92FF920F931F93DF93CF9300D0B9
:100CC00000D0CDB7DEB76C018B0189E793E00E94BD
:100CD000691E882E0F5F1F4F89E793E0B8010E94BD
:100CE000691E982E0F5F1F4F89E793E0B8010E949D
:100CF000691EA82E0F5F1F4F89E793E0B8010E947D
:100D0000691EB82E0F5F1F4F89E793E0B8010E945C
:100D1000691EF82E0F5F1F4F89E793E0B8010E940C
:100D2000691EE82E0F5F1F4F89E793E0B8010E940C
:100D3000691EF6011086882311F081E08087F60194
:100D4000F682E7827E010894E11CF11CC701682D40
:100D5000492D2A2D0B2D0E94C406C601B7010E9401
:100D6000CC0680E090E00F900F900F900F90CF9105
:100D7000DF911F910F91FF90EF90DF90CF90BF9088
:100D8000AF909F908F9008950F93FC0160834183F3
:100D9000228303830F910895DC01FB0180818C93F2
:100DA000818111968C931197828112968C93129760
:100DB000838113968C9308958F929F92AF92BF92E6
:100DC000CF92DF92EF92FF920F931F93CF93DF9317
:100DD000FC01DA0168017901EB01288139814A813E
:100DE0005B812083318342835383288139814A8107
:100DF0005B8124833583468357833C9111968C9184
:100E0000119712969C91129713962C913087818797
:100E100092872387C486D586E686F7868481808B71
:100E2000318BF38BE28B8581848F8185858FCF0118
:100E30000196978F868F868180A7828581A7CF01B3
:100E4000029693A782A7EF0100E010E091E0892EBF
:100E5000912CAA24AA94BA2C8989682F70E08889D9
:100E6000681B710977FF06C0BB8EAA8E70956195CD
:100E70007F4F02C09B8E8A8E9B01442737FD409591
:100E8000542FC701B6010E94682E3D8B2C8B0F5F3B
:100E90001F4F2C9603301105F9F6DF91CF911F916A
:100EA0000F91FF90EF90DF90CF90BF90AF909F9009
:100EB0008F9008950F931F938C010E949A29D80157
:100EC0005296ED91FC91539750962C915097208318
:100ED00054962D913C915597442737FD4095542FBA
:100EE000260F371F481F591FF801268B378B408F5D
:100EF000518F068CF78DE02D5C962C915C972083AA
:100F000090962D913C919197442737FD4095542F11
:100F1000260F371F481F591FF80122A333A344A3EC
:100F200055A302A4F3A5E02D98962C9198972083C1
:100F30009C962D913C919D97442737FD4095542FC9
:100F4000260F371F481F591FF80126A737A740ABA8
:100F500051AB1F910F910895CF92DF92EF92FF92C4
:100F60000F931F93CF93DF93182F092F0E949A2975
:100F70006B017C01212F302FC901FC0121E030E001
:100F800040E050E0C289D389688181896817E1F027
:100F900086899789A08DB18D8C159D05AE05BF05FD
:100FA00088F4828D860F888384899589AA2797FD86
:100FB000A095BA2F8C0D9D1DAE1DBF1D868B978BE6
:100FC000A08FB18F20E030E04F5F5F4F3C96433001
:100FD0005105C1F6C901DF91CF911F910F91FF908B
:100FE000EF90DF90CF9008950F931F9300EC13E0E4
:100FF000C8016AE670E00E947C1EC80161E00E94A0
:10100000FE1EC80160E40E94FE1EC8016AE60E943E
:101010002E1F1F910F9108951F9380EC93E06BE6B4
:1010200070E00E947C1E80EC93E060E00E94FE1E57
:1010300080EC93E06BE60E942E1F80EC93E061E071
:1010400070E041E050E00E944E1F80EC93E00E946F
:101050008F1E182F90E024E0959587952A95E1F74B
:10106000009739F48EE794E060E071E00E9471240B
:1010700039C081309105A9F485E060E070E00E94FC
:101080004A2A8AE060E070E00E944A2A86E064E131
:1010900070E00E944A2A89E064E170E00E944A2AD6
:1010A00021C082309105B9F485E060E070E00E94D3
:1010B0004A2A8AE060E070E00E944A2A86E060E006
:1010C00070E00E944A2A89E064E170E00E944A2AA6
:1010D0000E94571E07C0039729F48EE794E06EE044
:1010E00071E004C08EE794E06BE171E00E9471242E
:1010F0008EE794E0612F4AE050E00E94E92385E00A
:1011000060E070E00E944A2A8AE060E070E00E949D
:101110004A2A86E064E170E00E944A2A89E060E0A1
:1011200070E00E944A2A1F910895FF920F931F9327
:10113000F82E992787FD909535E0959587953A95F6
:10114000E1F78230910511F410E20CC08330910573
:1011500019F410E500EF07C0019719F410E000E062
:101160000EC010E000E08EE794E064E371E00E94BE
:1011700071248EE794E06F2D0E944223126080EC70
:1011800093E06AE670E00E947C1E80EC93E061E0F0
:101190000E94FE1E80EC93E060E00E94FE1E146040
:1011A000612F772767FD709580EC93E00E94FE1E0B
:1011B00080EC93E06FE80E94FE1E602F772767FDAA
:1011C000709580EC93E00E94FE1E80EC93E062E05C
:1011D0000E94FE1E80EC93E068EA0E94FE1E80ECF6
:1011E00093E06AE60E942E1F1F910F91FF900895D1
:1011F0000F931F9364E670E080E090E00E94CE2998
:1012000000EC13E0C80169E570E00E947C1EC80193
:1012100060E00E94FE1EC80169E50E942E1FC80101
:1012200062E070E041E050E00E944E1FC8010E9461
:101230008F1E0E949508C80168E570E00E947C1E20
:10124000C80161E00E94FE1EC80168E20E94FE1E05
:10125000C80168E50E942E1F1F910F910895FC019F
:10126000868508959C01295F3F4FC9010895FC01BF
:1012700087819085908B87870E9406060895FC01E0
:1012800047855089475F5F4F678170852385348527
:10129000C901A3E0880F991FAA95E1F7820F931F58
:1012A000860F971F4817590720F4508B4787CA01AC
:1012B00003C0708B6787CB010E9406060895EF92EA
:1012C000FF920F931F93CF93DF937C01FC018785DF
:1012D00090890E940C068C01F701878590890E94F5
:1012E0000206EC010130110519F4C7010E943F0903
:1012F000688179818A819B81DF91CF911F910F91C4
:10130000FF90EF9008950F931F938C01FC011182C1
:10131000108288E090E093838283158214820E9479
:10132000F522F801918380831F910F9108950F9307
:101330001F938C01FC011182108288E090E093835E
:1013400082831582148288E490E00E94F522F801DD
:10135000918380831F910F9108950F931F93DF93C3
:10136000CF9300D0CDB7DEB78C01BE016F5F7F4F4A
:101370000E948309C8010796BE016E5F7F4F0E94DD
:101380009709F80116860F900F90CF91DF911F916A
:101390000F910895CF92DF92EF92FF920F931F93D8
:1013A000CF93DF93EC018B016A018C819D818617BD
:1013B0009707E0F52A813B812617370728F5CB01EF
:1013C00008962817390700F5E880F9809B838A83FF
:1013D0000E94F5229983888320E030E00DC0A88127
:1013E000B981A20FB31F109729F0F701E20FF31F85
:1013F00080818C932F5F3F4F8C819D812817390707
:1014000070F3C7010E94EF222C813D810BC0E8815F
:10141000F981E20FF31F309719F0D6018C91808388
:101420002F5F3F4F2017310790F303C068177907EC
:1014300010F41D830C83DF91CF911F910F91FF90CA
:10144000EF90DF90CF900895AF92BF92CF92DF924E
:10145000EF92FF920F931F93DF93CF9300D0CDB7FE
:10146000DEB7B82EA92E7B01082F192FF8011182A3
:10147000108288E090E093838283158214820E9418
:10148000F522F80191838083F701648175811A82C6
:10149000C801AE014E5F5F4F0E94CA09F801C080CB
:1014A000D180F70160817181F8018481958120E00C
:1014B00030E040E050E07C0100E010E00CC0F901B9
:1014C000D601A20FB31FE60FF71F80818C932F5F09
:1014D0003F4F4F4F5F4F2E153F054007510778F3A1
:1014E0008B2D9A2D0F900F90CF91DF911F910F911F
:1014F000FF90EF90DF90CF90BF90AF900895EF9264
:10150000FF920F931F93CF93DF937C0100E010E0D5
:10151000C0E0D0E008C0C9018C0F9D1F0E941206D8
:101520000F5F1F4F2996F7018481958120813181BA
:101530000817190780F3C9010E94EF22DF91CF91AC
:101540001F910F91FF90EF9008950F931F938C01BF
:1015500007960E947F0AF801808191810E94EF2204
:101560001F910F9108952F923F924F925F926F9229
:101570007F928F929F92AF92BF92CF92DF92EF9223
:10158000FF920F931F93DF93CF93CDB7DEB72C97C6
:101590000FB6F894DEBF0FBECDBF6C011B01FC017E
:1015A00084819581892B11F015821482198246015C
:1015B000C60160E070E08E010F5F1F4FA8010E941E
:1015C000CA0989E793E0B1010E94691EF601868786
:1015D00071010894E11CF11C58018101005E1F4F4C
:1015E00089E793E0B7010E94691E882349F460E20D
:1015F000662E712C52E0452E512C4C0E5D1E11C0F2
:101600008983F601648175816F5F7F4FC401A501F5
:101610000E94CA090894E11CF11CE016F10601F7CA
:10162000E6CFC2010E94CC05B301620D731DC20159
:101630000E945306F601838594854C010894811C11
:10164000911C8815990508F06AC041855285481596
:10165000590508F044C09C01275F3F4F42175307CC
:10166000F0F5F781FB87F601F085FC87F6013287FC
:101670002187C90143E0880F991F4A95E1F7820F3E
:10168000931F0E94F522F601908787832B853C8566
:10169000C9018C01AA24BB24EE24FF2416C0F60144
:1016A000878190858E0D9F1D009719F0B8010E94CB
:1016B000D705C8010E9412060894A11CB11C075F3F
:1016C0001F4F89E090E0E80EF91EF60183859485AE
:1016D000A816B90620F38B859C850E94EF22F6019F
:1016E000E384F484870193E0000F111F9A95E1F7DA
:1016F0000E0D1F1D0FC0F60187819085800F911F71
:10170000009719F0B2010E94D7050894E11CF11C62
:10171000075F1F4FE814F90470F3F6011FC0881625
:101720009906F0F4840183E0000F111F8A95E1F718
:10173000080D191D74010CC0F60187819085800F7A
:10174000911F0E9412060894E11CF11C075F1F4FB5
:10175000F60183859485E816F90670F394868386EE
:10176000C2010E94FF05882369F4C2010E9412068B
:1017700088E090E0680E791E98EC6916710409F013
:1017800050CF03C0C2010E941206F6014781508566
:101790000DC08A01075F1F4F0217130718F4CA0113
:1017A000B80101C0CA010E941806A801F6016781AC
:1017B0007085838594859C01B3E0220F331FBA9511
:1017C000E1F7280F391F260F371F4217530708F379
:1017D000708B678780E090E02C960FB6F894DEBFA0
:1017E0000FBECDBFCF91DF911F910F91FF90EF9072
:1017F000DF90CF90BF90AF909F908F907F906F9031
:101800005F904F903F902F9008958091E1008F76E8
:101810008093E1008091D80080628093D80089B5E0
:10182000817189BD8091C50088608093C5008091D9
:10183000C700FDCFDF93CF930F92CDB7DEB78130D6
:101840009105D1F46F5F7F4F11F5109271031092E3
:10185000700388E090E0909373038093720310927A
:1018600075031092740380E190E00E94F52290933A
:101870007103809370030BC0892B49F46F5F7F4F16
:1018800031F480917003909171030E94EF220F90C8
:10189000CF91DF91089580E090E06FEF7FEF0E949D
:1018A0001A0C089581E090E06FEF7FEF0E941A0C10
:1018B00008958CE061E00E947C2B8091E1008F769E
:1018C0008093E1008091C50084608093C500809181
:1018D000C70080FFFCCF8091C50081608093C50068
:1018E00089B5826089BD8091C500847F8093C500E1
:1018F00009B400FEFDCF8091D80081798093D80093
:1019000008958BE00E94AF2B892B31F580916F03F6
:10191000882311F581E080936F038EE794E068EFF0
:1019200071E10E94C5210E94F8080E94590C089597
:1019300080916F038823A9F0089580916F03882315
:10194000A9F010926F038EE794E00E94C6210E94D6
:10195000F4070E94050C08958BE00E94AF2B892BA1
:1019600039F38BE00E94AF2B019739F310926F038C
:10197000089580916A03882381F483B78E7F83BFA3
:1019800081E080936A030E949A2960936B037093AD
:101990006C0380936D0390936E0308950F931F93D0
:1019A000CF93DF938C01C0917003D09171030CC071
:1019B000888199810E942F0990E08017910719F47E
:1019C0002881398112C022962091740330917503C9
:1019D000220F331F8091700390917103820F931F28
:1019E000C817D90728F320E030E0C901DF91CF9173
:1019F0001F910F9108950F931F93CF93DF93009141
:101A00007003109171030DC0F801C081D18120973E
:101A100031F0CE010E94A50ACE010E94EF220E5F96
:101A20001F4F40917403509175039A01220F331F89
:101A30008091700390917103820F931F081719070B
:101A400018F3452B21F01092750310927403DF9167
:101A5000CF911F910F9108958F929F92AF92BF9255
:101A6000CF92DF92EF92FF920F931F93DF93CF936A
:101A7000CDB7DEB72A970FB6F894DEBF0FBECDBF45
:101A80000E94FB0C6E010894C11CD11C760100E081
:101A900010E0AA24AA94BA2C89E793E0B8010E9426
:101AA000691E8150853020F4F7010083118303C043
:101AB000F701B182A08208531F4F82E090E0E80E48
:101AC000F91E93E0083E190739F77BE0872E912C29
:101AD0008C0E9D1EF60100811181FFEF0F3F1F0745
:101AE00009F476C081E190E00E94F5227C010E9419
:101AF000AD09C701B8010E94B30A809174039091A7
:101B000075038C010F5F1F4F8017910708F059C0B4
:101B1000209172033091730320173107C8F509969D
:101B200028173907A8F5B0907003A090710390931F
:101B3000730380937203880F991F0E94F52290937C
:101B40007103809370038B2D9A2D9C01D90120E0A5
:101B500030E013C0C901880F991FE0917003F09124
:101B60007103E80FF91F309729F08D919C9111971F
:101B7000918380832F5F3F4F1296809174039091E1
:101B800075032817390730F38B2D9A2D0E94EF2209
:101B900080917403909175039C01220F331F0DC037
:101BA000E0917003F0917103E20FF31F309711F091
:101BB000E082F18201962E5F3F4F8017910780F3FC
:101BC00003C00817190720F41093750300937403DA
:101BD00082E090E0C80ED91EC814D90409F07ACF6B
:101BE00020E030E08091740390917503892B11F40B
:101BF00021E030E0C9012A960FB6F894DEBF0FBE8F
:101C0000CDBFCF91DF911F910F91FF90EF90DF90AB
:101C1000CF90BF90AF909F908F9008950F931F9398
:101C2000E0917703F0917803808191810E945F09B0
:101C3000172F082F86E070E00E944A2A89E0612F62
:101C400070E00E944A2A85E0602F70E00E944A2AD4
:101C50001F910F910895FC0190937803809377036F
:101C6000808191810E94370908951F9383B7817FF6
:101C7000846083BF0E942C0D892B31F48091700306
:101C8000909171030E942B0E12E0812F62E00E945E
:101C9000EF2A1F5F1E30C9F786E061E00E94EF2A3D
:101CA00089E061E00E94EF2A85E061E00E94EF2A6E
:101CB0008AE061E00E94EF2A8AE060E00E947C2BCB
:101CC00084E069EB7CE042E050E00E941C2880EC5C
:101CD00093E00E94521F1F91089520917703309145
:101CE00078032E5F3F4F40917003509171038091B4
:101CF000740390917503880F991F840F951F2817FF
:101D0000390710F4C90101C0CA010E942B0E0895C1
:101D100081E00E94F81D685B7B40804090400CF0A1
:101D200066C080916F03882309F061C083B781602A
:101D300083BF83B7816083BF889583B78E7F83BF5E
:101D400006C080916F03882311F40E94CD1D0E946C
:101D5000810C80916F03882309F040C080916A0351
:101D6000882309F439C087E00E94AF2B892B29F022
:101D700010926A030E946D0E2FC00E949A29209132
:101D80006B0330916C0340916D0350916E03621BA5
:101D9000730B840B950B605D774080409040E0F0C2
:101DA00086E060E00E947C2B89E060E00E947C2B52
:101DB00085E060E00E947C2B8AE060E00E947C2B42
:101DC00010926A0383B7816083BF83B7816083BF4A
:101DD000889583B78E7F83BF0E940E0E80916F031C
:101DE000882379F00E94781C0E940C08089581E0F5
:101DF0000E94F81D68547D40804090400CF0A7CFB1
:101E0000A0CF0895FC018EE892E09183808308952D
:101E1000CF93DF939C01DB01ED91FC9111973697F5
:101E20000190F081E02DE80FF91F1A968D919C9199
:101E30001B97918380831696ED91FC911797E9018A
:101E4000FF83EE8336970190F081E02DE20FF31FC0
:101E500018968D919C911997978386831296ED9190
:101E6000FC911397F983E88336970190F081E02D78
:101E7000E20FF31F14968D919C91159791838083A7
:101E8000DF91CF910895FC01A081B18116978D91CA
:101E90009C918E0F9F1F0E94520F089506970E94DB
:101EA000520F0895DC01E091CA02F091CB0217961F
:101EB000FC93EE93169736970190F081E02DE80F92
:101EC000F91F8091CC029091CD0297838683E09197
:101ED000C602F091C7021196FC93EE9336970190DB
:101EE000F081E02DEA0FFB1F8091C8029091C9029A
:101EF000918380838EE892E019969C938E93189735
:101F00000895FC01A081B18116978D919C918E0F4F
:101F10009F1F0E948C0F0895FC0188E992E0918335
:101F200080838EE892E0978386830895FC01A081E8
:101F3000B18116978D919C918E0F9F1F0E94A10FCA
:101F40000895FC018CE792E0918380838EE892E013
:101F5000938382830895FC018EE193E091838083D3
:101F60000895CF93DF93EC01E881F98136970190D2
:101F7000F081E02DE80FF91FA389B489ED91FC9160
:101F800011970484F585E02DCD0109958F5F9F4F52
:101F900059F4E881F98136970190F081E02DEC0F3A
:101FA000FD1F858181608583CE01DF91CF910895EA
:101FB000FC01DB0181E08083ED91FC911197369764
:101FC0000190F081E02DE60FF71F8189928900973B
:101FD00011F00E94B10F08951F93CF93DF93EC018E
:101FE000162F8F8580FF0BC0E881F9810084F18571
:101FF000E02DCE0160E070E044E020E10995EB8542
:10200000FC858D859E85E817F90748F410838B853C
:102010009C8501969C878B87612F90E00AC0E881A0
:10202000F981028CF38DE02DCE01612F70E00995CE
:10203000682F862FDF91CF911F910895CF93DF9363
:10204000EC01E881F98136970190F081E02DE80FED
:10205000F91F838994890E94EC0F8F5F9F4F99F439
:10206000E881F98136970190F081E02DEC0FFD1F9A
:102070002581322F326083899489892B11F0358331
:1020800002C023602583CE01DF91CF910895FF9296
:102090000F931F93DF93CF930F92CDB7DEB7182F17
:1020A000092FF62ECE010196612F702F0E94D80FB6
:1020B000812F902F6F2D0E941E10812F902F0F9037
:1020C000CF91DF911F910F91FF90089580E090E0F4
:1020D0000895CB01089580E090E008958F929F923B
:1020E000AF92BF92CF92DF92EF92FF920F931F9326
:1020F000CF93DF934C01EB0159016A01EE24FF24D9
:1021000087010FC0FE01EE0DFF1DC40160810E941A
:10211000EC0F8F5F9F4F61F00894E11CF11C011DD3
:10212000111DEA14FB040C051D0564F386017501FD
:10213000B701C801DF91CF911F910F91FF90EF90F0
:10214000DF90CF90BF90AF909F908F9008950895AB
:102150000895DC01242FED91FC910084F185E02DA0
:1021600041E00995089580E090E00895FC012489FC
:1021700035898789908D281B390BC9010895CF9225
:10218000DF92EF92FF920F931F93CF93DF93EC01B7
:102190006B0179018A0120E030E040E050E06F8976
:1021A000788D8C899D8968177907C0F42E153F05B5
:1021B000400751079CF4D601A20FB31FE889F989A3
:1021C000E60FF71F80818C932F5F3F4F4F4F5F4F7C
:1021D0008F89988D0196988F8F8BE1CFB901CA01B5
:1021E000DF91CF911F910F91FF90EF90DF90CF90F3
:1021F0000895FC012789308D84899589281739072E
:1022000018F02FEF3FEF08C00088F189E02DE20FB2
:10221000F31F8081282F30E0C9010895CF93DF9309
:10222000EC01E881F9810288F389E02D09959C0190
:102230008FEF2F3F380729F08F89988D0196988F5F
:102240008F8BC901DF91CF91089580E090E00895D0
:1022500080E090E0089580E090E0089560E070E014
:1022600080E090E008958FEF9FEF0895CF93DF9384
:10227000EC01E881F9810288F389E02D09959C0140
:102280008FEF2F3F380721F4C901DF91CF910895D7
:102290008D819E8101969E838D83F6CFCB0108951B
:1022A0000F931F938C01FC011182108288E090E053
:1022B00093838283158214820E94F522F801918310
:1022C00080831F910F910895FF920F931F93DF93C7
:1022D000CF930F92CDB7DEB78C01F62EBC01685FAD
:1022E0007F4F41E250E0DC0199961C9299979A96B3
:1022F0001C9286E090E0A0E0B0E0F80183A794A7EC
:10230000A5A7B6A7D8019F961D921D921D921C925B
:10231000D29780E2D3968C93D397D5961C921E9237
:10232000D49797965C934E939697D7967C936E939B
:10233000D69798961C929897D8961C92D897E09129
:102340000202F09103021196FC93EE9336970190EE
:10235000F081E02DE00FF11F8091040290910502C1
:1023600091838083F8011282138214821582019076
:10237000F081E02D36970190F081E02DE00FF11F04
:1023800054834383748B638B1582158AE091060214
:10239000F09107021796FC93EE93169798012A5F27
:1023A0003F4F36970190F081E02DE20FF31F8091AF
:1023B000080290910902918380831696ED91FC9119
:1023C000179736970190F081E02DE20FF31F5483A9
:1023D0004383748B638B1582158AE0910002F09120
:1023E000010236970190F081E02DE00FF11F8091FE
:1023F0000A0290910B029183808388E192E011960A
:102400009C938E93449694969C938E9393970A975D
:1024100017969C938E9316971C961C921E921B9750
:102420001E961C921E921D9750961C921E921F97EC
:1024300052961C921E92519754961C921E9253973C
:1024400056961C921E92559757961C9257978EEF50
:1024500092E019969C938E931897C8014896BE01F6
:102460006F5F7F4F0E945011F80110A2178E12A2C9
:1024700011A2F78A0F90CF91DF911F910F91FF90DA
:1024800008950F931F93CF93DF93EC018A819B8173
:102490008617970708F5088119817B836A83CB012A
:1024A0000E94F5229983888320E030E00DC0A88146
:1024B000B981A20FB31F109729F0F801E20FF31FA3
:1024C00080818C932F5F3F4F8C819D812817390726
:1024D00070F3C8010E94EF22DF91CF911F910F91FD
:1024E0000895AF92BF92CF92DF92EF92FF920F9337
:1024F0001F93DF93CF930F92CDB7DEB78C016B01A3
:102500007A01B82EA12EB9010E9450118FEFE81662
:102510008FEFF80621F480E090E00E94BF05C1141F
:10252000D10439F119828B2D9A2DB701AE014F5F7D
:102530005F4F0E94CA09F801608171818481958191
:1025400020E030E040E050E07C0100E010E00CC012
:10255000F901DB01A20FB31FEC0DFD1D80818C93EF
:102560002F5F3F4F4F4F5F4F2E153F0540075107DD
:1025700078F30F90CF91DF911F910F91FF90EF9023
:10258000DF90CF90BF90AF900895AF92BF92CF925F
:10259000DF92EF92FF920F931F93DF93CF930F92EF
:1025A000CDB7DEB76C018B017A01B22EA32EFB01F1
:1025B000848195818417950720F480E090E00E9443
:1025C000BF05F801448155814E195F096081718111
:1025D0006E0D7F1D8B2D9A2D9C014217530708F419
:1025E0009A01C601A9019E012F5F3F4F0E947112FF
:1025F000C6010F90CF91DF911F910F91FF90EF9047
:10260000DF90CF90BF90AF900895EF92FF920F931D
:102610001F93DF93CF930F92CDB7DEB77C0130E0ED
:10262000C90188719070489719F4423009F44CC080
:10263000F901E870F07020713070413011F48B01B5
:102640001EC04230A9F42115310519F400E010E054
:1026500007C0D70154960D911C915597060F171F6F
:10266000309769F0D70157960D911C91589705C086
:10267000D70154960D911C915597060F171FD7013E
:1026800054968D919C91559780179107E8F0EF2B08
:1026900021F058961C930E935797232B99F019828B
:1026A000C7014096B801AE014F5F5F4F0E94CA0953
:1026B000F701248935898789908D2817390710F407
:1026C000308F278BB80102C06FEF7FEFCB010F90E7
:1026D000CF91DF911F910F91FF90EF9008958F920E
:1026E0009F92AF92BF92CF92DF92EF92FF920F93A1
:1026F0001F93DF93CF930F92CDB7DEB77C016B01B1
:102700005A01922E832EB801182F0F2D0E945011BE
:10271000F601848195818A159B0520F480E090E084
:102720000E94BF05F601448155814A195B0919824F
:10273000892D982D9C014217530708F49A01812F87
:10274000902FB901AE014F5F5F4F0E94CA09F70198
:1027500080809180F601608171816A0D7B1DF70197
:102760008481958120E030E040E050E07C0100E091
:1027700010E00CC0F901D401A20FB31FE60FF71F40
:1027800080818C932F5F3F4F4F4F5F4F2E153F053A
:102790004007510778F30F90CF91DF911F910F9170
:1027A000FF90EF90DF90CF90BF90AF909F908F9071
:1027B0000895EF92FF920F931F93DF93CF930F92A1
:1027C000CDB7DEB77C01685E7F4F40E050E02FEF71
:1027D0003FEF8E010F5F1F4F0E946F13C7010F90D5
:1027E000CF91DF911F910F91FF90EF900895EF929D
:1027F000FF920F931F93DF93CF930F92CDB7DEB766
:102800008C017B018FEF6F3F780789F5EE24FF2461
:1028100025C0D80159968D919C915A9754966D91E7
:102820007C9155978617970758F0E9826F5F7F4F25
:10283000C8014096AE014F5F5F4F0E94CA0908C0B1
:10284000D8015096ED91FC915197E80FF91FE08265
:10285000F801818D928D0196928F818FC7010F9023
:10286000CF91DF911F910F91FF90EF900895D801C4
:102870001F968C9184FDCDCFEE24EA94FE2CEECFF2
:102880000F931F938C01DC0114966D917C91159729
:102890006F5F7F4F0E944112D801ED91FC9111971B
:1028A00014968D919C911597E80FF91F10828C91C9
:1028B00011969C911F910F910895FC018081918147
:1028C0000E94EF220895EF92FF920F931F93DF93E0
:1028D000CF93CDB7DEB727970FB6F894DEBF0FBE04
:1028E000CDBFDC0114962D913C91159740E050E04E
:1028F0000AC0ED91FC911197E40FF51F80818E3293
:1029000031F04F5F5F4F4217530798F305C08FEFC9
:102910004F3F580709F09A018E010F5F1F4FC80102
:10292000BD0140E050E00E94C512C8010E94401461
:102930000E94A902F82EE92EC8010E945D148F2D75
:102940009E2D27960FB6F894DEBF0FBECDBFCF9158
:10295000DF911F910F91FF90EF9008950F931F93B8
:102960008C018EEF92E0F80191838083C80140963C
:102970000E945D148EE193E0F801918380831F91A2
:102980000F910895FC01A081B18116978D919C91C2
:102990008E0F9F1F0E94D114089506970E94D11494
:1029A00008950F931F938C0188E192E0F8019183C1
:1029B0008083449694A383A30A9797838683C80150
:1029C00008960E94AE14C80160E072E00E94080FF1
:1029D0008EE892E0F80194A383A31F910F910895CC
:1029E000FC01A081B18116978D919C918E0F9F1F44
:1029F0000E94FB140895FC018CE792E09183808390
:102A00008EE892E093838283CF010E94EF220895A3
:102A1000FC018EE892E091838083CF010E94EF2237
:102A20000895FC01A081B18116978D919C918E0F24
:102A30009F1F0E941C150895FC0188E992E0918374
:102A400080838EE892E097838683CF010E94EF22F5
:102A50000895FC01A081B18116978D919C918E0FF4
:102A60009F1F0E943815089506970E9438150895F3
:102A7000DC01E091CA02F091CB021796FC93EE9331
:102A8000169736970190F081E02DE80FF91F80919D
:102A9000CC029091CD0297838683E091C602F0919B
:102AA000C7021196FC93EE9336970190F081E02DCA
:102AB000EA0FFB1F8091C8029091C9029183808325
:102AC0008EE892E019969C938E931897CD010E9400
:102AD000EF2208950F931F938C018EEF92E0F8017F
:102AE00091838083C80140960E945D148EE193E03B
:102AF000F80191838083C8010E94EF221F910F91FA
:102B00000895FC018EE193E091838083CF010E94C0
:102B1000EF220895FC01A081B18116978D919C91BF
:102B20008E0F9F1F0E949915089506970E94991570
:102B300008950F931F938C0188E192E0F80191832F
:102B40008083449694A383A30A9797838683C801BE
:102B500008960E94AE14C80160E072E00E94080F5F
:102B60008EE892E0F80194A383A3C8010E94EF22AB
:102B70001F910F9108950F931F93CF93DF93FC0143
:102B8000EB0109900020E9F72197C61BD70B0481C0
:102B900015810190F081E02DAE010C171D0708F49E
:102BA000A801CF010E94E2029C01009751F40C178A
:102BB0001D0710F42FEF3FEFC017D10710F421E0ED
:102BC00030E0C901DF91CF911F910F910895EF92ED
:102BD000FF920F931F93DF93CF93CDB7DEB7279765
:102BE0000FB6F894DEBF0FBECDBFDC01ED91FC91B6
:102BF0001197E081EC3211F0EE32E1F48E010F5FBB
:102C00001F4FC801BD0141E050E02DE030E00E94BF
:102C1000C512C80168E471E00E94BB157C01C801BF
:102C20000E945D14EF2831F48EE794E066E571E0D0
:102C30000E94712427960FB6F894DEBF0FBECDBF59
:102C4000CF91DF911F910F91FF90EF9008950E9417
:102C5000BB1520E0892B09F421E0822F08956F92A3
:102C60007F928F929F92AF92BF92CF92DF92EF921C
:102C7000FF920F931F93CF93DF938C013B01490188
:102C80005A01DC01ED91FC9136970190F081E02D25
:102C90003296E80FF91FC284D384E484F584C21A03
:102CA000D30AE40AF50A818192818E7090700497AC
:102CB000C1F412C00894C108D108E108F108D80194
:102CC000ED91FC9136970190F081E02DE00FF11F1E
:102CD000C80160890E941E101C141D041E041F04DC
:102CE0004CF3D801ED91FC9136970190F081E02DE5
:102CF000E00FF11FC389D4898F8580FF0BC0E88165
:102D0000F9810084F185E02DCE0160E070E044E0BF
:102D100020E10995E881F981008CF18DE02DCE014B
:102D2000B301A501940109956F5F7F4FA1F4D8010C
:102D3000ED91FC9136970190F081E02DE00FF11FAD
:102D40002581322F326083899489892B11F0358354
:102D500002C023602583D801ED91FC913697019044
:102D6000F081E02DE00FF11F838194818E709070CF
:102D70000297C1F412C00894C108D108E108F10813
:102D8000D801ED91FC9136970190F081E02DE00F94
:102D9000F11FC80160890E941E101C141D041E042E
:102DA0001F044CF3D801ED91FC91369780819181FD
:102DB0000296800F911F40E050E060E070E00E94BA
:102DC000C105DF91CF911F910F91FF90EF90DF90A0
:102DD000CF90BF90AF909F908F907F906F9008950D
:102DE000CF92DF92EF92FF920F931F93DF93CF93D7
:102DF000CDB7DEB765970FB6F894DEBF0FBECDBF77
:102E00007C016B01CE010196B7010E94D80FD7015A
:102E1000ED91FC9136970190F081E02DEE0DFF1DB4
:102E20008381948185FF03C02CE531E023C086FFB8
:102E300008C092FD03C020E631E01CC024E631E06A
:102E400019C087FD03C020E030E014C09C01207051
:102E5000307292FF08C0232B19F429E631E00AC032
:102E60002EE631E007C0232B19F423E731E002C03E
:102E700027E731E08DB79EB70A970FB6F8949EBF4B
:102E80000FBE8DBFEDB7FEB731968E010E5F1F4F9F
:102E9000ADB7BEB712961C930E93119784E190E0E4
:102EA0009383828335832483C601AA2797FDA09547
:102EB000BA2F86839783A087B1870E94F8022DB727
:102EC0003EB7265F3F4F0FB6F8943EBF0FBE2DBFF3
:102ED0009C01442737FD4095542FC701B8010E943B
:102EE0002F16D701ED91FC9136970190F081E02DDE
:102EF000EE0DFF1D8381948196FF03C0C7010E94E0
:102F0000B10FC70165960FB6F894DEBF0FBECDBFF7
:102F1000CF91DF911F910F91FF90EF90DF90CF90B5
:102F20000895CF92DF92EF92FF920F931F93DF935A
:102F3000CF93CDB7DEB765970FB6F894DEBF0FBE5F
:102F4000CDBF7C016B01CE010196B7010E94D80F65
:102F5000D701ED91FC9136970190F081E02DEE0DB7
:102F6000FF1D8381948185FF03C02BE731E023C0DF
:102F700086FF08C092FD03C020E631E01CC024E6B5
:102F800031E019C087FD03C020E030E014C09C018F
:102F90002070307292FF08C0232B19F429E631E02B
:102FA0000AC02EE631E007C0232B19F423E731E0F5
:102FB00002C027E731E08DB79EB70A970FB6F894A5
:102FC0009EBF0FBE8DBFEDB7FEB731968E010E5F6F
:102FD0001F4FADB7BEB712961C930E93119784E1A5
:102FE00090E09383828335832483C601A0E0B0E020
:102FF00086839783A087B1870E94F8022DB73EB7DA
:10300000265F3F4F0FB6F8943EBF0FBE2DBF9C0109
:10301000442737FD4095542FC701B8010E942F1651
:10302000D701ED91FC9136970190F081E02DEE0DE6
:10303000FF1D8381948196FF03C0C7010E94B10FD9
:10304000C70165960FB6F894DEBF0FBECDBFCF9116
:10305000DF911F910F91FF90EF90DF90CF90089537
:10306000EF92FF920F931F93DF93CF930F92CDB701
:10307000DEB7182F092FF62EE72ECE010196612F0D
:10308000702F0E94D80FEF2DFE2DDF010D90002034
:10309000E9F79D01215030402E1B3F0B40E050E0EE
:1030A000812F902F6F2D7E2D0E942F16812F902F14
:1030B0000F90CF91DF911F910F91FF90EF900895A6
:1030C0002F923F924F925F926F927F928F929F9238
:1030D000AF92BF92CF92DF92EF92FF920F931F9326
:1030E000DF93CF93CDB7DEB7C555D0400FB6F89478
:1030F000DEBF0FBECDBFDC01ED91FC911197E081E9
:10310000EE3209F4FFC0EC3209F01AC1FBC08E01A7
:10311000085F1F4FC801B7010E94240AC8010E941E
:103120004014BC018EE794E00E947124C8010E9403
:103130005D14C7010E9432092C01FC018480958036
:103140009401285F3F4FC90153E0880F991F5A959A
:10315000E1F7820F931F0E94F5225C013C018C0174
:10316000CC24DD24EE24FF2414C0F201608171819F
:103170000115110529F06E0D7F1DC8010E94D705AC
:103180000894C11CD11C075F1F4F89E090E0E80E36
:10319000F91EC814D90448F3740143E0EE0CFF1C77
:1031A0004A95E1F7E80CF91CEA0CFB1C85013DE1AE
:1031B000232E312C2C0E3D1E23E2C22ED12CCC0E00
:1031C000DD1E9FE0492E512C4C0E5D1E58C0C101E2
:1031D00068E10E946411C8010E94EF05682FC601D2
:1031E00070E00E94F01660E20E944710C8010E9441
:1031F000F205682FC60170E00E94F01660E20E949E
:103200004710C8010E94F505682FC60170E00E94B2
:10321000F01660E20E944710C8010E94F805682F6E
:10322000C60170E00E94F01660E20E944710C801DB
:103230000E94FB05BC01C6010E94911760E20E943A
:103240004710075F1F4F0E151F0518F4C60160E3F6
:1032500002C0C60161E30E944710C201B1010E9491
:10326000D913C2010E944014BC018EE794E00E9471
:103270007124C2010E945D14C1010E94D1140E1577
:103280001F0508F4A4CF00E010E009C0C3010E94AC
:1032900012060F5F1F4FE9E0F0E06E0E7F1E08156B
:1032A0001905A0F3C5010E94EF224AC08DE1E82E66
:1032B000F12CEC0EFD1EC70168E10E946411CE01E5
:1032C00083966FE771E00E943018B6010E94911753
:1032D00068E871E00E9430188E010A5E1F4FC80135
:1032E000B7010E94D913C8010E944014BC018EE7A7
:1032F00094E00E947124C8010E945D14C7010E94DD
:10330000D1141EC014962D913C9115972150304038
:103310008E010F5F1F4FC801BD0141E050E00E94C8
:10332000C512C8010E9463146C01C8010E945D149B
:10333000C6010E94CE0C7C01009709F0E8CEB6CF02
:10334000CB5ADF4F0FB6F894DEBF0FBECDBFCF9183
:10335000DF911F910F91FF90EF90DF90CF90BF9082
:10336000AF909F908F907F906F905F904F903F9025
:103370002F9008952F923F924F925F926F927F927B
:103380008F929F92AF92BF92CF92DF92EF92FF9275
:103390000F931F93DF93CF93CDB7DEB72D970FB663
:1033A000F894DEBF0FBECDBF6C012A873B874C87E8
:1033B0005D87FC01A18CB28C3901CE010396A90175
:1033C0009E012E5F3F4F0E947112F60184899589FC
:1033D0008A159B0520F480E090E00E94BF05F6016D
:1033E00024893589C9018A199B09730186159705B6
:1033F00008F47C014F8058842E193F09C201809542
:1034000090952817390720F080E090E00E94BD05D4
:10341000F60104891589E414F50468F41982B801E9
:10342000640D751D6E197F09C6014096AE014F5F90
:103430005F4F0E94CA09F6018089918992012A0D85
:103440003B1DB7016A0D7B1D680F791FA8014A1942
:103450005B094E195F09820F931F0E94D002F6018B
:10346000608971896A0D7B1D2B803C8020E030E0F3
:1034700040E050E04201AA24BB240CC0F901DB016A
:10348000A20FB31FE20DF31D80818C932F5F3F4F7E
:103490004F4F5F4F281539054A055B0578F31982B0
:1034A000040D151D0E191F09C6014096B801AE0185
:1034B0004F5F5F4F0E94CA09CE0103960E945D14C0
:1034C000F601818D928D860D971D928F818F6A8571
:1034D0007B858C859D852D960FB6F894DEBF0FBE3B
:1034E000CDBFCF91DF911F910F91FF90EF90DF90B3
:1034F000CF90BF90AF909F908F907F906F905F9094
:103500004F903F902F9008950F931F93DF93CF9389
:1035100000D00F92CDB7DEB78C017B836A83DC01CC
:1035200057962D913C91589721153105B9F1549634
:103530008D919C9155978217930728F458969C93E8
:103540008E9357972BC08A819B818F5F9F4F89F500
:1035500021503040F801308F278B20E030E020C030
:10356000D80157968D919C915897019758969C93A6
:103570008E93579710C0F801878584FF0FC0878905
:10358000908D0197908F878B0088F189E02DE80F4F
:10359000F91F8A8180832A813B8102C02FEF3FEF90
:1035A000C9010F900F900F90CF91DF911F910F9154
:1035B0000895CE0102960E94B0058983D8015796DE
:1035C0008D919C915897019750966D917C91519750
:1035D000680F791FCE0101960E94A605882309F085
:1035E000BFCFC9CF8F929F92AF92BF92CF92DF92FF
:1035F000EF92FF920F931F93DF93CF93CDB7DEB778
:1036000027970FB6F894DEBF0FBECDBF5C01EE2446
:10361000FF244E010894811C911C67C0D501ED91D7
:10362000FC91EE0DFF1D80818E3251F00894E11C5B
:10363000F11CE216F30690F3EE24EA94FE2C05C08A
:10364000BFEFEB16BFEFFB0619F44FEF5FEF10C0B3
:103650000894E11CF11CA7010BC0D501ED91FC9170
:10366000EE0DFF1D80818E3251F00894E11CF11C9B
:10367000E216F30690F3EE24EA94FE2C05C0BFEFA9
:10368000EB16BFEFFB0621F4CC24CA94DC2C04C05B
:103690000894E11CF11C6701EFEF4F3F5E0701F159
:1036A000FFEFCF16FFEFDF06D9F0241B350BC40167
:1036B000B5010E94C512C4010E9463148C01C401AB
:1036C0000E945D14D501ED91FC91EC0DFD1D408132
:1036D000552747FD509589E793E0B8010E94701E79
:1036E000BFEFEB16BFEFFB0621F0F501248135811A
:1036F000A0CF27960FB6F894DEBF0FBECDBFCF91F7
:10370000DF911F910F91FF90EF90DF90CF90BF90CE
:10371000AF909F908F9008952F923F924F925F921B
:103720006F927F928F929F92AF92BF92CF92DF92D1
:10373000EF92FF920F931F93DF93CF93CDB7DEB736
:10374000CF54D0400FB6F894DEBF0FBECDBF5C01A2
:10375000EE24FF2477E1272E312C2C0E3D1E60E154
:10376000462E512C4C0E5D1EA5C0D501ED91FC914D
:10377000EE0DFF1D80818E3251F00894E11CF11C8A
:10378000E216F30690F3EE24EA94FE2C05C0BFEF98
:10379000EB16BFEFFB0619F44FEF5FEF10C0089474
:1037A000E11CF11CA7010BC0D501ED91FC91EE0DC0
:1037B000FF1D80818E3251F00894E11CF11CE2164D
:1037C000F30690F3EE24EA94FE2C05C0BFEFEB164F
:1037D000BFEFFB0619F40FEF1FEF04C00894E11CC4
:1037E000F11C8701EFEF4F3F5E0709F45EC0FFEF6A
:1037F0000F3F1F0709F459C0241B350BCE01029659
:10380000B5010E94C512CE0102960E9463143C01CC
:10381000CE0102960E945D14D50114962D913C9123
:103820001597201B310BCE010996B501A8010E9406
:10383000C512CE0109960E9463144C01CE0109966F
:103840000E945D14C10168E10E946411CC24DD2452
:1038500017C0B601660D771D89E793E00E94691EC7
:10386000182FCE010196BE01635E7F4F0E94D80FD4
:10387000CE014D96612F0E941E100894C11CD11CD0
:10388000C814D90430F3C201B1010E94D913C20196
:103890000E944014BC018EE794E00E947124C20192
:1038A0000E945D14C1010E94D114BFEFEB16BFEF5F
:1038B000FB0621F0F5012481358162CFC15BDF4F2A
:1038C0000FB6F894DEBF0FBECDBFCF91DF911F9131
:1038D0000F91FF90EF90DF90CF90BF90AF909F90AF
:1038E0008F907F906F905F904F903F902F900895B2
:1038F0002F923F924F925F926F927F928F929F9200
:10390000AF92BF92CF92DF92EF92FF920F931F93ED
:10391000DF93CF93CDB7DEB7E6970FB6F894DEBF4F
:103920000FBECDBF06E0802E912C8C0E9D1E1DE09B
:10393000C12ED12CCC0EDD1EB4E1AB2EB12CAC0EC1
:10394000BD1EA9E22A2E312C2C0E3D1EF2E24F2E76
:10395000512C4C0E5D1EEBE16E2E712C6C0E7D1EFB
:10396000FBC08EE794E00E94C721F82EE92E0E944A
:10397000F222182F092F8EE794E0612F702F4F2D20
:103980005E2D0E94B0248EE794E00E945022C40174
:10399000612F702F4F2D5E2D9E012F5F3F4F0E9494
:1039A0007112812F902F0E94EF224A855B852E8114
:1039B0003F8100E010E008C0F901E00FF11F8081B5
:1039C0008E3239F00F5F1F4F04171507A8F30FEF62
:1039D0001FEFC601B40140E050E098010E94C512FB
:1039E0002A853B85201B310BC501B401A8010E942B
:1039F000C512C60164E971E00E942716882381F090
:103A0000C301B50140E050E02FEF3FEF8E010E5FA4
:103A10001F4F0E946F13C3010E948C1BC30116C06D
:103A2000C60169E971E00E942716882391F0C2015E
:103A3000B50140E050E02FEF3FEF8E010D5F1F4FCB
:103A40000E946F13C2010E94F21AC2010E945D140B
:103A50007AC0C6016FE971E00E942716882381F0C1
:103A6000C101B50140E050E02FEF3FEF8E010C5F48
:103A70001F4F0E946F13C1010E946018C101E6CF61
:103A8000C60167EA71E00E942716882399F0CE01EB
:103A9000C096B50140E050E02FEF3FEF8E010B5F85
:103AA0001F4F0E946F13CE01C0960E94E715CE01F2
:103AB000C096CCCFC60161EB71E00E942716882327
:103AC00021F081E00E94F81D1EC0C60169EB71E083
:103AD0000E942716882301F10E94571E8EE794E06A
:103AE00063EC71E00E9471248EE794E068EC71E071
:103AF0000E946E2480E00E94F81D28E630E140E03C
:103B000050E00E94492EAB01BC018EE794E02AE010
:103B100030E00E94472417C0C60165ED71E00E94A5
:103B20002716882351F00E94381EBC018EE794E0CE
:103B30004AE050E00E945B2406C08EE794E069ED05
:103B400071E00E947124C5010E945D14C6010E94AB
:103B50005D14C4010E945D148EE794E00E94C721A9
:103B6000181619060CF4FDCEE6960FB6F894DEBFD3
:103B70000FBECDBFCF91DF911F910F91FF90EF90BE
:103B8000DF90CF90BF90AF909F908F907F906F907D
:103B90005F904F903F902F90089586E060E070E036
:103BA0000E944A2A89E060E070E00E944A2A85E08B
:103BB00060E070E00E944A2A8AE060E070E00E94C3
:103BC0004A2A86E062E370E00E944A2A68EE73E0C7
:103BD00080E090E00E94CE2986E060E070E00E94E4
:103BE0004A2A60ED77E080E090E00E94CE290895B7
:103BF000DF92EF92FF920F931F93D82E8EE5809362
:103C00007C0062E070E080E090E00E94CE2980912C
:103C10007A00806480937A0080917A0086FDFCCFE0
:103C20008091780040917900342F20E090E0282B9B
:103C3000392B79010027F7FC0095102FDD2081F04A
:103C40006091F0017091F1018091F2019091F30186
:103C5000A80197010E948A2EC901DA017C018D0119
:103C6000B701C8011F910F91FF90EF90DF90089569
:103C700081E00E94F81D9B01AC0168E47DE080E0DA
:103C800090E0621B730B840B950B0E94BD2D2AE004
:103C900037ED43EA5DEB0E94222D20E030E048EC56
:103CA00052E40E94222D0E948A2DCB01089580E0CB
:103CB0000E94F81D28E630E140E050E00E94492EC5
:103CC0006093F0017093F1018093F2019093F301FE
:103CD0000895F999FECF72BD61BDF89A80B5089537
:103CE000F999FECF1FBA72BD61BD40BD0FB6F89401
:103CF000FA9AF99A0FBE089581E08093BF0360930A
:103D00009C031092BD031092BE03089520919B0363
:103D100030E080919A03281B3109C9010895409130
:103D20009A0380919B03481718F02FEF3FEF0AC0CA
:103D3000E42FF0E0E658FC4F8081282F30E04F5F01
:103D400040939A03C9010895E0919A0380919B03DF
:103D5000E81718F0EFEFFFEF06C0F0E0E658FC4F71
:103D60008081E82FF0E0CF01089508951092C303F9
:103D70001092C20388EE93E0A0E0B0E08093C40309
:103D80009093C503A093C603B093C7038EE393E05B
:103D90009093C1038093C0030895CF92DF92EF9276
:103DA000FF920F931F93CF93DF937C016B018A01E6
:103DB0008091BF038823A1F0C0E0D0E00DC0D701FF
:103DC000ED91FC91D601AC0FBD1F0190F081E02D6B
:103DD000C7016C9109952196C017D10780F304C0E3
:103DE000CB01642F0E94FB1FC801DF91CF911F916F
:103DF0000F91FF90EF90DF90CF900895DF93CF93D6
:103E00000F92CDB7DEB7FC0169838091BF03882391
:103E1000C9F08091BE03803238F081E090E0938356
:103E2000828320E030E015C08091BD03E82FF0E0F0
:103E3000E356FC4F998190838F5F8093BD038093FD
:103E4000BE0305C0CE01019661E00E94FB1F21E088
:103E500030E0C9010F90CF91DF9108950F93062FA5
:103E600080919C036DE973E04091BE0321E00E94C4
:103E7000A61F1092BD031092BE031092BF030F91B4
:103E80000895413208F040E2862F6AE773E00E940D
:103E90005D1F10929A0380939B03089521E00E9476
:103EA000411F089510929A0310929B031092BD0334
:103EB0001092BE030E94A7210895382F413210F0BE
:103EC00040E042C08091CC038823E1F791E09093D9
:103ED000CC032093CE038FEF809339041092F40328
:103EE00041504093F5034F5F9093CD038091CD03F4
:103EF000330F832B8093CD038091CF03813041F426
:103F00001092CF038091CD038093BB0085EC01C05C
:103F100085EE8093BC008091CC038130E1F38091E9
:103F2000F403841710F44091F40320E030E00AC059
:103F3000FB01E20FF31FD901AC52BC4F8C9180837F
:103F40002F5F3F4F2417A0F3842F08950F931F93E3
:103F5000582F122F413210F081E04AC08091CC03DB
:103F60008823E1F782E08093CC030093CE038FEFA8
:103F7000809339041092F4034093F503A4EDB3E069
:103F8000FB0102C081918D938E2F861B8417D0F385
:103F90001092CD038091CD03550F852B8093CD03D7
:103FA0008091CF03813041F41092CF038091CD03F3
:103FB0008093BB0085EC01C085EE8093BC0011238B
:103FC00021F08091CC038230E1F3809139048F3F5E
:103FD00011F480E00DC080913904803211F482E048
:103FE00007C080913904803311F084E001C083E080
:103FF0001F910F910895482F613210F081E00895CC
:104000008091CC03843011F082E00895609317040E
:10401000A6EFB3E0842F9C01F90102C081918D933A
:104020008E2F841B8617D0F380E008951F920F9285
:104030000FB60F9211242F933F934F935F936F937B
:104040007F938F939F93AF93BF93EF93FF93809151
:10405000B90090E0887F90708036910509F4F2C035
:1040600081369105CCF58832910509F47BC08932FF
:104070009105B4F48031910509F46FC08131910547
:104080003CF4009709F447C1089709F04FC165C097
:104090008831910509F466C0809709F047C182C054
:1040A0008034910509F4A4C08134910544F480332F
:1040B000910509F482C0C89709F038C189C08035DC
:1040C000910509F489C08835910509F496C08834B2
:1040D000910509F02BC1AEC08839910509F413C1CF
:1040E00089399105ECF48837910509F4ABC089371B
:1040F00091054CF48836910509F4A4C080379105E8
:1041000009F014C19FC08838910509F4FCC08039BA
:10411000910509F49DC08038910509F007C198C048
:10412000803B910509F4C6C0813B91054CF4803A6F
:10413000910509F49FC0883A910509F0F7C0BAC00B
:10414000803C910509F4E3C0883C910509F4DFC087
:10415000883B910509F0EAC0C2C08091CD038093ED
:10416000BB00CFC09091F4038091F503981768F4D9
:104170009091F403E92FF0E0EC52FC4F80818093A2
:10418000BB009F5F9093F403BCC08091CE03882353
:1041900009F44BC085ED8093BC008091BC0084FD88
:1041A000FCCFC2C080E28093390485ED8093BC00CF
:1041B0008091BC0084FDFCCFB7C080E380933904BC
:1041C00085ED8093BC008091BC0084FDFCCFACC029
:1041D00088E3809339049BC08091F4039091BB00E5
:1041E000E82FF0E0EC52FC4F90838F5F8093F40354
:1041F0009091F4038091F50382C08091F403909133
:10420000BB00E82FF0E0EC52FC4F90838F5F80936F
:10421000F4038091CE03882341F085ED8093BC00A8
:104220008091BC0084FDFCCF7FC081E08093CF03F0
:1042300084EA6EC085ED8093BC008091BC0084FD53
:10424000FCCF72C083E08093CC031092380459C035
:1042500080913804803208F056C0809138049091E3
:10426000BB00E82FF0E0E85EFB4F90838F5F809308
:10427000380447C080913804803230F4E09138042B
:10428000F0E0E85EFB4F108285ED8093BC008091EA
:10429000BC0084FDFCCF1092CC0360913804E09107
:1042A000D203F091D30388E194E070E00995109275
:1042B00038042DC084E08093CC0310921604109231
:1042C0001704E091D003F091D10309958091170470
:1042D000882329F481E0809317041092F6039091CB
:1042E0001604E92FF0E0EA50FC4F80818093BB0078
:1042F0009F5F90931604909116048091170498176D
:1043000010F485EC01C085E88093BC000FC085ECFB
:104310008093BC0009C01092390485ED8093BC00E5
:104320008091BC0084FDFCCF1092CC03FF91EF91F3
:10433000BF91AF919F918F917F916F915F914F91BD
:104340003F912F910F900FBE0F901F9018951092D4
:10435000CC0381E08093CE031092CF0382E061E032
:104360000E947C2B83E061E00E947C2BE9EBF0E073
:1043700080818E7F808380818D7F808388E480939D
:10438000B80085E48093BC000895089508952091B5
:104390007A0430917B0480917C0490917D04281BE9
:1043A000390B2F733070C901089520917A04309130
:1043B0007B0480917C0490917D042817390719F4BF
:1043C0002FEF3FEF09C0E0917C04F0917D04E65CA3
:1043D000FB4F8081282F30E0C901089520917A0495
:1043E00030917B0480917C0490917D0428173907DB
:1043F00019F42FEF3FEF13C0E0917C04F0917D049E
:10440000E65CFB4F208180917C0490917D040196B5
:104410008F73907090937D0480937C0430E0C90189
:104420000895109281041092800488EE93E0A0E039
:10443000B0E08093820490938304A0938404B093AB
:1044400085048EE493E090937F0480937E04089526
:104450000F931F93DF93CF930F92CDB7DEB78C01ED
:1044600069838091FB01882369F083E0BE016F5F5F
:104470007F4F41E050E00E94C2251816190614F43F
:104480009C0107C081E090E0F8019383828320E0E3
:1044900030E0C9010F90CF91DF911F910F910895E6
:1044A00083E00E9499250895CF93DF9312C082E0A4
:1044B0000E9415252FEF8F3F9207C9F0E0917A04F3
:1044C000F0917B04E65CFB4F8083D0937B04C09328
:1044D0007A04C0917A04D0917B042196CF73D07076
:1044E00080917C0490917D04C817D90701F7DF9172
:1044F000CF910895FC0180818E5F808380E86CEA13
:1045000070E042E450E00E9440250895FC01818162
:104510009081913A59F4813209F04CC080E064EF07
:1045200071E047E050E00E94402542C0913209F01E
:1045300041C0803239F484EF91E067E070E00E947E
:10454000842536C0823209F035C082818093FB0118
:104550008091F4019091F501A091F601B091F701DD
:10456000805B9440A040B04019F58091FB0180FD34
:1045700012C087E797E790930108809300082BE02B
:1045800088E190E00FB6F894A895809360000FBE84
:10459000209360000DC088E10FB6F894809360000E
:1045A000109260000FBEA8951092010810920008AA
:1045B00081E0089580E00895CF93DF930E94F4296D
:1045C00084E994E00E94A4250E94350EC0E0D0E06A
:1045D0000E94880E2097E1F30E940000F9CF0E940C
:1045E0004C0208950E94A20108950E94A20108951C
:1045F000CF92DF92EF92FF920F931F93CF93DF93AF
:104600007C016B018A01C0E0D0E00FC0D6016D9142
:104610006D01D701ED91FC910190F081E02DC70172
:104620000995C80FD91F015010400115110571F7E8
:10463000CE01DF91CF911F910F91FF90EF90DF900E
:10464000CF900895EF92FF920F931F938C01DC019E
:10465000ED91FC910190F081E02D6DE009957C01D8
:10466000D801ED91FC910190F081E02DC8016AE044
:1046700009959C012E0D3F1DC9011F910F91FF90BF
:10468000EF900895EF92FF920F931F937C01DC014E
:10469000ED91FC910190F081E02D09958C01C7010D
:1046A0000E942223080F191FC8011F910F91FF902C
:1046B000EF900895CF93DF93EC016115710519F424
:1046C00020E030E00FC0DB010D900020E9F71197EA
:1046D000A61BB70BE881F9810280F381E02DAD01C3
:1046E00009959C01C901DF91CF9108954F925F9286
:1046F0007F928F929F92AF92BF92CF92DF92EF9272
:10470000FF920F931F93DF93CF93CDB7DEB7A1979F
:104710000FB6F894DEBF0FBECDBF2C01742ECB01B7
:10472000223008F42AE019A231E2C32ED12CCC0E9B
:10473000DD1E822E9924AA24BB24672D752FA50186
:1047400094010E94682E79018A01C801B701A50170
:1047500094010E94492E472D461B0894C108D10898
:104760004A3014F4405D01C0495CF6014083E11415
:10477000F1040105110521F07E2C5F2DC801DDCF6C
:10478000C201B6010E945A23A1960FB6F894DEBF6B
:104790000FBECDBFCF91DF911F910F91FF90EF9092
:1047A000DF90CF90BF90AF909F908F907F905F9061
:1047B0004F900895DC012115310541F4ED91FC91F4
:1047C0000190F081E02D642F099508950E947623D1
:1047D0000895CF92DF92EF92FF920F931F936C0197
:1047E000E62E9A01FF2400E010E0B801A7010E9424
:1047F000DA238C01C6010E942223080F191FC80169
:104800001F910F91FF90EF90DF90CF900895CF927E
:10481000DF92EF92FF920F931F93CF93DF93EC0100
:104820006A017B012115310541F4E881F98101908C
:10483000F081E02D642F09951FC02A303105D1F495
:1048400077FF17C0E881F9810190F081E02D6DE2DA
:1048500009958C0144275527BA014C195D096E0949
:104860007F09CE012AE00E9476239801280F391F84
:1048700004C02AE00E9476239C01C901DF91CF91F8
:104880001F910F91FF90EF90DF90CF900895EF92DE
:10489000FF920F931F937C010E9407248C01C70194
:1048A0000E9422239C01200F311FC9011F910F91EB
:1048B000FF90EF900895EF92FF920F931F937B016B
:1048C0009A010027F7FC0095102FB801A7010E945C
:1048D00007241F910F91FF90EF9008950E945A2393
:1048E0000895EF92FF920F931F937C010E945A2329
:1048F0008C01C7010E942223080F191FC8011F91B4
:104900000F91FF90EF900895CF93DF93EC010E94F9
:104910009A29688779878A879B87E881F981068049
:10492000F781E02DCE0109959C0197FF15C00E94EB
:104930009A29288539854A855B85621B730B840B10
:10494000950B2C813D814E815F816217730784072F
:10495000950718F32FEF3FEFC901DF91CF9108952D
:10496000CF92DF92EF92FF920F931F93CF93DF933B
:104970006C018B017A01C0E0D0E009C0C6010E9441
:10498000842497FD07C0F80181938F012196CE15ED
:10499000DF05A0F3CE01DF91CF911F910F91FF9022
:1049A000EF90DF90CF900895FC0104C08091F1005A
:1049B000819361506623D1F7289884E680938D0413
:1049C0000895282F80918E048823C1F057FF1AC0C4
:1049D00015C0289890938D048091F1008193E2177F
:1049E000F307B9F74115510539F08091F20088239A
:1049F00019F48BE68093E800AFBF02C04FEF5FEF82
:104A0000CA010895AFB7F89427702093E900809108
:104A1000F200282F30E0241735070CF4A901FB0120
:104A20009B01240F311D94E6DACFDF93CF930F92D1
:104A3000CDB7DEB7BE016F5F7F4F41E050E00E940F
:104A4000E124019719F02FEF3FEF03C08981282F50
:104A500030E0C9010F90CF91DF9108952FB7F894FE
:104A600087708093E9008091E80085FD02C090E0A6
:104A700004C08091F20090E4981B2FBF892F089505
:104A8000FF920F931F93F82E142F052F409191043E
:104A900050919204212F302FC901DC01FB016EEFF0
:104AA00029C0F7FE02C0949101C0908120918F042B
:104AB0003091900424173507ACF48091E80085709C
:104AC000E1F38091E80082FF03C02FEF3FEF17C0B2
:104AD0009093F100C90101968F739070892B11F4A6
:104AE0006093E8002F5F3F4F3093900420938F0432
:104AF000119731961097A9F6812F902F9C01C9012B
:104B00001F910F91FF9008950F931F939C01162FF3
:104B1000072F8091E80082FFFCCFC901612F0E941E
:104B2000D4248BEF8093E800812F902F1F910F9159
:104B300008958093E9008091F200882319F08AE3B8
:104B40008093E8000895089510928E0481E0809388
:104B5000D70080EA8093D80082E189BD09B400FEC5
:104B6000FDCF61E070E080E090E00E94CE2980E916
:104B70008093D8008CE08093E2001092E000559A78
:104B8000209A08956F927F928F929F92AF92BF92D8
:104B9000CF92DF92EF92FF920F931F93CF93DF9309
:104BA000E82E942E852E80918E04882309F18B01A6
:104BB000242F352FC901EC016AEFF62E57E0752E30
:104BC0007E208E2D90E040E2A42EB12CA822B922A6
:104BD0003AE3632E20E4C22ED12CC822D9224CC045
:104BE0008E2D0E942E25282F882361F4FA9419F423
:104BF0002FEF3FEF4CC061E070E080E090E00E945A
:104C0000CE293AC090E0C817D9070CF42C2FC21B4C
:104C1000D1094FB7F8947092E900A114B10421F4BE
:104C200006C01092F10021502223D9F719C0E7FCE9
:104C300003C0F801922F10C0C801322F06C0FC013A
:104C40000196E491E093F10031503323C1F706C09F
:104C500081918093F10091509923D1F7020F111D9A
:104C60008091E80085FF05C0209729F4C114D10484
:104C700011F06092E8004FBF209709F0B1CF5D9826
:104C800084E680938C04292D382DC9019C01C9012B
:104C9000DF91CF911F910F91FF90EF90DF90CF9018
:104CA000BF90AF909F908F907F906F9008951F92CC
:104CB0000F920FB60F9211242F933F934F935F9350
:104CC0006F937F938F939F93AF93BF93EF93FF93D4
:104CD0008091E1001092E100982F83FF0FC01092A5
:104CE000E90081E08093EB001092EC0082E3809376
:104CF000ED0010928E0488E08093F00092FF34C0A3
:104D000083E08093E9008091F200882319F08AE320
:104D10008093E8008FB7F89492E09093E900909127
:104D2000F2008FBF992321F08EE794E00E94542275
:104D300080918C04882351F080918C048150809361
:104D40008C0480918C04882309F45D9A80918D04F1
:104D5000882351F080918D04815080938D0480913F
:104D60008D04882309F4289AFF91EF91BF91AF91A8
:104D70009F918F917F916F915F914F913F912F9173
:104D80000F900FBE0F901F9018950F931F93DF93F6
:104D9000CF930F92CDB7DEB719828E010F5F1F4FF1
:104DA000C8010E947A22C8010E94162D898190E0D4
:104DB0000F90CF91DF911F910F9108951F920F9245
:104DC0000FB60F921124EF92FF921F932F933F93F0
:104DD0004F935F936F937F938F939F93AF93BF9303
:104DE000EF93FF93DF93CF93CDB7DEB76197DEBF2D
:104DF000CDBF1092E9008091E80083FF04C1CE018D
:104E0000019668E00E94D42482EF8093E8009981A3
:104E100097FF05C08091E80080FFFCCF03C08EEFB4
:104E20008093E800292F30E0C90180769070892BAB
:104E300009F0C2C08A81882329F41092F1001092EF
:104E4000F100D6C0813009F4D3C0833009F4D0C05A
:104E5000853049F48091E80080FFFCCF8B81806829
:104E60008093E300C5C0863009F07CC01C81EF80D0
:104E7000F8841230C1F51092E9001092900410925B
:104E80008F0410929204109291040E94C52699E01A
:104E9000FE013996DF01292F1D922A95E9F799879E
:104EA0001A8791E09E8790E8988B9AEF998B2091D2
:104EB0008F0430919004275F3F4F3C872B878D876D
:104EC0001092E9001092900410928F04F0929204D4
:104ED000E092910480E0BF0149E050E00E9440254B
:104EE0000E94C52685C01092E9001092900410928D
:104EF0008F04F0929204E0929104123241F482E223
:104F000090E00E940E2D892B09F476C071C01130FB
:104F100079F488E0E816F10419F481E080939304B1
:104F200080919304882309F06BC0ECE2F1E013C098
:104F3000133009F061C08B81882319F4EEEEF0E0A4
:104F40000AC0823019F4E2EFF0E005C0813009F0C8
:104F500053C0E4E1F1E0449180E8BF0150E00E94D9
:104F6000402546C0873009F447C0883021F481E0ED
:104F70008093F1003DC08930D9F523703070232B28
:104F8000D9F5E1E5F1E091E031E026E39093E90025
:104F90003093EB0084918093EC002093ED009F5FB1
:104FA0003196953099F78EE78093EA001092EA00E7
:104FB0008B8180938E041CC08F8198851092E900AC
:104FC0001092900410928F04909392048093910415
:104FD0008D81882329F4CE0101960E94862206C085
:104FE000823051F4CE0101960E94DF2B882321F0FC
:104FF0008EEF8093E80007C081E28093EB0003C04E
:10500000EEE3F1E0A8CF6196DEBFCDBFCF91DF9197
:10501000FF91EF91BF91AF919F918F917F916F9190
:105020005F914F913F912F911F91FF90EF900F90C3
:105030000FBE0F901F901895853008F051C0E82FD3
:10504000F0E0EE0FFF1FEB56FB4F71836083823061
:1050500009F1833030F4882349F0813009F040C0F1
:105060000DC0833021F18430D9F52EC080916900C4
:105070008C7F842B80936900E89A08958091690061
:10508000440F551F440F551F837F842B8093690065
:10509000E99A08958091690034E0440F551F3A95CC
:1050A000E1F78F7C842B80936900EA9A08958091C0
:1050B000690026E0440F551F2A95E1F78F73842B72
:1050C00080936900EB9A089580916A0094E0440F00
:1050D000551F9A95E1F78F7C842B80936A00EE9A96
:1050E00008951F920F920FB60F9211242F933F93A2
:1050F0004F935F936F937F938F939F93AF93BF93E0
:10510000EF93FF938091950490919604892B29F059
:10511000E0919504F09196040995FF91EF91BF916C
:10512000AF919F918F917F916F915F914F913F913F
:105130002F910F900FBE0F901F9018951F920F92F6
:105140000FB60F9211242F933F934F935F936F935A
:105150007F938F939F93AF93BF93EF93FF93809130
:10516000970490919804892B29F0E0919704F0918D
:1051700098040995FF91EF91BF91AF919F918F9105
:105180007F916F915F914F913F912F910F900FBE43
:105190000F901F9018951F920F920FB60F92112427
:1051A0002F933F934F935F936F937F938F939F932F
:1051B000AF93BF93EF93FF938091990490919A04DA
:1051C000892B29F0E0919904F0919A040995FF91B7
:1051D000EF91BF91AF919F918F917F916F915F916F
:1051E0004F913F912F910F900FBE0F901F901895E8
:1051F0001F920F920FB60F9211242F933F934F934C
:105200005F936F937F938F939F93AF93BF93EF932E
:10521000FF9380919B0490919C04892B29F0E0914D
:105220009B04F0919C040995FF91EF91BF91AF9180
:105230009F918F917F916F915F914F913F912F91AE
:105240000F900FBE0F901F9018951F920F920FB6E0
:105250000F9211242F933F934F935F936F937F93FC
:105260008F939F93AF93BF93EF93FF9380919D0490
:1052700090919E04892B29F0E0919D04F0919E0469
:105280000995FF91EF91BF91AF919F918F917F9180
:105290006F915F914F913F912F910F900FBE0F90A3
:1052A0001F9018951F920F920FB60F9211242F93F3
:1052B0003F938F939F93AF93BF938091A30490915B
:1052C000A404A091A504B091A6043091A70401966E
:1052D000A11DB11D232F2D5F2D3720F02D570196D5
:1052E000A11DB11D2093A7048093A3049093A4044F
:1052F000A093A504B093A60480919F049091A0046C
:10530000A091A104B091A2040196A11DB11D8093AA
:105310009F049093A004A093A104B093A204BF9112
:10532000AF919F918F913F912F910F900FBE0F9052
:105330001F9018958FB7F8942091A3043091A4047E
:105340004091A5045091A6048FBFB901CA010895E8
:105350009FB7F89420919F043091A0044091A1043C
:105360005091A20486B5A89B06C08F3F21F02F5F05
:105370003F4F4F4F5F4F9FBF542F432F322F222756
:10538000280F311D411D511D82E0220F331F441F84
:10539000551F8A95D1F7B901CA010895EF92FF927E
:1053A0000F931F93CF93DF937B018C010E94A82959
:1053B000EB010EC00E94A8296C1B7D0B685E734038
:1053C000C8F30894E108F10801091109C851DC4F3C
:1053D000E114F1040105110569F7DF91CF911F91E7
:1053E0000F91FF90EF900895789484B5826084BD0A
:1053F00084B5816084BD85B5826085BD85B58160D9
:1054000085BDEEE6F0E0808181608083E1E8F0E038
:105410001082808182608083808181608083E0E867
:10542000F0E0808181608083E1E9F0E0808182604A
:105430008083808181608083E0E9F0E08081816009
:105440008083E1ECF0E080818460808380818260F1
:105450008083808181608083E3ECF0E080818160E3
:105460008083E0ECF0E0808182608083E2ECF0E019
:10547000808181608083EAE7F0E0808184608083BE
:105480008081826080838081816080838081806868
:10549000808308951F93CF93DF93182FEB0161E072
:1054A0000E94EF2A209709F48FC0CF3FD10509F45D
:1054B0008EC0E12FF0E0E554FE4F8491883009F46E
:1054C00040C0893070F4823019F1833020F481308B
:1054D00009F077C018C0833001F1843009F071C041
:1054E00026C08B3009F44BC08C3030F4893099F1F0
:1054F0008A3009F066C039C08C3009F44DC08E3056
:1055000009F05FC051C084B5806884BDC7BD63C069
:1055100084B5806284BDC8BD5EC080918000806813
:1055200080938000D0938900C093880054C08091FC
:105530008000806280938000D0938B00C0938A00AB
:105540004AC080919000806880939000D093990029
:10555000C093980040C0809190008062809390003A
:10556000D0939B00C0939A0036C0809190008860D1
:1055700080939000D0939D00C0939C002CC080919C
:10558000C00080688093C0008091C0008F7B8093B2
:10559000C000C093CF001FC08091C0008062809384
:1055A000C000C093D00017C08091C2008860809373
:1055B000C2008091C2008B7F8093C200C093D20052
:1055C0000AC0C038D1051CF4812F60E002C0812FD1
:1055D00061E00E947C2BDF91CF911F910895CF93C2
:1055E000DF93482F50E0CA0183569E4FFC0134914F
:1055F00041585E4FFA018491882369F190E0880F49
:10560000991FFC01EB5AFE4FA591B491FC01ED5995
:10561000FE4FC591D491662351F42FB7F8948C9125
:10562000932F909589238C93888189230BC06230B6
:1056300061F42FB7F8948C91932F909589238C93D4
:105640008881832B88832FBF06C09FB7F8948C91E5
:10565000832B8C939FBFDF91CF910895883071F198
:10566000893068F4823031F1833020F4813009F0E0
:1056700042C01DC0833089F08430E9F512C08B3000
:1056800059F18C3028F48930E9F08A30A1F51EC038
:105690008C3031F18E3079F529C0809180008F7780
:1056A00003C0809180008F7D80938000089584B531
:1056B0008F7702C084B58F7D84BD0895809190005E
:1056C0008F7707C0809190008F7D03C080919000FC
:1056D000877F8093900008958091C0008F7703C0EA
:1056E0008091C0008F7D8093C00008958091C2009A
:1056F000877F8093C2000895FF920F931F93F62E29
:10570000482F50E0CA0185549E4FFC012491CA01E4
:1057100083569E4FFC01149141585E4FFA0104914B
:105720000023C9F0222319F0822F0E942E2BE02F94
:10573000F0E0EE0FFF1FED59FE4FA591B4919FB71A
:10574000F894FF2021F48C911095812302C08C9154
:10575000812B8C939FBF1F910F91FF9008950F9302
:105760001F93482F50E0CA0185549E4FFC0124919D
:10577000CA0183569E4FFC01049141585E4FFA01C5
:105780001491112319F420E030E015C0222319F000
:10579000822F0E942E2B812F90E0880F991F8F5807
:1057A0009E4FFC01A591B4918C9120E030E08023C4
:1057B00011F021E030E0C9011F910F910895FC0123
:1057C00091818081813A31F4913089F080E0933089
:1057D00089F40DC0813269F49B3021F48281809379
:1057E000FC0105C09A3029F482818093FD0181E09B
:1057F000089580E00895EF92FF920F931F938C011C
:10580000E62EDC01ED91FC910480F581E02D0995F7
:10581000F82ED801ED91FC910680F781E02DC801AA
:105820006E2D09958F2D90E01F910F91FF90EF90B5
:1058300008951092A8041092AC041092AB0480E674
:1058400093E09093AA048093A9040895EF92FF92A5
:105850000F931F93DF93CF930F92CDB7DEB789835A
:105860008B017A0184E0BE016F5F7F4F41E050E021
:105870000E94C22584E4B801A7010E94C2250F90AE
:10588000CF91DF911F910F91FF90EF90089582E0EB
:1058900048E050E00E94262C0895FC0116821782F1
:1058A000108611861286138614823496BF010E94D8
:1058B000472C0895DC01683810F0685829C0E62F9D
:1058C000F0E067FF13C0E058F04081E090E002C0D4
:1058D000880F991FEA95E2F7809514962C911497FA
:1058E000282314962C93149760E012C0ED59FD4FB5
:1058F0006491662319F420E030E01DC067FF08C002
:1059000014968C9114978D7F14968C9314976F77BF
:10591000FD0190E0662321F08681861709F4168246
:105920009F5F31969630B1F7CD011496BD010E946C
:10593000472C21E030E0C9010895CF93DF93DC01CB
:10594000683810F0685825C0E62FF0E067FF12C0F5
:10595000E058F04081E090E002C0880F991FEA957E
:10596000E2F714962C911497282B14962C931497E5
:1059700060E00FC0ED59FD4F64916623D9F167FFD8
:1059800008C014968C911497826014968C93149787
:105990006F7716968C9116978617A9F117968C91AA
:1059A0001797861781F118968C911897861759F1D9
:1059B00019968C911997861731F11A968C911A972E
:1059C000861709F11B968C911B978617E1F0ED0164
:1059D000E0E0F0E09E2F8E81882321F4EA0FFB1F88
:1059E000668306C09F5F31962196E630F10591F7F8
:1059F000963049F481E090E013969C938E93129731
:105A000020E030E007C0CD011496BD010E94472C74
:105A100021E030E0C901DF91CF91089580E865EE83
:105A200071E045E650E00E9440250895FC01808128
:105A30008F5F808380E86AE472E049E150E00E9471
:105A4000402508950CD0EBC0E3D040F0DAD030F020
:105A500021F45F3F19F0CCC0511115C1CFC0F0D077
:105A600098F39923C9F35523B1F3951B550BBB2725
:105A7000AA2762177307840738F09F5F5F4F220FD2
:105A8000331F441FAA1FA9F333D00E2E3AF0E0E8CB
:105A900030D091505040E695001CCAF729D0FE2F17
:105AA00027D0660F771F881FBB1F261737074807A9
:105AB000AB07B0E809F0BB0B802DBF01FF2793585F
:105AC0005F4F2AF09E3F510568F092C0DCC05F3FF7
:105AD000ECF3983EDCF3869577956795B795F79547
