:100000000C9477010C9411230C943E230C946B23D5
:100010000C9498230C949F010C949F010C94C5237D
:100020000C949F010C949F010C94F7200C947E215A
:100030000C949F010C949F010C949F010C949F01C0
:100040000C949F010C949F010C949F010C949F01B0
:100050000C949F010C949F010C949F010C94F2232B
:100060000C949F010C949F010C949F010C949F0190
:100070000C949F010C949F010C949F010C949F0180
:100080000C949F010C949F010C949F010C949F0170
:100090000C949F010C949F010C949F010C949F0160
:1000A0000C949F010C949F010C949F01080B00027B
:1000B0000202010009040000010202000005240000
:1000C0001001052401010104240206052406000193
:1000D0000705810310004009040100020A00000026
:1000E00007050202400000070583024000000403E8
:1000F00009042203410072006400750069006E006B
:100100006F0020004C0065006F006E0061007200FF
:1001100064006F00180341007200640075006900FC
:100120006E006F0020004C004C00430012010002E2
:10013000000000404123368000010102000112014D
:10014000000202000040412336800001010200014C
:1001500000C18081C100000000240027002A002D7A
:1001600000300000000000250028002B002E003188
:1001700000000000002300260029002C002F0004AE
:10018000040404040304050202020204030202023E
:100190000206060606060604040202020404080219
:1001A00001104080401020408040800802040180FF
:1001B000402010020110801020404000000002008A
:1001C000080E0000030401000B0000000000000006
:1001D0000000000000000000000706050401000800
:1001E0000A0B0C0D0905010902A1010901A10085F5
:1001F00001050919012903150025019503750181E0
:100200000295017505810305010930093109381589
:1002100081257F750895038106C0C005010906A1E7
:10022000018502050719E029E715002501750195EB
:10023000088102950175088103950675081500254A
:10024000650507190029658100C009040200010342
:100250000000000921010100012265000705840357
:1002600040000100000000000000002A2B280000D0
:10027000000000000000000000000000000000007E
:100280000000002C9EB4A0A1A2A434A6A7A5AE365F
:100290002D3738271E1F20212223242526B333B6CD
:1002A0002EB7B89F8485868788898A8B8C8D8E8FA0
:1002B000909192939495969798999A9B9C9D2F31A3
:1002C00030A3AD350405060708090A0B0C0D0E0F07
:1002D000101112131415161718191A1B1C1DAFB183
:1002E000B0B50000010BF61C4320B926FA0A112410
:1002F0001FBECFEFDAE0DEBFCDBF13E0A0E0B1E07C
:10030000EEE1F3E502C005900D92A432B107D9F7F2
:1003100013E0A4E2B3E001C01D92A23BB107E1F7F4
:1003200012E0CCEED2E004C02297FE010E944729E1
:10033000C43ED107C9F70E94C11D0C9482290C94B8
:100340000000CF93DF93BC018230910510F462E08E
:1003500070E0A091B003B091B103ED01E0E0F0E0F6
:1003600040E050E021C0888199818617970769F4A1
:100370008A819B81309719F09383828304C0909384
:10038000B1038093B003FE0134C06817790738F4D5
:100390004115510519F08417950708F4AC01FE01C9
:1003A0008A819B819C01E9012097E9F6411551055D
:1003B000A9F1CA01861B970B049708F4BA01E0E083
:1003C000F0E02AC08D919C91119784179507F9F45C
:1003D0006417750781F412968D919C91139730974D
:1003E00019F09383828304C09093B1038093B00388
:1003F000FD0132964CC0CA01861B970BFD01E80F28
:10040000F91F6193719302978D939C9340C0FD01F6
:10041000828193819C01D9011097A1F68091AE034E
:100420009091AF03892B41F48091B6019091B7016F
:100430009093AF038093AE034091B8015091B901FE
:100440004115510541F44DB75EB78091B4019091CB
:10045000B501481B590B2091AE033091AF03CA017F
:10046000821B930B8617970780F0AB014E5F5F4F9F
:100470008417950750F0420F531F5093AF034093DA
:10048000AE03F9016193719302C0E0E0F0E0CF01A7
:10049000DF91CF910895CF93DF93009709F450C077
:1004A000EC0122971B821A82A091B003B091B10394
:1004B000109709F140E050E0AC17BD0708F1BB838D
:1004C000AA83FE0121913191E20FF31FAE17BF07FE
:1004D00079F48D919C911197280F391F2E5F3F4F12
:1004E0003983288312968D919C9113979B838A83DD
:1004F0004115510571F4D093B103C093B00320C0EE
:1005000012968D919C911397AD01009711F0DC012B
:10051000D3CFFA01D383C28321913191E20FF31F2C
:10052000CE17DF0769F488819981280F391F2E5F64
:100530003F4FFA01318320838A819B819383828399
:10054000DF91CF91089581E090E0F8940C94822996
:10055000FC0188279927E89421912032E9F329307A
:1005600010F02E30C8F32B3241F02D3239F468945C
:1005700004C00E94EF02820F911D219120532A3066
:10058000C0F31EF4909581959F4F0895FB01DC0107
:1005900002C001900D9241505040D8F7089568175D
:1005A000790768F4FB01DC01E40FF51FA40FB51F08
:1005B00002C002900E9241505040D8F708950C941A
:1005C000C602FB01DC014150504030F08D9101909A
:1005D000801919F40020B9F7881B990B08957AE067
:1005E000979F902D879F802D910D11240895AEE047
:1005F000B0E0EDEFF2E00C9459290D891E898F8946
:10060000988D97FF02C080E090E801979E838D83CC
:100610001A83098386E08C839E01255E3F4FCE01BD
:100620000196698D7A8DA9010E9428034D815E8112
:1006300057FD0AC02F813885421753070CF49A01E1
:10064000020F131FF80110822E96E4E00C94752916
:10065000ABE0B0E0EEE2F3E00C944B293C012B015F
:100660005A01FC0117821682838181FD03C06FEF5E
:100670007FEFC6C19AE0892E1E010894211C311C0F
:10068000F3012381F20123FD859123FF81912F0145
:10069000882309F4B2C1853239F423FD859123FF03
:1006A00081912F01853229F490E0B3010E941B054E
:1006B000E7CF982FFF24EE249924FFE1FF15D0F017
:1006C0009B3269F09C3228F4903259F0933291F4C5
:1006D0000EC09D3249F0903369F441E024C052E0ED
:1006E000F52A84E0F82A28C098E0F92A25C0E0E13C
:1006F000FE2A22C0F7FC29C0892F80538A3070F46B
:10070000F6FE05C0989C902C1124980E15C0E89C0C
:10071000E02C1124E80EF0E2FF2A0EC09E3229F4EC
:10072000F6FC6BC140E4F42A07C09C3619F450E88B
:10073000F52A02C0983649F4F20123FD959123FF72
:1007400091912F01992309F0B8CF892F85548330D7
:1007500018F08052833038F444E050E0A40EB51E07
:100760005FE359830FC0933631F0933779F09335B7
:1007700009F056C020C0F5018081898342E050E035
:10078000A40EB51E610101E010E012C0F501C080A9
:10079000D180F6FC03C06FEF7FEF02C0692D70E0DF
:1007A00042E050E0A40EB51EC6010E9410058C0167
:1007B0005FE7F52214C0F501C080D180F6FC03C0CC
:1007C0006FEF7FEF02C0692D70E042E050E0A40EB1
:1007D000B51EC6010E9405058C0150E8F52AF3FEFE
:1007E00007C01AC080E290E0B3010E941B05EA94A2
:1007F0008E2D90E008171907A8F30EC0F601F7FC3C
:100800008591F7FE81916F0190E0B3010E941B0575
:10081000E110EA94015010400115110579F7EAC082
:10082000943611F0993669F5F7FE08C0F50120817C
:1008300031814281538184E090E00AC0F5018081DA
:1008400091819C01442737FD4095542F82E090E030
:10085000A80EB91E9FE6F92257FF09C05095409592
:10086000309521953F4F4F4F5F4FE0E8FE2ACA0178
:10087000B901A1012AE030E00E944705D82ED21824
:1008800040C0953729F41F2D1F7E2AE030E01DC09F
:100890001F2D197F9F3661F0903720F4983509F0AD
:1008A000ACC00FC0903739F0983709F0A6C004C02B
:1008B00028E030E00AC0106114FD146020E130E04F
:1008C00004C014FD166020E132E017FF08C0F501F6
:1008D000608171818281938144E050E008C0F5011C
:1008E00080819181BC0180E090E042E050E0A40E64
:1008F000B51EA1010E944705D82ED2188FE7F82E09
:10090000F122F6FE0BC05EEFF522D91438F4F4FEA6
:1009100007C0F2FC05C08FEEF82202C01D2D01C0F9
:10092000192DF4FE0DC0FE01ED0DF11D8081803307
:1009300019F499EEF92208C01F5FF2FE05C003C04A
:100940008F2D867809F01F5F0F2DF3FC14C0F0FE89
:100950000FC01E1510F09D2C0BC09D2C9E0C911AE3
:100960001E2D06C080E290E0B3010E941B051F5FB0
:100970001E15C0F304C01E1510F4E11A01C0EE24C8
:1009800004FF0FC080E390E0B3010E941B0502FF4B
:100990001DC001FD03C088E790E00EC088E590E02F
:1009A0000BC0802F867891F001FF02C08BE201C05E
:1009B00080E2F7FC8DE290E0B3010E941B0506C0C7
:1009C00080E390E0B3010E941B059A94D914C0F310
:1009D000DA94F101ED0DF11D808190E0B3010E94E8
:1009E0001B05DD20A9F706C080E290E0B3010E945C
:1009F0001B05EA94EE20C1F743CEF30166817781AF
:100A0000CB012B96E2E10C946729FC010590615023
:100A100070400110D8F7809590958E0F9F1F089514
:100A2000FC016150704001900110D8F780959095BD
:100A30008E0F9F1F08950F931F93CF93DF938C0109
:100A4000EB018B8181FF1BC082FF0DC02E813F8196
:100A50008C819D812817390764F4E881F98101931D
:100A6000F983E88306C0E885F985802F0995892BED
:100A700031F48E819F8101969F838E8302C00FEF98
:100A80001FEFC801DF91CF911F910F910895FA01D7
:100A9000AA27283051F1203181F1E8946F936E7FBD
:100AA0006E5F7F4F8F4F9F4FAF4FB1E03ED0B4E0AE
:100AB0003CD0670F781F891F9A1FA11D680F791FEF
:100AC0008A1F911DA11D6A0F711D811D911DA11D00
:100AD00020D009F468943F912AE0269F1124301910
:100AE000305D3193DEF6CF010895462F4770405DAB
:100AF0004193B3E00FD0C9F7F6CF462F4F70405D5A
:100B00004A3318F0495D31FD4052419302D0A9F7B4
:100B1000EACFB4E0A6959795879577956795BA95AE
:100B2000C9F700976105710508959B01AC010A2E74
:100B300006945795479537952795BA95C9F7620F4B
:100B4000731F841F951FA01D0895FC01DB0120E089
:100B500090818C91981709F421E0822F0895FC016F
:100B60000190F081E02DCF0101978F3F910510F0AA
:100B700080E008958E2F08950E94A3020E94A30290
:100B8000FC01228533858485958542875387648758
:100B90007587B9010895FC011082118212821382B7
:100BA000158214821782168210860895CF93DF93E0
:100BB0009C01FB0180819181A281B381E90188833D
:100BC0009983AA83BB831D821C82868197819F8320
:100BD0008E8380858887DF91CF910895FC01808185
:100BE0000895FC0181810895FC0182810895FC0132
:100BF00083810895FC01868197810895FC01808599
:100C00000895FC01848195810895FC01848195817A
:100C10000E9459070895FC01848195810E94AB07C9
:100C20000895FC01848195810E94D41D08958F92BE
:100C30009F92AF92BF92CF92DF92EF92FF920F936B
:100C40001F936C014B01FC01868197817C0133E08D
:100C5000EE0CFF1C3A95E1F7880F991FE80EF91E7C
:100C6000848195810E94D41D84E390E00E94DA1D66
:100C7000B82EA92E0027F7FC0095102FB601A4016D
:100C8000980187010E94DB06F601B482A5821F91BC
:100C90000F91FF90EF90DF90CF90BF90AF909F901B
:100CA0008F9008958F929F92AF92BF92CF92DF92D2
:100CB000EF92FF920F931F93DF93CF9300D000D05A
:100CC000CDB7DEB76C018B0182E393E00E94981CE4
:100CD000882E0F5F1F4F82E393E0B8010E94981C9B
:100CE000982E0F5F1F4F82E393E0B8010E94981C7B
:100CF000A82E0F5F1F4F82E393E0B8010E94981C5B
:100D0000B82E0F5F1F4F82E393E0B8010E94981C3A
:100D1000F82E0F5F1F4F82E393E0B8010E94981CEA
:100D2000E82E0F5F1F4F82E393E0B8010E94981CEA
:100D3000F6011086882311F081E08087F601F682A3
:100D4000E7827E010894E11CF11CC701682D492D42
:100D50002A2D0B2D0E94C306C601B7010E94CB06A7
:100D600080E090E00F900F900F900F90CF91DF9167
:100D70001F910F91FF90EF90DF90CF90BF90AF90B9
:100D80009F908F9008950F93FC016083418322838D
:100D900003830F910895DC01FB0180818C93818195
:100DA00011968C931197828112968C93129783815E
:100DB00013968C9308958F929F92AF92BF92CF9289
:100DC000DF92EF92FF920F931F93CF93DF93FC017B
:100DD000DA0168017901EB01288139814A815B815F
:100DE0002083318342835383288139814A815B8107
:100DF00024833583468357833C9111968C911197B8
:100E000012969C91129713962C9130878187928726
:100E10002387C486D586E686F7868481808B318BCE
:100E2000F38BE28B8581848F8185858FCF0101963D
:100E3000978F868F868180A7828581A7CF010296B2
:100E400093A782A7EF0100E010E091E0892E912C9A
:100E5000AA24AA94BA2C8989682F70E08889681B13
:100E6000710977FF06C0BB8EAA8E709561957F4F82
:100E700002C09B8E8A8E9B01442737FD4095542FDC
:100E8000C701B6010E9408293D8B2C8B0F5F1F4FB5
:100E90002C9603301105F9F6DF91CF911F910F9138
:100EA000FF90EF90DF90CF90BF90AF909F908F908A
:100EB00008950F931F938C010E943A24D8015296F3
:100EC000ED91FC91539750962C9150972083549616
:100ED0002D913C915597442737FD4095542F260F6F
:100EE000371F481F591FF801268B378B408F518FB2
:100EF000068CF78DE02D5C962C915C972083909664
:100F00002D913C919197442737FD4095542F260F02
:100F1000371F481F591FF80122A333A344A355A329
:100F200002A4F3A5E02D98962C91989720839C9687
:100F30002D913C919D97442737FD4095542F260FC6
:100F4000371F481F591FF80126A737A740AB51ABE1
:100F50001F910F910895CF92DF92EF92FF920F931E
:100F60001F93CF93DF93182F092F0E943A246B0110
:100F70007C01212F302FC901FC0121E030E040E04D
:100F800050E0C289D389688181896817E1F0868938
:100F90009789A08DB18D8C159D05AE05BF0588F490
:100FA000828D860F888384899589AA2797FDA095CD
:100FB000BA2F8C0D9D1DAE1DBF1D868B978BA08FEC
:100FC000B18F20E030E04F5F5F4F3C9643305105DA
:100FD000C1F6C901DF91CF911F910F91FF90EF9062
:100FE000DF90CF900895FC01868508959C01295FCC
:100FF0003F4FC9010895FC0187819085908B8787B9
:101000000E9405060895FC0147855089475F5F4FA0
:101010006781708523853485C901A3E0880F991FF6
:10102000AA95E1F7820F931F860F971F481759075C
:1010300020F4508B4787CA0103C0708B6787CB01B0
:101040000E9405060895EF92FF920F931F93CF938E
:10105000DF937C01FC01878590890E940B068C013F
:10106000F701878590890E940106EC010130110586
:1010700019F4C7010E940308688179818A819B81E4
:10108000DF91CF911F910F91FF90EF9008950F93F3
:101090001F938C01FC011182108288E090E0938301
:1010A0008283158214820E94DA1DF8019183808365
:1010B0001F910F9108950F931F938C01FC011182D2
:1010C000108288E090E0938382831582148288E402
:1010D00090E00E94DA1DF801918380831F910F91A7
:1010E00008950F931F93DF93CF9300D0CDB7DEB752
:1010F0008C01BE016F5F7F4F0E944708C8010796B1
:10110000BE016E5F7F4F0E945B08F80116860F904C
:101110000F90CF91DF911F910F910895CF92DF92A1
:10112000EF92FF920F931F93CF93DF93EC018B010C
:101130006A018C819D8186179707E0F52A813B81A2
:101140002617370728F5CB0108962817390700F529
:10115000E880F9809B838A830E94DA1D99838883C3
:1011600020E030E00DC0A881B981A20FB31F109715
:1011700029F0F701E20FF31F80818C932F5F3F4F1F
:101180008C819D812817390770F3C7010E94D41DF7
:101190002C813D810BC0E881F981E20FF31F30976C
:1011A00019F0D6018C9180832F5F3F4F20173107B4
:1011B00090F303C06817790710F41D830C83DF9147
:1011C000CF911F910F91FF90EF90DF90CF900895F6
:1011D000AF92BF92CF92DF92EF92FF920F931F9345
:1011E000DF93CF9300D0CDB7DEB7B82EA92E7B0109
:1011F000082F192FF8011182108288E090E0938364
:101200008283158214820E94DA1DF8019183808303
:10121000F701648175811A82C801AE014E5F5F4F8C
:101220000E948E08F801C080D180F7016081718131
:10123000F8018481958120E030E040E050E07C01BD
:1012400000E010E00CC0F901D601A20FB31FE60FB9
:10125000F71F80818C932F5F3F4F4F4F5F4F2E15AD
:101260003F054007510778F38B2D9A2D0F900F9073
:10127000CF91DF911F910F91FF90EF90DF90CF9072
:10128000BF90AF900895EF92FF920F931F93CF936B
:10129000DF937C0100E010E0C0E0D0E008C0C901AD
:1012A0008C0F9D1F0E9411060F5F1F4F2996F7019B
:1012B00084819581208131810817190780F3C90144
:1012C0000E94D41DDF91CF911F910F91FF90EF905D
:1012D00008950F931F938C0107960E944309F8010C
:1012E000808191810E94D41D1F910F9108952F92AA
:1012F0003F924F925F926F927F928F929F92AF92A6
:10130000BF92CF92DF92EF92FF920F931F93DF93E2
:10131000CF93CDB7DEB72C970FB6F894DEBF0FBED4
:10132000CDBF6C011B01FC0184819581892B11F0DB
:101330001582148219824601C60160E070E08E01B8
:101340000F5F1F4FA8010E948E0882E393E0B10156
:101350000E94981CF601868771010894E11CF11C1B
:1013600058018101005E1F4F82E393E0B7010E94A4
:10137000981C882349F460E2662E712C52E0452EB9
:10138000512C4C0E5D1E11C08983F601648175815C
:101390006F5F7F4FC401A5010E948E080894E11C75
:1013A000F11CE016F10601F7E6CFC2010E94CB0561
:1013B000B301620D731DC2010E945206F6018385BE
:1013C00094854C010894811C911C8815990508F09E
:1013D0006AC0418552854815590508F044C09C01F2
:1013E000275F3F4F42175307F0F5F781FB87F60160
:1013F000F085FC87F60132872187C90143E0880F19
:10140000991F4A95E1F7820F931F0E94DA1DF6019A
:10141000908787832B853C85C9018C01AA24BB2436
:10142000EE24FF2416C0F601878190858E0D9F1D46
:10143000009719F0B8010E94D605C8010E94110654
:101440000894A11CB11C075F1F4F89E090E0E80ED3
:10145000F91EF60183859485A816B90620F38B85BD
:101460009C850E94D41DF601E384F484870193E0F7
:10147000000F111F9A95E1F70E0D1F1D0FC0F60109
:1014800087819085800F911F009719F0B2010E940B
:10149000D6050894E11CF11C075F1F4FE814F904FE
:1014A00070F3F6011FC088169906F0F4840183E0FA
:1014B000000F111F8A95E1F7080D191D74010CC06A
:1014C000F60187819085800F911F0E941106089474
:1014D000E11CF11C075F1F4FF60183859485E81618
:1014E000F90670F394868386C2010E94FE05882364
:1014F00069F4C2010E94110688E090E0680E791E2E
:1015000098EC6916710409F050CF03C0C2010E9423
:101510001106F601478150850DC08A01075F1F4FF4
:101520000217130718F4CA01B80101C0CA010E94CA
:101530001706A801F60167817085838594859C0153
:10154000B3E0220F331FBA95E1F7280F391F260F9A
:10155000371F4217530708F3708B678780E090E0CE
:101560002C960FB6F894DEBF0FBECDBFCF91DF91A2
:101570001F910F91FF90EF90DF90CF90BF90AF90B1
:101580009F908F907F906F905F904F903F902F90A3
:101590000895DF93CF930F92CDB7DEB781309105D9
:1015A000D1F46F5F7F4F11F510922A031092290337
:1015B00088E090E090932C0380932B0310922E03ED
:1015C00010922D0380E190E00E94DA1D90932A038F
:1015D000809329030BC0892B49F46F5F7F4F31F44F
:1015E0008091290390912A030E94D41D0F90CF91DE
:1015F000DF91089580E090E06FEF7FEF0E94C90ACD
:10160000089581E090E06FEF7FEF0E94C90A08958E
:10161000809124038823B1F487E793E060E071E0D0
:101620000E94111F83B78E7F83BF81E080932403C4
:101630000E943A2460932503709326038093270326
:101640009093280308950F931F93CF93DF938C01FA
:10165000C0912903D0912A030CC0888199810E94EE
:10166000F30790E08017910719F42881398112C09F
:10167000229620912D0330912E03220F331F80914B
:10168000290390912A03820F931FC817D90728F3C3
:1016900020E030E0C901DF91CF911F910F910895B3
:1016A0000F931F93CF93DF930091290310912A0387
:1016B0000DC0F801C081D181209731F0CE010E9488
:1016C0006909CE010E94D41D0E5F1F4F40912D036A
:1016D00050912E039A01220F331F8091290390917C
:1016E0002A03820F931F0817190718F3452B21F0BF
:1016F00010922E0310922D03DF91CF911F910F9125
:1017000008956F927F928F929F92AF92BF92CF92E5
:10171000DF92EF92FF920F931F93DF93CF93CDB79A
:10172000DEB72A970FB6F894DEBF0FBECDBF0E947A
:10173000500B6E010894C11CD11C760100E010E032
:10174000AA24AA94BA2C82E393E0B8010E94981CC0
:101750008150853020F4F7010083118303C0F70125
:10176000B182A08208531F4F82E090E0E80EF91E7C
:1017700093E0083E190739F779E2672E73E0772E78
:101780006BE0862E912C8C0E9D1EF601008111813E
:10179000FFEF0F3F1F0709F46FC081E190E00E9447
:1017A000DA1D7C010E947108C701B8010E94770907
:1017B00080912D0390912E038C010F5F1F4F801796
:1017C000910708F052C020912B0330912C03201771
:1017D000310790F509962817390770F5B09029035D
:1017E000A0902A0390932C0380932B03880F991FBA
:1017F0000E94DA1D80932903F301918340912D0308
:1018000050912E03DC012B2D3A2DC901FC0120E063
:1018100030E00BC0109729F08081918111969C9344
:101820008E932F5F3F4F129632962417350790F311
:101830008B2D9A2D0E94D41D20912D0330912E03C3
:10184000C901880F991FE0912903F0912A03E80F3D
:10185000F91F07C0309711F0E082F1822F5F3F4FF0
:10186000329620173107B0F303C00817190720F488
:1018700010932E0300932D0382E090E0C80ED91E32
:10188000C814D90409F081CF20E030E080912D0305
:1018900090912E03892B11F421E030E0C9012A96A2
:1018A0000FB6F894DEBF0FBECDBFCF91DF911F9171
:1018B0000F91FF90EF90DF90CF90BF90AF909F90EF
:1018C0008F907F906F9008950F931F93E091300356
:1018D000F0913103808191810E942308172F082FF6
:1018E00086E070E00E94EA2489E0612F70E00E94A7
:1018F000EA2485E0602F70E00E94EA241F910F9196
:101900000895FC019093310380933003808191818D
:101910000E94FB0708951F9387E793E060EC72E154
:101920000E94AB1C83B7817F846083BF0E94810BC0
:10193000892B31F48091290390912A030E94810C14
:1019400012E0812F62E00E948F251F5F1E30C9F7D1
:1019500086E061E00E948F2589E061E00E948F258A
:1019600085E061E00E948F258AE061E00E948F257A
:101970008AE060E00E941C2681E068E07BE042E0B3
:1019800050E00E94BC221F910895209130033091B5
:1019900031032E5F3F4F4091290350912A038091DC
:1019A0002D0390912E03880F991F840F951F2817E0
:1019B000390710F4C90101C0CA010E94810C0895C1
:1019C00081E00E94271C68547D408040904014F4C0
:1019D0000E94FC1B80912403882309F439C082E013
:1019E0000E944F26892B29F0109224030E94C50CD7
:1019F0002FC00E943A242091250330912603409164
:101A0000270350912803621B730B840B950B605DB9
:101A1000774080409040E0F086E060E00E941C2625
:101A200089E060E00E941C2685E060E00E941C26A0
:101A30008AE060E00E941C261092240383B7816034
:101A400083BF83B7816083BF889583B78E7F83BF51
:101A50000E94A31A0E94640C0895FC0188E592E09C
:101A6000918380830895CF93DF939C01DB01ED91F7
:101A7000FC91119736970190F081E02DE80FF91F46
:101A80001A968D919C911B97918380831696ED9168
:101A9000FC911797E901FF83EE8336970190F0815F
:101AA000E02DE20FF31F18968D919C911997978363
:101AB00086831296ED91FC911397F983E88336970C
:101AC0000190F081E02DE20FF31F14968D919C910F
:101AD000159791838083DF91CF910895FC01A081B8
:101AE000B18116978D919C918E0F9F1F0E947D0D45
:101AF000089506970E947D0D0895DC01E0919402FF
:101B0000F09195021796FC93EE93169736970190F5
:101B1000F081E02DE80FF91F8091960290919702D5
:101B200097838683E0919002F09191021196FC9345
:101B3000EE9336970190F081E02DEA0FFB1F809124
:101B40009202909193029183808388E592E01996A6
:101B50009C938E9318970895FC01A081B1811697EC
:101B60008D919C918E0F9F1F0E94B70D0895FC01CF
:101B700082E692E09183808388E592E09783868372
:101B80000895FC01A081B18116978D919C918E0FD3
:101B90009F1F0E94CC0D0895FC0186E492E0918382
:101BA000808388E592E0938382830895FC0188EE28
:101BB00092E0918380830895CF93DF93EC01E881D5
:101BC000F98136970190F081E02DE80FF91FA38984
:101BD000B489ED91FC9111970484F585E02DCD0138
:101BE00009958F5F9F4F59F4E881F98136970190ED
:101BF000F081E02DEC0FFD1F858181608583CE0192
:101C0000DF91CF910895FC01DB0181E08083ED91AC
:101C1000FC91119736970190F081E02DE60FF71FA8
:101C200081899289009711F00E94DC0D08951F931D
:101C3000CF93DF93EC01162F8F8580FF0BC0E881D7
:101C4000F9810084F185E02DCE0160E070E044E090
:101C500020E10995EB85FC858D859E85E817F907C0
:101C600048F410838B859C8501969C878B87612F18
:101C700090E00AC0E881F981028CF38DE02DCE015D
:101C8000612F70E00995682F862FDF91CF911F910A
:101C90000895CF93DF93EC01E881F98136970190A5
:101CA000F081E02DE80FF91F838994890E94170EB7
:101CB0008F5F9F4F99F4E881F98136970190F08109
:101CC000E02DEC0FFD1F2581322F3260838994892E
:101CD000892B11F0358302C023602583CE01DF916B
:101CE000CF910895FF920F931F93DF93CF930F929D
:101CF000CDB7DEB7182F092FF62ECE010196612F32
:101D0000702F0E94030E812F902F6F2D0E94490E7D
:101D1000812F902F0F90CF91DF911F910F91FF9006
:101D2000089580E090E00895CB01089580E090E070
:101D300008958F929F92AF92BF92CF92DF92EF92CF
:101D4000FF920F931F93CF93DF934C01EB01590147
:101D50006A01EE24FF2487010FC0FE01EE0DFF1D76
:101D6000C40160810E94170E8F5F9F4F61F008943D
:101D7000E11CF11C011D111DEA14FB040C051D05DD
:101D800064F386017501B701C801DF91CF911F91FE
:101D90000F91FF90EF90DF90CF90BF90AF909F900A
:101DA0008F90089508950895DC01242FED91FC9102
:101DB0000084F185E02D41E00995089580E090E0F0
:101DC0000895FC01248935898789908D281B390B5A
:101DD000C9010895CF92DF92EF92FF920F931F9364
:101DE000CF93DF93EC016B0179018A0120E030E0B1
:101DF00040E050E06F89788D8C899D89681779075C
:101E0000C0F42E153F05400751079CF4D601A20FE0
:101E1000B31FE889F989E60FF71F80818C932F5F44
:101E20003F4F4F4F5F4F8F89988D0196988F8F8BC3
:101E3000E1CFB901CA01DF91CF911F910F91FF90BE
:101E4000EF90DF90CF900895FC012789308D848931
:101E500095892817390718F02FEF3FEF08C0008841
:101E6000F189E02DE20FF31F8081282F30E0C901B6
:101E70000895CF93DF93EC01E881F9810288F3891B
:101E8000E02D09959C018FEF2F3F380729F08F89AE
:101E9000988D0196988F8F8BC901DF91CF9108950E
:101EA00080E090E0089580E090E0089580E090E088
:101EB000089560E070E080E090E008958FEF9FEF7C
:101EC0000895CF93DF93EC01E881F9810288F389CB
:101ED000E02D09959C018FEF2F3F380721F4C901B0
:101EE000DF91CF9108958D819E8101969E838D8390
:101EF000F6CFCB0108950F931F938C01FC01118243
:101F0000108288E090E093838283158214820E947D
:101F1000DA1DF801918380831F910F910895FF923C
:101F20000F931F93DF93CF930F92CDB7DEB78C0142
:101F3000F62EBC01685F7F4F41E250E0DC019996CC
:101F40001C9299979A961C9286E090E0A0E0B0E0EF
:101F5000F80183A794A7A5A7B6A7D8019F961D92BD
:101F60001D921D921C92D29780E2D3968C93D397A8
:101F7000D5961C921E92D49797965C934E93969703
:101F8000D7967C936E93D69798961C929897D896EE
:101F90001C92D897E091CC01F091CD011196FC9361
:101FA000EE9336970190F081E02DE00FF11F8091C4
:101FB000CE019091CF0191838083F8011282138228
:101FC000148215820190F081E02D36970190F08106
:101FD000E02DE00FF11F54834383748B638B1582D4
:101FE000158AE091D001F091D1011796FC93EE9300
:101FF000169798012A5F3F4F36970190F081E02DA8
:10200000E20FF31F8091D2019091D30191838083DD
:102010001696ED91FC91179736970190F081E02D7F
:10202000E20FF31F54834383748B638B1582158AED
:10203000E091CA01F091CB0136970190F081E02D3B
:10204000E00FF11F8091D4019091D501918380839D
:1020500082EE91E011969C938E93449694969C9375
:102060008E9393970A9717969C938E9316971C9628
:102070001C921E921B971E961C921E921D975096A4
:102080001C921E921F9752961C921E925197549624
:102090001C921E92539756961C921E9255975796D5
:1020A0001C92579788EC92E019969C938E93189700
:1020B000C8014896BE016F5F7F4F0E947B0FF801F9
:1020C00010A2178E12A211A2F78A0F90CF91DF9162
:1020D0001F910F91FF9008950F931F93CF93DF935C
:1020E000EC018A819B818617970708F50881198181
:1020F0007B836A83CB010E94DA1D9983888320E069
:1021000030E00DC0A881B981A20FB31F109729F04C
:10211000F801E20FF31F80818C932F5F3F4F8C817A
:102120009D812817390770F3C8010E94D41DDF91E3
:10213000CF911F910F910895AF92BF92CF92DF92EE
:10214000EF92FF920F931F93DF93CF930F92CDB730
:10215000DEB78C016B017A01B82EA12EB9010E9465
:102160007B0F8FEFE8168FEFF80621F480E090E008
:102170000E94BE05C114D10439F119828B2D9A2D0C
:10218000B701AE014F5F5F4F0E948E08F80160817A
:1021900071818481958120E030E040E050E07C0155
:1021A00000E010E00CC0F901DB01A20FB31FEC0D41
:1021B000FD1D80818C932F5F3F4F4F4F5F4F2E153A
:1021C0003F054007510778F30F90CF91DF911F91A2
:1021D0000F91FF90EF90DF90CF90BF90AF90089558
:1021E000AF92BF92CF92DF92EF92FF920F931F9325
:1021F000DF93CF930F92CDB7DEB76C018B017A01DD
:10220000B22EA32EFB01848195818417950720F4BB
:1022100080E090E00E94BE05F801448155814E198E
:102220005F09608171816E0D7F1D8B2D9A2D9C0140
:102230004217530708F49A01C601A9019E012F5FB6
:102240003F4F0E949C10C6010F90CF91DF911F91CC
:102250000F91FF90EF90DF90CF90BF90AF900895D7
:10226000EF92FF920F931F93DF93CF930F92CDB70F
:10227000DEB77C0130E0C90188719070489719F48D
:10228000423009F44CC0F901E870F07020713070F0
:10229000413011F48B011EC04230A9F421153105E3
:1022A00019F400E010E007C0D70154960D911C917D
:1022B0005597060F171F309769F0D70157960D9164
:1022C0001C91589705C0D70154960D911C915597B4
:1022D000060F171FD70154968D919C915597801723
:1022E0009107E8F0EF2B21F058961C930E93579727
:1022F000232B99F01982C7014096B801AE014F5FB8
:102300005F4F0E948E08F701248935898789908D57
:102310002817390710F4308F278BB80102C06FEFF0
:102320007FEFCB010F90CF91DF911F910F91FF9025
:10233000EF9008958F929F92AF92BF92CF92DF92CB
:10234000EF92FF920F931F93DF93CF930F92CDB72E
:10235000DEB77C016B015A01922E832EB801182F33
:102360000F2D0E947B0FF601848195818A159B05B4
:1023700020F480E090E00E94BE05F6014481558182
:102380004A195B091982892D982D9C014217530720
:1023900008F49A01812F902FB901AE014F5F5F4F72
:1023A0000E948E08F70180809180F6016081718122
:1023B0006A0D7B1DF7018481958120E030E040E0CB
:1023C00050E07C0100E010E00CC0F901D401A20F44
:1023D000B31FE60FF71F80818C932F5F3F4F4F4F46
:1023E0005F4F2E153F054007510778F30F90CF91AF
:1023F000DF911F910F91FF90EF90DF90CF90BF90F2
:10240000AF909F908F900895EF92FF920F931F933C
:10241000DF93CF930F92CDB7DEB77C01685E7F4F1D
:1024200040E050E02FEF3FEF8E010F5F1F4F0E9403
:102430009A11C7010F90CF91DF911F910F91FF90DB
:10244000EF900895EF92FF920F931F93DF93CF9336
:102450000F92CDB7DEB78C017B018FEF6F3F78070E
:1024600089F5EE24FF2425C0D80159968D919C91C1
:102470005A9754966D917C9155978617970758F007
:10248000E9826F5F7F4FC8014096AE014F5F5F4F9B
:102490000E948E0808C0D8015096ED91FC9151978A
:1024A000E80FF91FE082F801818D928D0196928FDD
:1024B000818FC7010F90CF91DF911F910F91FF90F6
:1024C000EF900895D8011F968C9184FDCDCFEE2416
:1024D000EA94FE2CEECF0F931F938C01DC0114962F
:1024E0006D917C9115976F5F7F4F0E946C10D801A2
:1024F000ED91FC91119714968D919C911597E80F91
:10250000F91F10828C9111969C911F910F91089543
:10251000FC01808191810E94D41D0895EF92FF9269
:102520000F931F93DF93CF93CDB7DEB727970FB6E7
:10253000F894DEBF0FBECDBFDC0114962D913C9107
:10254000159740E050E00AC0ED91FC911197E40F1F
:10255000F51F80818E3231F04F5F5F4F4217530776
:1025600098F305C08FEF4F3F580709F09A018E018D
:102570000F5F1F4FC801BD0140E050E00E94F01006
:10258000C8010E946B120E94A802F82EE92EC80111
:102590000E9488128F2D9E2D27960FB6F894DEBFCD
:1025A0000FBECDBFCF91DF911F910F91FF90EF90A4
:1025B00008950F931F938C0188EC92E0F8019183AA
:1025C0008083C80140960E94881288EE92E0F8014C
:1025D000918380831F910F910895FC01A081B181A7
:1025E00016978D919C918E0F9F1F0E94FC1208954B
:1025F00006970E94FC1208950F931F938C0182EEA0
:1026000091E0F80191838083449694A383A30A9771
:1026100097838683C80108960E94D912C8016AEC84
:1026200071E00E94330D88E592E0F80194A383A342
:102630001F910F910895FC01A081B18116978D9192
:102640009C918E0F9F1F0E9426130895FC0186E423
:1026500092E09183808388E592E093838283CF0127
:102660000E94D41D0895FC0188E592E09183808347
:10267000CF010E94D41D0895FC01A081B18116975D
:102680008D919C918E0F9F1F0E9447130895FC010E
:1026900082E692E09183808388E592E09783868347
:1026A000CF010E94D41D0895FC01A081B18116972D
:1026B0008D919C918E0F9F1F0E9463130895069722
:1026C0000E9463130895DC01E0919402F091950259
:1026D0001796FC93EE93169736970190F081E02DB4
:1026E000E80FF91F80919602909197029783868355
:1026F000E0919002F09191021196FC93EE9336973F
:102700000190F081E02DEA0FFB1F809192029091E1
:1027100093029183808388E592E019969C938E932F
:102720001897CD010E94D41D08950F931F938C011B
:1027300088EC92E0F80191838083C80140960E9462
:10274000881288EE92E0F80191838083C8010E948C
:10275000D41D1F910F910895FC0188EE92E09183A2
:102760008083CF010E94D41D0895FC01A081B18116
:1027700016978D919C918E0F9F1F0E94C4130895F0
:1027800006970E94C41308950F931F938C0182EE45
:1027900091E0F80191838083449694A383A30A97E0
:1027A00097838683C80108960E94D912C8016AECF3
:1027B00071E00E94330D88E592E0F80194A383A3B1
:1027C000C8010E94D41D1F910F9108950F931F936C
:1027D000CF93DF93FC01EB0109900020E9F72197EB
:1027E000C61BD70B048115810190F081E02DAE014D
:1027F0000C171D0708F4A801CF010E94E1029C01FB
:10280000009751F40C171D0710F42FEF3FEFC0177E
:10281000D10710F421E030E0C901DF91CF911F9181
:102820000F910895EF92FF920F931F93DF93CF9331
:10283000CDB7DEB727970FB6F894DEBF0FBECDBF7A
:10284000DC01ED91FC911197E081EC3211F0EE3258
:10285000E1F48E010F5F1F4FC801BD0141E050E060
:102860002DE030E00E94F010C80160E171E00E94AC
:10287000E6137C01C8010E948812EF2831F487E733
:1028800093E06EE171E00E94111F27960FB6F89455
:10289000DEBF0FBECDBFCF91DF911F910F91FF9093
:1028A000EF9008950E94E61320E0892B09F421E0BF
:1028B000822F08956F927F928F929F92AF92BF92D4
:1028C000CF92DF92EF92FF920F931F93CF93DF93FC
:1028D0008C013B0149015A01DC01ED91FC913697D5
:1028E0000190F081E02D3296E80FF91FC284D38465
:1028F000E484F584C21AD30AE40AF50A818192813C
:102900008E7090700497C1F412C00894C108D10869
:10291000E108F108D801ED91FC9136970190F08122
:10292000E02DE00FF11FC80160890E94490E1C14C0
:102930001D041E041F044CF3D801ED91FC91369741
:102940000190F081E02DE00FF11FC389D4898F85BC
:1029500080FF0BC0E881F9810084F185E02DCE0174
:1029600060E070E044E020E10995E881F981008CA5
:10297000F18DE02DCE01B301A501940109956F5FA2
:102980007F4FA1F4D801ED91FC9136970190F08131
:10299000E02DE00FF11F2581322F32608389948969
:1029A000892B11F0358302C023602583D801ED9176
:1029B000FC9136970190F081E02DE00FF11F8381AB
:1029C00094818E7090700297C1F412C00894C1086F
:1029D000D108E108F108D801ED91FC9136970190FA
:1029E000F081E02DE00FF11FC80160890E94490EBF
:1029F0001C141D041E041F044CF3D801ED91FC911E
:102A00003697808191810296800F911F40E050E0BF
:102A100060E070E00E94C005DF91CF911F910F919F
:102A2000FF90EF90DF90CF90BF90AF909F908F90EE
:102A30007F906F900895CF92DF92EF92FF920F9365
:102A40001F93DF93CF93CDB7DEB765970FB6F8949A
:102A5000DEBF0FBECDBF7C016B01CE010196B70179
:102A60000E94030ED701ED91FC9136970190F08101
:102A7000E02DEE0DFF1D8381948185FF03C024E2CC
:102A800031E023C086FF08C092FD03C028E231E098
:102A90001CC02CE231E019C087FD03C020E030E00B
:102AA00014C09C012070307292FF08C0232B19F4CF
:102AB00021E331E00AC026E331E007C0232B19F4FB
:102AC0002BE331E002C02FE331E08DB79EB70A97C8
:102AD0000FB6F8949EBF0FBE8DBFEDB7FEB731960F
:102AE0008E010E5F1F4FADB7BEB712961C930E93AB
:102AF000119784E190E09383828335832483C60118
:102B0000AA2797FDA095BA2F86839783A087B187C0
:102B10000E94F7022DB73EB7265F3F4F0FB6F894DD
:102B20003EBF0FBE2DBF9C01442737FD4095542F5B
:102B3000C701B8010E945A14D701ED91FC91369754
:102B40000190F081E02DEE0DFF1D8381948196FFB1
:102B500003C0C7010E94DC0DC70165960FB6F8944B
:102B6000DEBF0FBECDBFCF91DF911F910F91FF90C0
:102B7000EF90DF90CF900895CF92DF92EF92FF9287
:102B80000F931F93DF93CF93CDB7DEB765970FB643
:102B9000F894DEBF0FBECDBF7C016B01CE01019664
:102BA000B7010E94030ED701ED91FC913697019079
:102BB000F081E02DEE0DFF1D8381948185FF03C020
:102BC00023E431E023C086FF08C092FD03C028E261
:102BD00031E01CC02CE231E019C087FD03C020E0C9
:102BE00030E014C09C012070307292FF08C0232B8B
:102BF00019F421E331E00AC026E331E007C0232BBA
:102C000019F42BE331E002C02FE331E08DB79EB71A
:102C10000A970FB6F8949EBF0FBE8DBFEDB7FEB7F3
:102C200031968E010E5F1F4FADB7BEB712961C9343
:102C30000E93119784E190E09383828335832483FC
:102C4000C601A0E0B0E086839783A087B1870E9489
:102C5000F7022DB73EB7265F3F4F0FB6F8943EBF41
:102C60000FBE2DBF9C01442737FD4095542FC7014F
:102C7000B8010E945A14D701ED91FC91369701904A
:102C8000F081E02DEE0DFF1D8381948196FF03C03E
:102C9000C7010E94DC0DC70165960FB6F894DEBF30
:102CA0000FBECDBFCF91DF911F910F91FF90EF909D
:102CB000DF90CF900895EF92FF920F931F93DF93D1
:102CC000CF930F92CDB7DEB7182F092FF62EE72E30
:102CD000CE010196612F702F0E94030EEF2DFE2D65
:102CE000DF010D900020E9F79D01215030402E1B9F
:102CF0003F0B40E050E0812F902F6F2D7E2D0E94E2
:102D00005A14812F902F0F90CF91DF911F910F9127
:102D1000FF90EF9008952F923F924F925F926F92A3
:102D20007F928F929F92AF92BF92CF92DF92EF925B
:102D3000FF920F931F93DF93CF93CDB7DEB7C555A7
:102D4000D0400FB6F894DEBF0FBECDBFDC01ED91D1
:102D5000FC911197E081EE3209F4FFC0EC3209F0EA
:102D60001AC1FBC08E01085F1F4FC801B7010E9446
:102D7000E808C8010E946B12BC0187E793E00E943B
:102D8000111FC8010E948812C7010E94F6072C017A
:102D9000FC01848095809401285F3F4FC90153E076
:102DA000880F991F5A95E1F7820F931F0E94DA1D31
:102DB0005C013C018C01CC24DD24EE24FF2414C0F2
:102DC000F201608171810115110529F06E0D7F1DE1
:102DD000C8010E94D6050894C11CD11C075F1F4F73
:102DE00089E090E0E80EF91EC814D90448F3740194
:102DF00043E0EE0CFF1C4A95E1F7E80CF91CEA0CE5
:102E0000FB1C85013DE1232E312C2C0E3D1E23E2BF
:102E1000C22ED12CCC0EDD1E9FE0492E512C4C0E23
:102E20005D1E58C0C10168E10E948F0FC8010E9459
:102E3000EE05682FC60170E00E941B1560E20E943B
:102E4000720EC8010E94F105682FC60170E00E9451
:102E50001B1560E20E94720EC8010E94F405682FE3
:102E6000C60170E00E941B1560E20E94720EC8014C
:102E70000E94F705682FC60170E00E941B1560E2F2
:102E80000E94720EC8010E94FA05BC01C6010E9490
:102E9000BC1560E20E94720E075F1F4F0E151F05E2
:102EA00018F4C60160E302C0C60161E30E94720E1D
:102EB000C201B1010E940412C2010E946B12BC0146
:102EC00087E793E00E94111FC2010E948812C1018E
:102ED0000E94FC120E151F0508F4A4CF00E010E0BC
:102EE00009C0C3010E9411060F5F1F4FE9E0F0E027
:102EF0006E0E7F1E08151905A0F3C5010E94D41D92
:102F00004AC08DE1E82EF12CEC0EFD1EC70168E1F0
:102F10000E948F0FCE01839667E471E00E945B16DA
:102F2000B6010E94BC1560E571E00E945B168E013F
:102F30000A5E1F4FC801B7010E940412C8010E9417
:102F40006B12BC0187E793E00E94111FC8010E9429
:102F50008812C7010E94FC121EC014962D913C914C
:102F60001597215030408E010F5F1F4FC801BD01E2
:102F700041E050E00E94F010C8010E948E126C01E6
:102F8000C8010E948812C6010E94230B7C01009791
:102F900009F0E8CEB6CFCB5ADF4F0FB6F894DEBFBC
:102FA0000FBECDBFCF91DF911F910F91FF90EF909A
:102FB000DF90CF90BF90AF909F908F907F906F9059
:102FC0005F904F903F902F9008952F923F924F9295
:102FD0005F926F927F928F929F92AF92BF92CF92A9
:102FE000DF92EF92FF920F931F93DF93CF93CDB7B2
:102FF000DEB72D970FB6F894DEBF0FBECDBF6C01C4
:103000002A873B874C875D87FC01A18CB28C3901F4
:10301000CE010396A9019E012E5F3F4F0E949C1096
:10302000F601848995898A159B0520F480E090E05B
:103030000E94BE05F60124893589C9018A199B09B8
:1030400073018615970508F47C014F8058842E196A
:103050003F09C201809590952817390720F080E03C
:1030600090E00E94BC05F60104891589E414F5047A
:1030700068F41982B801640D751D6E197F09C601C7
:103080004096AE014F5F5F4F0E948E08F601808927
:10309000918992012A0D3B1DB7016A0D7B1D680FB6
:1030A000791FA8014A195B094E195F09820F931F06
:1030B0000E94CF02F601608971896A0D7B1D2B8009
:1030C0003C8020E030E040E050E04201AA24BB24F4
:1030D0000CC0F901DB01A20FB31FE20DF31D8081CB
:1030E0008C932F5F3F4F4F4F5F4F281539054A058F
:1030F0005B0578F31982040D151D0E191F09C60111
:103100004096B801AE014F5F5F4F0E948E08CE011E
:1031100003960E948812F601818D928D860D971D6F
:10312000928F818F6A857B858C859D852D960FB6C4
:10313000F894DEBF0FBECDBFCF91DF911F910F91ED
:10314000FF90EF90DF90CF90BF90AF909F908F90C7
:103150007F906F905F904F903F902F9008950F93C6
:103160001F93DF93CF9300D00F92CDB7DEB78C01C2
:103170007B836A83DC0157962D913C9158972115EA
:103180003105B9F154968D919C915597821793070B
:1031900028F458969C938E9357972BC08A819B81D5
:1031A0008F5F9F4F89F521503040F801308F278B7A
:1031B00020E030E020C0D80157968D919C9158971F
:1031C000019758969C938E93579710C0F801878566
:1031D00084FF0FC08789908D0197908F878B00881F
:1031E000F189E02DE80FF91F8A8180832A813B81D4
:1031F00002C02FEF3FEFC9010F900F900F90CF91BA
:10320000DF911F910F910895CE0102960E94AF05A4
:103210008983D80157968D919C9158970197509624
:103220006D917C915197680F791FCE0101960E9494
:10323000A505882309F0BFCFC9CF8F929F92AF9287
:10324000BF92CF92DF92EF92FF920F931F93DF9383
:10325000CF93CDB7DEB727970FB6F894DEBF0FBE7A
:10326000CDBF5C01EE24FF244E010894811C911C0B
:1032700067C0D501ED91FC91EE0DFF1D80818E326E
:1032800051F00894E11CF11CE216F30690F3EE24D1
:10329000EA94FE2C05C0BFEFEB16BFEFFB0619F456
:1032A0004FEF5FEF10C00894E11CF11CA7010BC0A9
:1032B000D501ED91FC91EE0DFF1D80818E3251F014
:1032C0000894E11CF11CE216F30690F3EE24EA9454
:1032D000FE2C05C0BFEFEB16BFEFFB0621F4CC249C
:1032E000CA94DC2C04C00894E11CF11C6701EFEFC8
:1032F0004F3F5E0701F1FFEFCF16FFEFDF06D9F07A
:10330000241B350BC401B5010E94F010C4010E94BA
:103310008E128C01C4010E948812D501ED91FC919E
:10332000EC0DFD1D4081552747FD509582E393E04C
:10333000B8010E949F1CBFEFEB16BFEFFB0621F008
:10334000F50124813581A0CF27960FB6F894DEBF12
:103350000FBECDBFCF91DF911F910F91FF90EF90E6
:10336000DF90CF90BF90AF909F908F9008952F9255
:103370003F924F925F926F927F928F929F92AF9205
:10338000BF92CF92DF92EF92FF920F931F93DF9342
:10339000CF93CDB7DEB7CF54D0400FB6F894DEBF91
:1033A0000FBECDBF5C01EE24FF2477E1272E312C28
:1033B0002C0E3D1E60E1462E512C4C0E5D1EA5C00C
:1033C000D501ED91FC91EE0DFF1D80818E3251F003
:1033D0000894E11CF11CE216F30690F3EE24EA9443
:1033E000FE2C05C0BFEFEB16BFEFFB0619F44FEF45
:1033F0005FEF10C00894E11CF11CA7010BC0D501C0
:10340000ED91FC91EE0DFF1D80818E3251F00894FC
:10341000E11CF11CE216F30690F3EE24EA94FE2C74
:1034200005C0BFEFEB16BFEFFB0619F40FEF1FEF60
:1034300004C00894E11CF11C8701EFEF4F3F5E07C9
:1034400009F45EC0FFEF0F3F1F0709F459C0241BAA
:10345000350BCE010296B5010E94F010CE01029606
:103460000E948E123C01CE0102960E948812D50164
:1034700014962D913C911597201B310BCE01099686
:10348000B501A8010E94F010CE0109960E948E128B
:103490004C01CE0109960E948812C10168E10E9488
:1034A0008F0FCC24DD2417C0B601660D771D82E393
:1034B00093E00E94981C182FCE010196BE01635E16
:1034C0007F4F0E94030ECE014D96612F0E94490E40
:1034D0000894C11CD11CC814D90430F3C201B10135
:1034E0000E940412C2010E946B12BC0187E793E0A4
:1034F0000E94111FC2010E948812C1010E94FC1289
:10350000BFEFEB16BFEFFB0621F0F50124813581FB
:1035100062CFC15BDF4F0FB6F894DEBF0FBECDBFE9
:10352000CF91DF911F910F91FF90EF90DF90CF909F
:10353000BF90AF909F908F907F906F905F904F90D3
:103540003F902F9008952F923F924F925F926F92EB
:103550007F928F929F92AF92BF92CF92DF92EF9223
:10356000FF920F931F93DF93CF93CDB7DEB7E6970C
:103570000FB6F894DEBF0FBECDBF06E0802E912CB3
:103580008C0E9D1E1DE0C12ED12CCC0EDD1EB4E193
:10359000AB2EB12CAC0EBD1EA9E22A2E312C2C0E66
:1035A0003D1EF2E24F2E512C4C0E5D1EEBE16E2EB5
:1035B000712C6C0E7D1EFFC087E793E00E94AC1C4F
:1035C000F82EE92E0E94D71D182F092F87E793E0C8
:1035D000612F702F4F2D5E2D0E94501F87E793E0C3
:1035E0000E94351DC401612F702F4F2D5E2D9E014D
:1035F0002F5F3F4F0E949C10812F902F0E94D41D5F
:103600004A855B852E813F8100E010E008C0F9010A
:10361000E00FF11F80818E3239F00F5F1F4F0417CA
:103620001507A8F30FEF1FEFC601B40140E050E00B
:1036300098010E94F0102A853B85201B310BC501A3
:10364000B401A8010E94F010C6016CE571E00E946F
:103650005214882381F0C301B50140E050E02FEF00
:103660003FEF8E010E5F1F4F0E949A11C3010E940F
:10367000B719C30116C0C60161E671E00E94521479
:10368000882391F0C201B50140E050E02FEF3FEFF9
:103690008E010D5F1F4F0E949A11C2010E941D19D9
:1036A000C2010E9488127EC0C60167E671E00E94D6
:1036B0005214882381F0C101B50140E050E02FEFA2
:1036C0003FEF8E010C5F1F4F0E949A11C1010E94B3
:1036D0008B16C101E6CFC6016FE671E00E9452145D
:1036E000882399F0CE01C096B50140E050E02FEF5D
:1036F0003FEF8E010B5F1F4F0E949A11CE01C096C3
:103700000E941214CE01C096CCCFC60169E771E0C9
:103710000E945214882321F081E00E94271C1EC0C1
:10372000C60161E871E00E945214882301F10E94F1
:10373000861C87E793E06BE871E00E94111F87E722
:1037400093E060E971E00E940E1F80E00E94271C58
:1037500028E630E140E050E00E94E928AB01BC01DE
:1037600087E793E02AE030E00E94E71E1BC0C60115
:103770006DE971E00E945214882371F00E94671C69
:10378000BC0187E793E04AE050E00E94FB1E87E718
:1037900093E061EA71E004C087E793E063EA71E0D7
:1037A0000E94111FC5010E948812C6010E94881242
:1037B000C4010E94881287E793E00E94AC1C18168F
:1037C00019060CF4F9CEE6960FB6F894DEBF0FBEDC
:1037D000CDBFCF91DF911F910F91FF90EF90DF90C0
:1037E000CF90BF90AF909F908F907F906F905F90A1
:1037F0004F903F902F90089586E060E070E00E9427
:10380000EA2489E060E070E00E94EA2485E060E05C
:1038100070E00E94EA248AE060E070E00E94EA24FE
:1038200086E062E370E00E94EA2468EE73E080E0E4
:1038300090E00E946E2486E060E070E00E94EA243E
:1038400060ED77E080E090E00E946E240895DF92C2
:10385000EF92FF920F931F93D82E8EE580937C00FA
:1038600062E070E080E090E00E946E2480917A0037
:10387000806480937A0080917A0086FDFCCF8091ED
:10388000780040917900342F20E090E0282B392BEC
:1038900079010027F7FC0095102FDD2081F0609161
:1038A000BA017091BB018091BC019091BD01A8014A
:1038B00097010E942A29C901DA017C018D01B70113
:1038C000C8011F910F91FF90EF90DF90089581E064
:1038D0000E94271C9B01AC0168E47DE080E090E041
:1038E000621B730B840B950B0E945D282AE037ED59
:1038F00043EA5DEB0E94C22720E030E048EC52E44E
:103900000E94C2270E942A28CB01089580E00E94CD
:10391000271C28E630E140E050E00E94E92860934F
:10392000BA017093BB018093BC019093BD010895CF
:10393000F999FECF72BD61BDF89A80B50895F999E5
:10394000FECF1FBA72BD61BD40BD0FB6F894FA9AA2
:10395000F99A0FBE0895089520917303309174036E
:103960008091750390917603281B390B2F7330706B
:10397000C9010895209173033091740380917503F8
:10398000909176032817390719F42FEF3FEF09C0FC
:10399000E0917503F0917603ED5CFC4F8081282F58
:1039A00030E0C90108952091730330917403809130
:1039B0007503909176032817390719F42FEF3FEF1D
:1039C00013C0E0917503F0917603ED5CFC4F20810C
:1039D000809175039091760301968F739070909308
:1039E00076038093750330E0C901089510927A033D
:1039F0001092790388EE93E0A0E0B0E080937B031F
:103A000090937C03A0937D03B0937E0388E093E0C2
:103A1000909378038093770308950F931F93DF9318
:103A2000CF930F92CDB7DEB78C0169838091C5012A
:103A3000882369F083E0BE016F5F7F4F41E050E073
:103A40000E9462201816190614F49C0107C081E038
:103A500090E0F8019383828320E030E0C9010F9069
:103A6000CF91DF911F910F91089583E00E9439203B
:103A70000895CF93DF9312C082E00E94B51F2FEF0D
:103A80008F3F9207C9F0E0917303F0917403ED5CEE
:103A9000FC4F8083D0937403C0937303C09173036E
:103AA000D09174032196CF73D0708091750390915B
:103AB0007603C817D90701F7DF91CF910895FC016C
:103AC00080818E5F808380E86CEA70E042E450E0A1
:103AD0000E94E01F0895FC0181819081913A59F480
:103AE000813209F04CC080E06EEB71E047E050E0BD
:103AF0000E94E01F42C0913209F041C0803239F487
:103B00008EEB91E067E070E00E94242036C08232A4
:103B100009F035C082818093C5018091BE019091EA
:103B2000BF01A091C001B091C101805B9440A04051
:103B3000B04019F58091C50180FD12C087E797E775
:103B400090930108809300082BE088E190E00FB685
:103B5000F894A895809360000FBE209360000DC07C
:103B600088E10FB6F89480936000109260000FBE59
:103B7000A895109201081092000881E0089580E055
:103B80000895CF93DF930E9494248DE893E00E94E0
:103B900044200E948B0CC0E0D0E00E94E00C2097F3
:103BA000E1F30E940000F9CF0E944B0208950E94A9
:103BB000A10108950E94A1010895CF92DF92EF9292
:103BC000FF920F931F93CF93DF937C016B018A01C8
:103BD000C0E0D0E00FC0D6016D916D01D701ED912D
:103BE000FC910190F081E02DC7010995C80FD91F04
:103BF000015010400115110571F7CE01DF91CF91F1
:103C00001F910F91FF90EF90DF90CF900895EF926A
:103C1000FF920F931F938C01DC01ED91FC910190B9
:103C2000F081E02D6DE009957C01D801ED91FC91CA
:103C30000190F081E02DC8016AE009959C012E0DEC
:103C40003F1DC9011F910F91FF90EF900895CF93F1
:103C5000DF93EC016115710519F420E030E00FC02D
:103C6000DB010D900020E9F71197A61BB70BE88147
:103C7000F9810280F381E02DAD0109959C01C90114
:103C8000DF91CF9108954F925F927F928F929F9292
:103C9000AF92BF92CF92DF92EF92FF920F931F935A
:103CA000DF93CF93CDB7DEB7A1970FB6F894DEBF01
:103CB0000FBECDBF2C01742ECB01223008F42AE0B8
:103CC00019A231E2C32ED12CCC0EDD1E822E9924F6
:103CD000AA24BB24672D752FA50194010E940829F1
:103CE00079018A01C801B701A50194010E94E92860
:103CF000472D461B0894C108D1084A3014F4405D92
:103D000001C0495CF6014083E114F104010511058D
:103D100021F07E2C5F2DC801DDCFC201B6010E94CB
:103D2000271EA1960FB6F894DEBF0FBECDBFCF9170
:103D3000DF911F910F91FF90EF90DF90CF90BF9098
:103D4000AF909F908F907F905F904F900895CF920B
:103D5000DF92EF92FF920F931F93CF93DF93EC01CB
:103D60006A017B012115310541F4E881F981019057
:103D7000F081E02D642F09951FC02A303105D1F460
:103D800077FF17C0E881F9810190F081E02D6DE2A5
:103D900009958C0144275527BA014C195D096E0914
:103DA0007F09CE012AE00E94431E9801280F391F87
:103DB00004C02AE00E94431E9C01C901DF91CF91FB
:103DC0001F910F91FF90EF90DF90CF900895EF92A9
:103DD000FF920F931F937C010E94A71E8C01C701C5
:103DE0000E94071E9C01200F311FC9011F910F91D6
:103DF000FF90EF900895EF92FF920F931F937B0136
:103E00009A010027F7FC0095102FB801A7010E9426
:103E1000A71E1F910F91FF90EF9008950E94271EFB
:103E20000895EF92FF920F931F937C010E94271E2B
:103E30008C01C7010E94071E080F191FC8011F919E
:103E40000F91FF90EF900895CF93DF93EC010E94C4
:103E50003A24688779878A879B87E881F981068079
:103E6000F781E02DCE0109959C0197FF15C00E94B6
:103E70003A24288539854A855B85621B730B840B40
:103E8000950B2C813D814E815F81621773078407FA
:103E9000950718F32FEF3FEFC901DF91CF910895F8
:103EA000CF92DF92EF92FF920F931F93CF93DF9306
:103EB0006C018B017A01C0E0D0E009C0C6010E940C
:103EC000241F97FD07C0F80181938F012196CE151D
:103ED000DF05A0F3CE01DF91CF911F910F91FF90ED
:103EE000EF90DF90CF900895FC0104C08091F10025
:103EF000819361506623D1F7289884E680938603E6
:103F00000895282F809187038823C1F057FF1AC096
:103F100015C02898909386038091F1008193E21751
:103F2000F307B9F74115510539F08091F200882364
:103F300019F48BE68093E800AFBF02C04FEF5FEF4C
:103F4000CA010895AFB7F89427702093E9008091D3
:103F5000F200282F30E0241735070CF4A901FB01EB
:103F60009B01240F311D94E6DACFDF93CF930F929C
:103F7000CDB7DEB7BE016F5F7F4F41E050E00E94DA
:103F8000811F019719F02FEF3FEF03C08981282F80
:103F900030E0C9010F90CF91DF9108952FB7F894C9
:103FA00087708093E9008091E80085FD02C090E071
:103FB00004C08091F20090E4981B2FBF892F0895D0
:103FC000FF920F931F93F82E142F052F40918A0311
:103FD00050918B03212F302FC901DC01FB016EEFC3
:103FE00029C0F7FE02C0949101C0908120918803FE
:103FF0003091890324173507ACF48091E80085706F
:10400000E1F38091E80082FF03C02FEF3FEF17C07C
:104010009093F100C90101968F739070892B11F470
:104020006093E8002F5F3F4F30938903209388030C
:10403000119731961097A9F6812F902F9C01C901F5
:104040001F910F91FF9008950F931F939C01162FBE
:10405000072F8091E80082FFFCCFC901612F0E94E9
:10406000741F8BEF8093E800812F902F1F910F9189
:1040700008958093E9008091F200882319F08AE383
:104080008093E800089508951092870381E080935B
:10409000D70080EA8093D80082E189BD09B400FE90
:1040A000FDCF61E070E080E090E00E946E2480E946
:1040B0008093D8008CE08093E2001092E000559A43
:1040C000209A08956F927F928F929F92AF92BF92A3
:1040D000CF92DF92EF92FF920F931F93CF93DF93D4
:1040E000E82E942E852E80918703882309F18B0179
:1040F000242F352FC901EC016AEFF62E57E0752EFB
:104100007E208E2D90E040E2A42EB12CA822B92270
:104110003AE3632E20E4C22ED12CC822D9224CC00F
:104120008E2D0E94CE1F282F882361F4FA9419F453
:104130002FEF3FEF4CC061E070E080E090E00E9424
:104140006E243AC090E0C817D9070CF42C2FC21B7C
:10415000D1094FB7F8947092E900A114B10421F489
:1041600006C01092F10021502223D9F719C0E7FCB4
:1041700003C0F801922F10C0C801322F06C0FC0105
:104180000196E491E093F10031503323C1F706C06A
:1041900081918093F10091509923D1F7020F111D65
:1041A0008091E80085FF05C0209729F4C114D1044F
:1041B00011F06092E8004FBF209709F0B1CF5D98F1
:1041C00084E680938503292D382DC9019C01C901FE
:1041D000DF91CF911F910F91FF90EF90DF90CF90E3
:1041E000BF90AF909F908F907F906F9008951F9297
:1041F0000F920FB60F9211242F933F934F935F931B
:104200006F937F938F939F93AF93BF93EF93FF939E
:104210008091E1001092E100982F83FF0FC010926F
:10422000E90081E08093EB001092EC0082E3809340
:10423000ED001092870388E08093F00092FF34C075
:1042400083E08093E9008091F200882319F08AE3EB
:104250008093E8008FB7F89492E09093E9009091F2
:10426000F2008FBF992321F087E793E00E94391D68
:1042700080918503882351F080918503815080933C
:10428000850380918503882309F45D9A80918603D4
:10429000882351F08091860381508093860380911A
:1042A0008603882309F4289AFF91EF91BF91AF917B
:1042B0009F918F917F916F915F914F913F912F913E
:1042C0000F900FBE0F901F9018950F931F93DF93C1
:1042D000CF930F92CDB7DEB719828E010F5F1F4FBC
:1042E000C8010E945F1DC8010E94B627898190E025
:1042F0000F90CF91DF911F910F9108951F920F9210
:104300000FB60F921124EF92FF921F932F933F93BA
:104310004F935F936F937F938F939F93AF93BF93CD
:10432000EF93FF93DF93CF93CDB7DEB76197DEBFF7
:10433000CDBF1092E9008091E80083FF04C1CE0157
:10434000019668E00E94741F82EF8093E8009981D3
:1043500097FF05C08091E80080FFFCCF03C08EEF7F
:104360008093E800292F30E0C90180769070892B76
:1043700009F0C2C08A81882329F41092F1001092BA
:10438000F100D6C0813009F4D3C0833009F4D0C025
:10439000853049F48091E80080FFFCCF8B818068F4
:1043A0008093E300C5C0863009F07CC01C81EF809B
:1043B000F8841230C1F51092E9001092890310922E
:1043C000880310928B0310928A030E94652199E062
:1043D000FE013996DF01292F1D922A95E9F7998769
:1043E0001A8791E09E8790E8988B9AEF998B20919D
:1043F000880330918903275F3F4F3C872B878D8748
:104400001092E9001092890310928803F0928B03B6
:10441000E0928A0380E0BF0149E050E00E94E01F83
:104420000E94652185C01092E900109289031092C4
:104430008803F0928B03E0928A03123241F482E205
:1044400090E00E94AE27892B09F476C071C011302C
:1044500079F488E0E816F10419F481E080938C0384
:1044600080918C03882309F06BC0ECE2F1E013C06B
:10447000133009F061C08B81882319F4EEEEF0E06F
:104480000AC0823019F4E2EFF0E005C0813009F093
:1044900053C0E4E1F1E0449180E8BF0150E00E94A4
:1044A000E01F46C0873009F447C0883021F481E01E
:1044B0008093F1003DC08930D9F523703070232BF3
:1044C000D9F5E1E5F1E091E031E026E39093E900F0
:1044D0003093EB0084918093EC002093ED009F5F7C
:1044E0003196953099F78EE78093EA001092EA00B2
:1044F0008B81809387031CC08F8198851092E9007F
:10450000109289031092880390938B0380938A03FF
:104510008D81882329F4CE0101960E946B1D06C06F
:10452000823051F4CE0101960E947F26882321F02B
:104530008EEF8093E80007C081E28093EB0003C018
:10454000EEE3F1E0A8CF6196DEBFCDBFCF91DF9162
:10455000FF91EF91BF91AF919F918F917F916F915B
:104560005F914F913F912F911F91FF90EF900F908E
:104570000FBE0F901F901895853008F051C0E82F9E
:10458000F0E0EE0FFF1FE257FC4F71836083823033
:1045900009F1833030F4882349F0813009F040C0BC
:1045A0000DC0833021F18430D9F52EC0809169008F
:1045B0008C7F842B80936900E89A0895809169002C
:1045C000440F551F440F551F837F842B8093690030
:1045D000E99A08958091690034E0440F551F3A9597
:1045E000E1F78F7C842B80936900EA9A089580918B
:1045F000690026E0440F551F2A95E1F78F73842B3D
:1046000080936900EB9A089580916A0094E0440FCA
:10461000551F9A95E1F78F7C842B80936A00EE9A60
:1046200008951F920F920FB60F9211242F933F936C
:104630004F935F936F937F938F939F93AF93BF93AA
:10464000EF93FF9380918E0390918F03892B29F034
:10465000E0918E03F0918F030995FF91EF91BF9147
:10466000AF919F918F917F916F915F914F913F910A
:104670002F910F900FBE0F901F9018951F920F92C1
:104680000FB60F9211242F933F934F935F936F9325
:104690007F938F939F93AF93BF93EF93FF938091FB
:1046A000900390919103892B29F0E0919003F09170
:1046B00091030995FF91EF91BF91AF919F918F91D8
:1046C0007F916F915F914F913F912F910F900FBE0E
:1046D0000F901F9018951F920F920FB60F921124F2
:1046E0002F933F934F935F936F937F938F939F93FA
:1046F000AF93BF93EF93FF938091920390919303B5
:10470000892B29F0E0919203F09193030995FF9191
:10471000EF91BF91AF919F918F917F916F915F9139
:104720004F913F912F910F900FBE0F901F901895B2
:104730001F920F920FB60F9211242F933F934F9316
:104740005F936F937F938F939F93AF93BF93EF93F9
:10475000FF938091940390919503892B29F0E09128
:104760009403F09195030995FF91EF91BF91AF915B
:104770009F918F917F916F915F914F913F912F9179
:104780000F900FBE0F901F9018951F920F920FB6AB
:104790000F9211242F933F934F935F936F937F93C7
:1047A0008F939F93AF93BF93EF93FF938091960363
:1047B00090919703892B29F0E0919603F09197034C
:1047C0000995FF91EF91BF91AF919F918F917F914B
:1047D0006F915F914F913F912F910F900FBE0F906E
:1047E0001F9018951F920F920FB60F9211242F93BE
:1047F0003F938F939F93AF93BF9380919C0390912E
:104800009D03A0919E03B0919F033091A003019658
:10481000A11DB11D232F2D5F2D3720F02D5701969F
:10482000A11DB11D2093A00380939C0390939D0331
:10483000A0939E03B0939F03809198039091990356
:10484000A0919A03B0919B030196A11DB11D809385
:10485000980390939903A0939A03B0939B03BF91FD
:10486000AF919F918F913F912F910F900FBE0F901D
:104870001F9018958FB7F89420919C0330919D0359
:1048800040919E0350919F038FBFB901CA010895C3
:104890009FB7F894209198033091990340919A031F
:1048A00050919B0386B5A89B06C08F3F21F02F5FD8
:1048B0003F4F4F4F5F4F9FBF542F432F322F222721
:1048C000280F311D411D511D82E0220F331F441F4F
:1048D000551F8A95D1F7B901CA010895EF92FF9249
:1048E0000F931F93CF93DF937B018C010E94482489
:1048F000EB010EC00E9448246C1B7D0B685E734068
:10490000C8F30894E108F10801091109C851DC4F06
:10491000E114F1040105110569F7DF91CF911F91B1
:104920000F91FF90EF900895789484B5826084BDD4
:1049300084B5816084BD85B5826085BD85B58160A3
:1049400085BDEEE6F0E0808181608083E1E8F0E003
:104950001082808182608083808181608083E0E832
:10496000F0E0808181608083E1E9F0E08081826015
:104970008083808181608083E0E9F0E080818160D4
:104980008083E1ECF0E080818460808380818260BC
:104990008083808181608083E3ECF0E080818160AE
:1049A0008083E0ECF0E0808182608083E2ECF0E0E4
:1049B000808181608083EAE7F0E080818460808389
:1049C0008081826080838081816080838081806833
:1049D000808308951F93CF93DF93182FEB0161E03D
:1049E0000E948F25209709F48FC0CF3FD10509F48D
:1049F0008EC0E12FF0E0E554FE4F8491883009F439
:104A000040C0893070F4823019F1833020F4813055
:104A100009F077C018C0833001F1843009F071C00B
:104A200026C08B3009F44BC08C3030F4893099F1BA
:104A30008A3009F066C039C08C3009F44DC08E3020
:104A400009F05FC051C084B5806884BDC7BD63C034
:104A500084B5806284BDC8BD5EC0809180008068DE
:104A600080938000D0938900C093880054C08091C7
:104A70008000806280938000D0938B00C0938A0076
:104A80004AC080919000806880939000D0939900F4
:104A9000C093980040C08091900080628093900005
:104AA000D0939B00C0939A0036C08091900088609C
:104AB00080939000D0939D00C0939C002CC0809167
:104AC000C00080688093C0008091C0008F7B80937D
:104AD000C000C093CF001FC08091C000806280934F
:104AE000C000C093D00017C08091C200886080933E
:104AF000C2008091C2008B7F8093C200C093D2001D
:104B00000AC0C038D1051CF4812F60E002C0812F9B
:104B100061E00E941C26DF91CF911F910895CF93F1
:104B2000DF93482F50E0CA0183569E4FFC01349119
:104B300041585E4FFA018491882369F190E0880F13
:104B4000991FFC01EB5AFE4FA591B491FC01ED5960
:104B5000FE4FC591D491662351F42FB7F8948C91F0
:104B6000932F909589238C93888189230BC0623081
:104B700061F42FB7F8948C91932F909589238C939F
:104B80008881832B88832FBF06C09FB7F8948C91B0
:104B9000832B8C939FBFDF91CF910895883071F163
:104BA000893068F4823031F1833020F4813009F0AB
:104BB00042C01DC0833089F08430E9F512C08B30CB
:104BC00059F18C3028F48930E9F08A30A1F51EC003
:104BD0008C3031F18E3079F529C0809180008F774B
:104BE00003C0809180008F7D80938000089584B5FC
:104BF0008F7702C084B58F7D84BD08958091900029
:104C00008F7707C0809190008F7D03C080919000C6
:104C1000877F8093900008958091C0008F7703C0B4
:104C20008091C0008F7D8093C00008958091C20064
:104C3000877F8093C2000895FF920F931F93F62EF3
:104C4000482F50E0CA0185549E4FFC012491CA01AF
:104C500083569E4FFC01149141585E4FFA01049116
:104C60000023C9F0222319F0822F0E94CE25E02FC5
:104C7000F0E0EE0FFF1FED59FE4FA591B4919FB7E5
:104C8000F894FF2021F48C911095812302C08C911F
:104C9000812B8C939FBF1F910F91FF9008950F93CD
:104CA0001F93482F50E0CA0185549E4FFC01249168
:104CB000CA0183569E4FFC01049141585E4FFA0190
:104CC0001491112319F420E030E015C0222319F0CB
:104CD000822F0E94CE25812F90E0880F991F8F5838
:104CE0009E4FFC01A591B4918C9120E030E080238F
:104CF00011F021E030E0C9011F910F910895FC01EE
:104D000091818081813A31F4913089F080E0933053
:104D100089F40DC0813269F49B3021F48281809343
:104D2000C60105C09A3029F482818093C70181E0D1
:104D3000089580E00895EF92FF920F931F938C01E6
:104D4000E62EDC01ED91FC910480F581E02D0995C2
:104D5000F82ED801ED91FC910680F781E02DC80175
:104D60006E2D09958F2D90E01F910F91FF90EF9080
:104D700008951092A1031092A5031092A4038AE152
:104D800093E09093A3038093A2030895EF92FF9280
:104D90000F931F93DF93CF930F92CDB7DEB7898325
:104DA0008B017A0184E0BE016F5F7F4F41E050E0EC
:104DB0000E94622084E4B801A7010E9462200F9043
:104DC000CF91DF911F910F91FF90EF90089582E0B6
:104DD00048E050E00E94C6260895FC011682178222
:104DE000108611861286138614823496BF010E94A3
:104DF000E7260895DC01683810F0685829C0E62FCE
:104E0000F0E067FF13C0E058F04081E090E002C09E
:104E1000880F991FEA95E2F7809514962C911497C4
:104E2000282314962C93149760E012C0ED59FD4F7F
:104E30006491662319F420E030E01DC067FF08C0CC
:104E400014968C9114978D7F14968C9314976F778A
:104E5000FD0190E0662321F08681861709F4168211
:104E60009F5F31969630B1F7CD011496BD010E9437
:104E7000E72621E030E0C9010895CF93DF93DC01FC
:104E8000683810F0685825C0E62FF0E067FF12C0C0
:104E9000E058F04081E090E002C0880F991FEA9549
:104EA000E2F714962C911497282B14962C931497B0
:104EB00060E00FC0ED59FD4F64916623D9F167FFA3
:104EC00008C014968C911497826014968C93149752
:104ED0006F7716968C9116978617A9F117968C9175
:104EE0001797861781F118968C911897861759F1A4
:104EF00019968C911997861731F11A968C911A97F9
:104F0000861709F11B968C911B978617E1F0ED012E
:104F1000E0E0F0E09E2F8E81882321F4EA0FFB1F52
:104F2000668306C09F5F31962196E630F10591F7C2
:104F3000963049F481E090E013969C938E931297FB
:104F400020E030E007C0CD011496BD010E94E726A5
:104F500021E030E0C901DF91CF91089580E865EE4E
:104F600071E045E650E00E94E01F0895FC01808159
:104F70008F5F808380E86AE472E049E150E00E943C
:104F8000E01F08950CD0EBC0E3D040F0DAD030F051
:104F900021F45F3F19F0CCC0511115C1CFC0F0D042
:104FA00098F39923C9F35523B1F3951B550BBB27F0
:104FB000AA2762177307840738F09F5F5F4F220F9D
:104FC000331F441FAA1FA9F333D00E2E3AF0E0E896
:104FD00030D091505040E695001CCAF729D0FE2FE2
:104FE00027D0660F771F881FBB1F26173707480774
:104FF000AB07B0E809F0BB0B802DBF01FF2793582A
:105000005F4F2AF09E3F510568F092C0DCC05F3FC1
:10501000ECF3983EDCF3869577956795B795F79511
:105020009F5FC9F7880F911D9695879597F9089509
:10503000E1E0660F771F881FBB1F621773078407A5
:10504000BA0720F0621B730B840BBA0BEE1F88F7B4
:10505000E095089504D06894B111B5C0089598D032
:1050600088F09F5790F0B92F9927B751A0F0D1F051
:10507000660F771F881F991F1AF0BA95C9F712C0DB
:10508000B13081F09FD0B1E008959CC0672F782F98
:105090008827B85F39F0B93FCCF386957795679547
:1050A000B395D9F73EF490958095709561957F4FB3
:1050B0008F4F9F4F0895E89409C097FB3EF4909559
:1050C0008095709561957F4F8F4F9F4F9923A9F0E1
:1050D000F92F96E9BB279395F69587957795679570
:1050E000B795F111F8CFFAF4BB0F11F460FF1BC0B4
:1050F0006F5F7F4F8F4F9F4F16C0882311F096E947
:1051000011C0772321F09EE8872F762F05C06623F4
:1051100071F096E8862F70E060E02AF09A95660FAD
:10512000771F881FDAF7880F9695879597F9089566
:1051300097F99F6780E870E060E008959FEF80EC4A
:10514000089500240A9416161706180609060895ED
:1051500000240A9412161306140605060895092E53
:105160000394000C11F4882352F0BB0F40F4BF2BC2
:1051700011F460FF04C06F5F7F4F8F4F9F4F089502
:1051800057FD9058440F551F59F05F3F71F04795F8
:10519000880F97FB991F61F09F3F79F087950895DD
:1051A000121613061406551FF2CF4695F1DF08C0FC
:1051B000161617061806991FF1CF86957105610519
:1051C00008940895E894BB2766277727CB0197F9C1
:1051D0000895629FD001739FF001829FE00DF11D41
:1051E000649FE00DF11D929FF00D839FF00D749F61
:1051F000F00D659FF00D9927729FB00DE11DF91F0D
:10520000639FB00DE11DF91FBD01CF011124089569
:10521000A1E21A2EAA1BBB1BFD010DC0AA1FBB1FBA
:10522000EE1FFF1FA217B307E407F50720F0A21B2C
:10523000B30BE40BF50B661F771F881F991F1A9499
:1052400069F760957095809590959B01AC01BD01C3
:10525000CF01089597FB092E05260ED057FD04D0E7
:10526000D7DF0AD0001C38F4509540953095219531
:105270003F4F4F4F5F4F0895F6F79095809570958B
:1052800061957F4F8F4F9F4F0895EE0FFF1F059041
:10529000F491E02D09942F923F924F925F926F927A
:1052A0007F928F929F92AF92BF92CF92DF92EF92B6
:1052B000FF920F931F93CF93DF93CDB7DEB7CA1B37
:1052C000DB0B0FB6F894DEBF0FBECDBF09942A8862
:1052D000398848885F846E847D848C849B84AA840A
:1052E000B984C884DF80EE80FD800C811B81AA8197
:1052F000B981CE0FD11D0FB6F894DEBF0FBECDBF62
:10530000ED01089512E0CCEED2E004C0FE010E944F
:0E53100047292296CE3ED107C9F7F894FFCF69
:10531E00627574746F6E50726573736564282900BC
:10532E0041524455494E4F5F5341425245006865C4
:10533E006C6C6F00256C6400256C6F0025236C6F00
:10534E000025236C780025236C5800256C780025E9
:10535E006C5800256C750050726F66696C65200084
:10536E00206E6F7420666F756E642E0072656164B8
:10537E000077726974650070726F66696C6500689B
:10538E00616E647368616B6500766F6C74616765DE
:10539E000063616C69627261746500646F6E6500B2
:1053AE0063616C206F66667365743A2000534F43D9
:1053BE00002500556E6B6E6F776E20636F6D6D619D
:1053CE006E642E002000B2030000B42B110000E129
:1053DE000000000000000101E20100021E0228028E
:1053EE0032023C0214020A02F601EC012300000014
:1053FE000000FC12C4131D00FAFF0000F812C013C7
:10540E00DDFFDDFF0000ED12B513230000000000EC
:10541E007D0D63131D00FAFF0000790D5F13DDFF94
:10542E00DDFF00006E0D5413230000000000B70DC9
:10543E004713DDFFDDFF0000AC0D3C131D00000027
:10544E000000CC0D2613E3FFE3FF0000C10D1B137C
:10545E00020000000000CC0D2613FEFFFEFF000030
:10546E00C10D1B13000000002D0D331306000000AC
:10547E000000B70D4713FAFFFAFF0000AC0D3C1306
:10548E000800000000007D0D63130200FAFF00000B
:10549E00790D5F13F8FFF8FF00006E0D54137602BE
:1054AE00A202AC02B602C0028A028002080000000C
:1054BE000000B70D4713F8FFF8FF0000AC0D3C13CA
:1054CE00020000000000CC0D2613FEFFFEFF0000C0
:1054DE00C10D1B1300000000D9129513D20ED30E6E
:1054EE003011D40EDE0EE10EEA0E240F390FAF1876
:1054FE00E517221200000000D60DAC13D20E500F8D
:10550E00910E530F960E560F590F5E0F610F790FB6
:10551E00990E940E000000000D1DDD1DAC1CD31C59
:10552E00BA1C351D391D000000009B26DD1D3D27D0
:04553E00FA26ED2636
:00000001FF
